:020000040000fa
:080000002801040000000000cb
:020000040000fa
:10020000cc1b040000000000bc2b04000000000018
:10021000b2300400000000009a3104000000000029
:100220004a3b040000000000c6600400000000001b
:100230002064040000000000b60304000000000079
:100240000a0c04000000000062020400000000002c
:100250008f9f2100807922000001880000000000ab
:10026000050007000c0007006c16020000000000eb
:100270000040da000000fe004440a9000005200014
:100280000000e0000300320000002000a001880010
:100290004440a8000000060040ce2f0001002000ce
:1002a0001600370062004000e0804800910188009d
:1002b0009001ba0062004000e0804800910188008f
:1002c0009002ba0062004000e08048000002eb00ab
:1002d0006028e10005003a008301e90007003300cf
:1002e000038009000059eb00040037006128e10099
:1002f000010032000082eb00050007009101880038
:100300001001ba000200e000e6ff3a00000005001c
:10031000910188008002780062004000e08048007f
:100320003559ba008301e900080032002559ba00a6
:100330008301e900050032000400e000f4ff320010
:1003400015d9ba008301e900f1ff3a000000060068
:10035000000178001001e200030035001061a800e0
:10036000000028001021b7003008800041088000fc
:100370000200e000010032000089be00000006001b
:10038000889fbe00e30440000900a100808f540054
:1003900049003600e38f540001003e004900200070
:1003a000304f80000000e000020032008000780042
:1003b0000c003700819e200003003700908f54000e
:1003c000230036008080e800110078001100e00072
:1003d000faff3a000f003700928f54001c003600dd
:1003e0008280e800110178001100e000faff3a0075
:1003f00010017800819e200003003700908f540088
:10040000130036008080e80011007800820f500051
:10041000faff3a00284f8000890f54000100310094
:100420000904780008007800e50007000000e000fb
:1004300004003a00890f54001f0032000804d10064
:10044000f5ff37000818780030000700d4ff3700a8
:10045000110178009201780064805100890f5000ea
:100460000300310012009000800878000700370078
:100470000900410080087800920190001300980064
:1004800011007800128814000909780091017800a1
:100490001100e00004003200130090008380e800a7
:1004a0000000e00001003a008000eb00314f8800be
:1004b0000280e800010037000000eb004f04be009e
:1004c00000000600000478000600370082004100aa
:1004d000604f8000e10078000200e800504f880083
:1004e00001000100524f8000704f8000800f5100ca
:1004f000f6ff390040952000604f88002002200060
:10050000704f880008007800960507000000e000a2
:10051000300032008080e90091027800e38f5200c1
:100520002c0036000508a3002a003a00424f800044
:100530000200e00002003200828f5000040031000f
:1005400002087800414f8800160037000301780048
:10055000920190000300e00002003200818f510000
:10056000faff39001202780004004100808f500029
:1005700018003900810f500003003a0005094200bd
:1005800082007800070037000300e000030032001b
:1005900005804000808f51000e00390093009800c4
:1005a00011019800110190000200e00009003200e2
:1005b00011804000820f500006003a00e629ef004b
:1005c0001100900011017800900841001000900087
:1005d0009000980000000600881f78000004780052
:1005e000904e80000000e000010032000000010099
:1005f000d469ef00604e80000000e000010032008e
:10060000000001006140b800704e8800814e8800f3
:100610004f04780000000600889fbe00904e8000c6
:100620000000e0000100320000000100604e800088
:100630000000e000010032000000010030408000b6
:100640000000e000010032000000010000408000d6
:100650000000e0000100320000000100d449e20087
:1006600027003a00704e8000814e80000004eb00ad
:10067000d26026009301200016080700f2352f00f3
:10068000e3c6230000004100818049000804e8001f
:10069000e80f5400f6ff3a00704e8800814e880043
:1006a0000004eb0089802000d26026009301200026
:1006b000704e8000814e800006080700f2352f0042
:1006c000e3c623000000410081804900704e88008d
:1006d000814e8800809cbe000804e80000022000d3
:1006e000800f5400f0ff3a00204480003144800025
:1006f000104088002140880010c0b300d4e9b70042
:10070000d260260093012000704e8000814e800050
:10071000f0070700f2352f00e3c623000000410078
:1007200081804900704e8800814e88001240800010
:100730000201d000e203b200820141008280200069
:10074000028141001202be0014408800254088004a
:100750000089be0010408000214080000100780028
:1007600000f0a1004f04be0000000600889fbe00fc
:100770008004780001007800020478008901780084
:100780001100200015000700880f50000100320002
:100790008004eb00090078004f04be000000060052
:1007a0000000fa004fb99700e8815700018c200043
:1007b000603b20005f0007000080fa000000060098
:1007c0000000e00003003400ee040700e10f4000e9
:1007d00001003a000000eb0000000600889fbe0008
:1007e0008a9fbe008c9fbe008e1f78008106780015
:1007f00083047800000678000288b90000077800ba
:100800000000e00002003a000001780043003700d9
:100810000d00e0004100320000057800c9009000a2
:1008200069009000808f50000400390009007800b2
:10083000f80007000000e0002a00350019007800e9
:100840004a00de006100600003003a000a047800fc
:10085000800578000b0037000a017800a100200015
:100860000c0078002e010700800578000000e000f1
:1008700002003a000a047800020037000c00500021
:100880000004e800c90190006900900003005000d6
:10089000880f500002003100000478008005eb0052
:1008a000080178008c00780003007800260107001a
:1008b0000806460008055500490090000800400061
:1008c000c00498000b00e00004003200090078002a
:1008d000260107000000e00002003a000a00e000e4
:1008e000ceff3a001900780000b8a30002003200e1
:1008f000090078001d01070000c0200019006000f9
:100900000200320049009000e00498000a005700fd
:10091000110009000d80d800000178000200780065
:100920004f0778004f06be004f05be004f04be00c3
:10093000000006006200fa00889fbe008a9fbe0089
:100940000004be00020578008300780060f92f00e3
:100950000f0040004501070088979f0099979f006e
:100960000000eb00a09f9f009a4578000b80fb00e1
:100970000000ea00cf04de000904e90050c2b30021
:1009800080cf550001003200090478000800e00023
:100990000b003400080178008a0078001f9097004f
:1009a0008f9197000300010090979f000000e000e6
:1009b000930032002f98970008004000a09f9f00ee
:1009c0000905450050c2b30080cf55000400320035
:1009d0000b04e000e4ff3a002f98970089003700ed
:1009e0000000eb00809f9f00f0979f00e0979f0022
:1009f000d0979f00c0979f00b0979f00c09f9f0017
:100a000009003700609c200000805000000040007a
:100a1000a19b2000e08078004f98970001007000b3
:100a2000c09f9f000a05e8001a4478008800fb0078
:100a3000609c200012010700800078000000e000a8
:100a4000f0ff3a00a0c2b300804f54000e003a00fd
:100a5000bf8897000180e900b08f9f009000780068
:100a6000b19f9f000100e00005003d000100ea0089
:100a7000b09f9f004f9897000020a000c09f9f004c
:100a80000a05e80010003700b19f9f0009003700f9
:100a9000bf989700f0ff2700808f500004003200bd
:100aa0006a08b9000000410003004000b09f9f00a9
:100ab0000a05e8001a01fb0003fd2f0003004100b6
:100ac000e90f5000f2ff3600e0c2b3009a4f100069
:100ad000040032000080eb00909f9f008a047800a1
:100ae0001c0037008a04e800a0c2b300994f100030
:100af00007003a00bf8897000180e900b08f9f008f
:100b000010007800909f9f008a84e8001100370051
:100b10000000eb00909f9f00090037009f9897000e
:100b2000f0ff2700808f5000040032006a08b900ef
:100b30000000410003004000909f9f008904e800ee
:100b40001901fb0003fd2f0003004100e90f5000d5
:100b5000f2ff3600194478008800fb00a0942100c1
:100b6000c70007000000e00002003a0000447800df
:100b7000010037008904e800a87f9f0080c6b30009
:100b8000804f540004003a0066405000994f140012
:100b90000700320008003700c0c6b300804f540081
:100ba00005003a00994f140003003a0065404000e8
:100bb000a07f9f008904e8000905e800c8fb2f001a
:100bc0000f04440060f92f000f0040008085e8000a
:100bd000880178001901fb00800078000b00780084
:100be000af0007000000e00005003a008800780030
:100bf0000b007800f40107000000e0005aff3d0000
:100c00000080eb004f05be004f04be000080fa00dc
:100c100000000600889fbe0000047800c00190001c
:100c2000600090008000eb00808f51003900390097
:100c3000180178002000290000006100e20f500038
:100c400007003200002020001800e00001003500fd
:100c500000202400000c71008080eb002d00370084
:100c60000100260001006100810f500008003a00d9
:100c700038009000808f510005003900080078008e
:100c80003a0007008080eb000000e00021003a00fd
:100c900000c020001800600017003a00a80490006f
:100ca0006002200008004000808f540012003a00cb
:100cb00000202000b2fd070080007800200498008a
:100cc0000000e00005003a0029049800490498005b
:100cd0000900e80030049800060037001860a00002
:100ce000400498000020b00030049800410c9800a7
:100cf000510c98007e0207002800900050049800d4
:100d0000380090006004980000002600180c700065
:100d10008000eb00010078004f04be0000000600d8
:100d2000820178000400370090cf100005003200e7
:100d30000000e8008301e9000300e000faff3a0048
:100d40000000eb000000060000027800800178003f
:100d500001003700b159780002004200808f510035
:100d6000fcff3a000400780000000600889fbe00e7
:100d70008a1f7800000478000000e0000e003a00ae
:100d800000057800898820001900e0000500320085
:100d900019007800f5ff07000000e00001003d00a9
:100da0000084eb000a05e8008984e800e80f55009c
:100db0002a003200f4ff3700100078004d00de00fa
:100dc0006100600024003200a80490000800370091
:100dd0000901500038409000890078000000fb00b5
:100de0007e0307000000e00013003400808444000c
:100df00048009000808f5400f5ff390028009000d3
:100e0000400498001801780000c020000000610034
:100e100002003200a800900001003700b8009000e6
:100e20004e10de00610060000a003200610498008c
:100e30000004eb00090037002800900040049800ef
:100e400060049800500c98001890a0000084eb00fb
:100e500002003700510c9800000478000800780068
:100e60004f0578004f04be00000006000200fa00a3
:100e7000f1bf9f00010878000080fa000000060022
:100e8000040037001004e00001003a0000000500f3
:100e90000000e80090cf1000faff3a0000000600c2
:100ea000889fbe008a1f7800000478000102780045
:100eb0008244780003057800e0c6b300804f5100fb
:100ec000d700320015003c006b405000804f5100ad
:100ed000240032000a003c0070405000804f510056
:100ee0001401320065404000804f5100760032000e
:100ef00050c2b300804f510027013a002301370050
:100f000040c6b300804f51001b00320065404000d6
:100f1000804f510020013a001700370030c7b3005e
:100f2000804f51000301320007003c006440500034
:100f3000804f5100640032000040e800804f5100b3
:100f400015013a00ec00370050c7b300804f510044
:100f50005d00320063404000804f51000e013a00b6
:100f6000590037009180e900010a7800780090006c
:100f700011f079000e01370028619000c0c6b3005f
:100f8000804f51000a003a001400780064015000bc
:100f9000020a78001200be004f88de00cf80de001b
:100fa0001202be00000378008003780015003700ad
:100fb00010c7b300804f510002003a00940078003f
:100fc0000400370094007800a0c6b300804f5100a1
:100fd00005003a0068805000000a78003002be0028
:100fe0002003be00070037000180e900000a7800f6
:100ff0001000780000027800cfa2de000503780020
:1010000086037800049cbe000694be00a860900091
:1010100080c6b30080cf50000e00320020c6b3005f
:1010200080cf500005003a000400fb00cf80de00b6
:1010300001017800820178000a00370040c7b30040
:1010400080cf5000030032006640400080cf500047
:1010500006003a0004007800cf80de00010178002d
:1010600082017800009cbe000294be003800be00e1
:101070002801be00e00f5000e08f5800e00f59003b
:10108000e08f590003003d0078009000d1c2b3000a
:101090000a003700081090000018a3000300320077
:1010a00078009000b1c2b300040037000008a3002c
:1010b000560032007800900001c2b30001707d003c
:1010c0000000e8005000370028619000c0c6b3005f
:1010d000804f510007003a0094007800648050006f
:1010e000000a78001002be000003eb0086037800bf
:1010f0001500370010c7b300804f510002003a00be
:10110000940078000400370094007800a0c6b30073
:10111000804f510005003a0068805000000a7800b6
:101120003002be002003be00070037000180e90046
:10113000000a780010007800000278000500200006
:101140000600200007002000049cbe000694be009c
:10115000a860900080c6b30080cf50000e0032001f
:1011600020c6b30080cf500005003a000480fb0089
:101170000100200002002000030020000a003700c8
:1011800040c7b30080cf50000300320066404000eb
:1011900080cf500006003a000400780001002000d3
:1011a0000200200003002000009cbe000294be004c
:1011b000081090000038a300140032003800be0070
:1011c0002801be00e00f5000e08f5800e00f5900ea
:1011d000e08f59000d00320080c7b30080cf54006b
:1011e0000300320080c5b30080cf540007003a00ee
:1011f0007800900001c3b30001707d008000e8001a
:1012000089707d000080e8007004980078009000ec
:1012100000004500600498008940780042003700d3
:10122000a8609000c0c6b30080cf500025003200f7
:101230000a003c006440500080cf5000280032007b
:1012400000c0e80080cf5000140032006840500019
:1012500080cf500022003a000a00370040c7b30098
:1012600080cf50001e0032006640400080cf50000a
:101270001b0032006940500080cf500018003a0037
:10128000060037001480e900000a7800100078009a
:10129000485c900008487800470037001480e90057
:1012a000000a78001002780068089000cf80de0005
:1012b0000101780082017800009abe000292be000f
:1012c0003d0037001480e900000a78001001780022
:1012d00068089000cf80de000089be00360037002d
:1012e0001480e900000a780010007800680c900073
:1012f00008087800300037001180e9008008780085
:1013000010007800cf80de000101780082017800b3
:10131000009cbe000294be007800900000004500d2
:101320006004980081c7b3000800780046010700f8
:10133000210037001480e900000a7800900178004d
:1013400063049800580990000200e00003003d008b
:1013500003007800ef0107000a0037008000eb006f
:10136000030078006efe0700800078000000e000b7
:101370000300320068009000008050000100370038
:1013800058089000100c98000b003700780090006f
:1013900002707d0006003700780090008000450054
:1013a0000904e00001003a0059c2b30089487800fe
:1013b0000000e800700498000000eb004f05780082
:1013c0004f04be00000006000400fa00889fbe0023
:1013d0008a9fbe008c1f7800000478000106780008
:1013e00070089000f80090000100500088089000fc
:1013f000010050009808900001005000a8089000db
:1014000001005000b808900001005000c80890008a
:101410008105500000022200a0bf9f0000032300ae
:1014200090bf9f00081090000028a30018003a0009
:101430000b00e000160034008b04780009057800ea
:10144000e28f5400020036002a002000020037001c
:101450000900e0000b003400c80190000a01780088
:10146000ec805700580090000300010050049800e1
:101470000000e00096003200680890000a0040007a
:10148000600c98008a8454004240a900ebff3c00a5
:10149000780190000200e0000b003400c8019000c9
:1014a0008c00780058009000030001005004980060
:1014b0000000e0008600320068089000f80090000c
:1014c00001004000600c9800880c90000900e000ca
:1014d0001500340009057800e28f54000200360040
:1014e0002a002000020037000900e0000b00340051
:1014f000c80190000a017800ee8057005800900063
:1015000003000100500498000000e0007000320069
:10151000680890000a004000600c98008a8454001b
:101520004240a900ebff3c00180990000200e000d7
:101530000b003400c8019000e800900058009000b3
:1015400003000100500498000000e0006000320039
:10155000680890009808900001004000600c980016
:10156000a80c90000900e00015003400090578007f
:10157000e28f5400020036002a00200002003700eb
:101580000900e0000b003400c80190000a01780057
:10159000ee805700580090000300010050049800ae
:1015a0000000e0004a003200680890000a00400095
:1015b000600c98008a8454004240a900ebff3c0074
:1015c000380990000200e0000d003400e8009000af
:1015d0001808900080804000c801900058009000da
:1015e00003000100500498000000e00038003200c1
:1015f00068089000b808900001004000600c980056
:10160000c80c90000900e0001500340009057800be
:10161000e28f5400020036002a002000020037004a
:101620000900e0000b003400c80190000a017800b6
:10163000ee8057005800900003000100500498000d
:101640000000e00022003200680890000a0040001c
:10165000600c98008a8454004240a900ebff3c00d3
:10166000081090000028a3001b0032000b00e000cf
:10167000190034008b04780009057800e28f5400cb
:10168000020036002a002000020037000900e000b6
:101690000b003400c80190000a017800ec8057006c
:1016a0005800900003000100500498000000e00082
:1016b00007003200680890000a004000600c9800a3
:1016c0008a8454004240a90003003400eaff370036
:1016d0000080eb00010037000000eb004f067800af
:1016e0004f05be004f04be000080fa000000060057
:1016f000f849e20004003a00a0c020000c010700f5
:1017000020c0b300f8e9b70000000600889fbe00c3
:101710000004780095fd0700800478001800780028
:101720000068a300020032002800900077fb070049
:101730000000eb0020049800384090000004e00016
:10174000050035000000fb00570107000000e00025
:10175000010032008084eb00181090000000e000cf
:1017600008003200590107000000e00001003200cb
:101770008084eb001810900064fb07000000eb0071
:1017800010149800180078000008b2001000320011
:101790000000eb0081882000910f14000700320048
:1017a0000000e8008180e800e80f5000faff3a00ee
:1017b0000800780055fb07001300370000004000c8
:1017c00081882000010040000008eb00f8ff37008e
:1017d000000c780000c0eb0030449800600220004c
:1017e000080040002004980040049800500498002d
:1017f000400c980060049800500c98007004980009
:1018000076004400000c9800090078004f04be00e8
:1018100000000600889fbe00890020006889200023
:101820001800e0000200320018007800b7ff07003f
:101830008904e9000884e9000900e000f8ff3a00a3
:101840004f04be00000006006f02b000889fbe007b
:101850008a9fbe008c9fbe008e1f78000006780015
:10186000909a200080bf9f0080c5b30080cf5000b9
:101870000700320082002000f2b79f008399200009
:1018800083bf9f007740400080cf50000a003200a5
:1018900080c7b30080cf500005003200a4002000b4
:1018a000f4b79f0080c5b30080cf500002003a001b
:1018b00000012000f0b79f003c04be002c05be00d4
:1018c00040c6b30080cf50000300320065404000a6
:1018d00080cf50000b003a00e00f5400e08f5c0016
:1018e000e00f5d00e08f5d0006003d006000b80085
:1018f0006011b80008045000898458000a05590096
:101900008b855900e00f5400e08f5c00e00f5d0014
:10191000e08f5d0004003a005c0890008d0120001b
:101920000000e0000c003200ffb0970001027800d8
:10193000cfa2de0005037800860378000800be0011
:101940000a01be00f40307000fba97006440780054
:10195000d0e79f007d0120007fb097000002780053
:10196000cfa2de0005037800860378000800be00e1
:101970000a01be00e1030700009ebe000296be0001
:101980000d00e900e1fc2f008f804000008740003f
:101990001a0037007fb1970002027800cfa2de0064
:1019a00005037800860378003c00be002c01be00d1
:1019b000dd0307000205be000004be008d06e9003d
:1019c000ffb1970003027800cfa2de000503780084
:1019d000860378000800be000a01be005b04070011
:1019e0003fb29700000052008fb8970060cf780098
:1019f000089ebe000a96be000e07e9003c00be002d
:101a00002c01be00b0b79f00c1b79f00d2b79f00a6
:101a1000e3b79f00e00f5000e08f5800e00f59003f
:101a2000e08f5900020034000d00e000d9ff3c00b7
:101a3000ffb09700e88f500010003a000c109000a3
:101a40000038a3000d003200f78f560006003e005c
:101a5000e2fc2f000d014100e2c07f0000c3b30093
:101a600080cf5000050032008d06e90000c3b300ae
:101a7000e3fc2f008d81410080f17f00788116000a
:101a8000120e98006c009000e3fc2f008f81410043
:101a90008d804100acfc07001c0990005c089000a0
:101aa000800f510006003d0002005000000e98001b
:101ab0000c1090000040a100001698000f003700a5
:101ac0000000e0000d003d000c109000740060006c
:101ad000f00f500009003a007c089000fc009000d4
:101ae000010050008c0890000100500002005000de
:101af0004240a90001003400000e98004f07780012
:101b00004f06be004f05be004f04be006f02b1007d
:101b10000000060080007800010037000000e800a7
:101b20001004e000fdff3a00010050000000060034
:101b300000017800202620000000e00008003200ac
:101b4000504f80000000e000050032000000e90076
:101b5000504f880000004000614f800002b07800c4
:101b6000000006000c02e20004003d000f42ab0042
:101b7000020032000f02ab00feff32000040da002c
:101b8000feff3700889fbe0080047800d04f8000a1
:101b90000000e00003003a00550007000000e000ec
:101ba0000a003500d04f80000900e00002003a0032
:101bb00000047800060037000004780009004000a7
:101bc0004b0007000000e00001003d000084eb0036
:101bd000080078004f04be00000006000a00fa006a
:101be00080017800e20f500024003e00e04f8000aa
:101bf000e10f500008003200e02120000000e0006a
:101c0000050032006421200085212000a62120004b
:101c10008001780004003700c4202000e520200067
:101c20000621200043212000144090000004e00021
:101c3000030035008009eb0000002800140a700042
:101c4000154090000028a30001003a0015a0a00054
:101c50008201780006003700154090000008a300bc
:101c6000fdff32003100fb00000b78008301e9002a
:101c70000300e000f8ff3a000800370030002000c1
:101c8000b0bf9f00c3bf9f00d1bf9f00e2bf9f00b6
:101c90006a80570000c0da006fb997000200780030
:101ca0000080fa00000006000a00fa00110020007f
:101cb000b1bf9f00c0bf9f006a80570000c0da001c
:101cc0004fb897000080fa00000006000a00fa00f2
:101cd00051002000b1bf9f00c0bf9f006a80570025
:101ce00000c0da005fb897000080fa00000006002c
:101cf000800078000000e00004003a008097210096
:101d0000d04f880001017800060037000081eb0009
:101d1000809f2100808f500002003e00d14f88003c
:101d20000001eb000200780000000600839f6800bd
:101d30000100e00002003d0060001000e08018009b
:101d40000300e00002003d0060011100e081190085
:101d50007d0107004f00e00002003b006000100022
:101d6000e080180000000600889fbe008a9fbe0029
:101d7000010578000100e0000400350008003c0087
:101d80000000e00020003200050037006000100075
:101d9000e080180002003b0001f02c001a00370020
:101da0000004be006011b8006b0920000982cf005a
:101db000020039000882cf000441b000694252009d
:101dc0000e00320008003b00828171006101640056
:101dd0008904d1000884d3008b05e8000442e800a0
:101de000f9ff3a00050037000804440089844c00dc
:101df0008b05e9000442e900fbff3a00620107009d
:101e00000af0a70001f0a0004f05be004f04be007d
:101e100000000600889fbe008a9fbe008c1f7800cd
:101e20000004be007e0107000478a30026003a00eb
:101e30006120e1002500320009f8a30025003a00e6
:101e40006420e10021003200f507b1000508a3007d
:101e50000200320000004000818048006044b80069
:101e60000310200002002000000040008180480094
:101e70000805440089854c000a0541008b8549000e
:101e80000a0550008b855800030033000a00be008d
:101e900002047400838474008301d1000281d300a2
:101ea000830f7100f0ff3a008904d1000884d30049
:101eb0006001490082017800c1adde00fb07b0007f
:101ec00031010700740137000960a0000800be005e
:101ed0007101370012022000b24f8800f0ff2f007e
:101ee000f1ff27006c013700889fbe008a9fbe006b
:101ef0008c1f78006f0107001002200002003b00d9
:101f0000b04f88005b0137008a0062006408e1007e
:101f100002003a00b04f8800630137006108e10019
:101f2000fcff32000800be0003047800c400070074
:101f300001f0a1006701070008f0a60004003700c7
:101f40000001be0091042400b0fd2000370007000e
:101f500009f0a70001f0a2004f013700889fbe00e2
:101f60008a9fbe008c1f7800520107004101330098
:101f700003866c006450e100240032006420e1001c
:101f8000270032006150e100220032006120e100b0
:101f9000210032008b854200eb07b1000134b8000c
:101fa000003ab8000804420089844a00013ab800a7
:101fb0000030b8008880400009014a000400330066
:101fc0000000400081804800020149008b05e900c3
:101fd000c909dd00830170000100320013002000f8
:101fe000c814de004814dd004709de001200b2000c
:101ff000c808de0008847000e300070001f0a100bb
:102000000cf0a70001f0a000230137006120e100df
:10201000250132000801be000200be00f7ff3700b4
:102020006150e100fcff3a001f01370003f0a200fd
:10203000889fbe008a9fbe008c1f78001d0107008c
:102040000c0133006450e1004f0032006420e100d5
:102050005200320003826c0007003b000905d000eb
:102060000306d000820f54000c065d000200390008
:10207000020032008901780003067800858255004d
:1020800004003d000003fd008103fd008502ea001d
:102090008b854200840f720002003b00600010003c
:1020a000e08018006011b8000005eb007a28e1001c
:1020b0000a00390006007800c75ddd00f707b200ae
:1020c000878075002d003700828171000a01780039
:1020d000610560008180d1000080d3008502e900a5
:1020e000f9ff3b00060440008784480002003b00e3
:1020f00060041400e0841c000988a300070032007b
:102100008a81710082817100610164008904d100bb
:102110000884d3008b05e800170037000978a30076
:1021200013003a000b00e000130034008b05e900b7
:102130000804440089844c000a4474000978a30010
:102140000d003a000b00e000070034008b05e900a9
:102150000804440089844c0001003a000b00200070
:102160000978a300f7ff32000001eb0002003700fe
:10217000828171000a017800830007000cf0a7003b
:1021800001f0a000c40037006420e10002003a0022
:10219000838f6c00c40033000801be000200be0043
:1021a000bd003700140020002f0137000001be00e1
:1021b0009b0007000470a70003f0a1006509b100af
:1021c000160032000d0035006828e10006003500d9
:1021d000f0ff2f00f1ff27000300e00013003b0099
:1021e0000100280000000500000040008180480038
:1021f0008502e900fcff3a0008003700f88f420032
:1022000002003c008000eb00000005008100d100ce
:102210000080d3008502e800fcff3a000300e000e4
:1022200002003b0060001000e08018000000060083
:10223000f4ff2f000c013700040020000a013700d2
:10224000889fbe008a9fbe008c1f780099000700ff
:102250008800330003866c006450e1002e003200d9
:102260006420e100330032006150e1002f003200b1
:102270006120e1003100320085855500eb07b00098
:10228000090020000804200005003700080444006d
:1022900089844c000a0031000603430087834b0009
:1022a0000001530081815b00f8ff33000203be0090
:1022b0000800a0000804440089844c00f6ff39009f
:1022c000c639dd00830173000100320013002000d5
:1022d0008904d1000884d3000998a30005003200c6
:1022e0000800a7000300a0008904d1000884d300df
:1022f0008b05e8008904d1000884d3000001eb00bd
:102300000281d2002000070001f0a1000cf0a7001c
:1023100001f0a000600037006420e100620032009c
:102320000801be000200be00f7ff37006120e10097
:102330005d0032006000b800f3ff370000002000ad
:1023400001f82700f0ff37006022b80006022000e5
:102350000000d0008180d2000482d2008582d200a9
:102360000000a0000202520083825a0003003b00da
:102370000202420083824a000000a1000603e90035
:10238000f3ff3a0000000600810020006180550044
:102390000b003d000b00200061fe2f000100e1005a
:1023a0001d00340082817100610164008904d10044
:1023b0000884d3000000e800faff3a007100200012
:1023c0006100640003007000020060000900320038
:1023d00061044400e0844c000988a5000500320037
:1023e0008b05e8006808e10002003a008904d1008a
:1023f0000884d300f20f20000258e10005003d00e0
:10240000c75ddd00f907b20089807500080078001b
:10241000000006000bf827008b0078000000050084
:10242000c70ade00f107b200f50fb2000800320063
:10243000e1cf4200020032000170a000240005003c
:10244000810f7000010032000408050044000500ff
:10245000810f700002003a00140005008502e900b7
:102460000000400081c04800fcff3b000170a0005c
:10247000240005000200be006450e10005003600a3
:102480006420e100020036000968a30001003a0060
:102490000800be000160a0004f0678004f05be0096
:1024a0004f04be0000000600f0ff2f00f1ff2700e0
:1024b000f9ff37000004be00d9ff07000003be008b
:1024c0000405be000200be00d5ff0700844f750062
:1024d00000000600889fbe008a9fbe008c9fbe0041
:1024e0000004be00ceff07000800be008906780089
:1024f0006420e10008003900040032000160a000ff
:1025000012022000b24f88005300370091fc2300d4
:10251000b0fd20004e0037000006eb0009f0a100de
:1025200003f82300020020000800be001dff070082
:102530000600340001f82300000020000801be005e
:102540003fff07000004be002c0020000800be0072
:1025500093e82300320a230012ff07001200340020
:102560000801be00d1fd2300703d2b00b0fe070026
:102570000005be00b3f32300f27a26000800be0077
:1025800076fe070003f8230002002000a7fe0700e4
:102590000801be00a6fe07000a01be0028ff0700d2
:1025a0000004be000c06e8000800be0001f0a10017
:1025b0000200200003982300fafe07000800be0076
:1025c000160035000801be0064fe07000005be00cd
:1025d00032cd2c0043fb230095fe0700809fbe00f8
:1025e0001269280003d52b000a00be005bfe07001d
:1025f000620f210013ef2b008dfe07000a01be00c1
:1026000056fe07004f01be000dff07000801be0087
:1026100052fe07000801be0085fe07000c00e00026
:102620000b0032000c10a70001f0a200b2fd200048
:1026300093fc23006260e1000400320022a9200024
:1026400063f023000c10a70063f8230078fe070056
:102650000df0a70001f0a2004f06be004f05be001e
:102660004f04be0000000600889fbe008a9fbe0087
:10267000841f78008fff07004f007800110033009f
:10268000f0ff2f00838f6c0006003b0004056500ff
:102690000a00a7000800370009f0a600100020007b
:1026a00008003700820f5400838f5c00030039005c
:1026b0001000200001003e000000200009f0a700eb
:1026c0000000ea004f05be004f04be000000e0001d
:1026d00000000600020ab900001bb9000200b800a1
:1026e000810042008100430000000600881f78003e
:1026f000000478005001be004000be00000042000f
:1027000081804a0002014b0083814b00009cbe0087
:102710000294be000400e1000588e1000690e1009b
:102720000798e10002003100680044001008e8004a
:102730004f04780000000600f4874700889fbe0021
:102740008a9fbe008c9fbe008e1f78000205be00cf
:102750000004be00d4b79f00e5b79f00f6b79f0006
:1027600087bf9f000000eb00c0b79f00b0b79f007d
:10277000a0b79f0090b79f0080b79f000d04200076
:10278000bfb097004fb09700000140000000e0008c
:1027900014003d004f08de0000007100c0b79f002c
:1027a000ad00070001003d0012002000b00007004e
:1027b00001003d0012002000b500070001003d00af
:1027c00012002000ba000700be000700feff3a001a
:1027d000c2000700c80007000f004000c3ff070049
:1027e000270037004f08de0000067100ccb79f00bd
:1027f0009900070001003d00120020009c00070026
:1028000001003d0012002000a100070001003d0072
:1028100012002000a6000700aa000700feff3a00f1
:10282000ae0007000fb297009fb297002fb397003a
:10283000bfb39700b60007000000520081805a0025
:1028400002015b0083815b0080b79f0091b79f000e
:10285000a2b79f00b3b79f000007eb00ac000700d2
:102860000020e10001a8e10002b0e10003b8e100ae
:10287000010031001e0020000e005600c0b79f006e
:102880004fb297000400e000070035001000200060
:10289000010020006011b8000804700089847000f5
:1028a0000a0571008b8571008d06e900b4ff3a00be
:1028b0000400e00003003d008f0007000f0040000f
:1028c0008aff07004fa897000000e00004003a00cc
:1028d0000fb497009fb497002fb59700bfb597002e
:1028e000970007004f0778004f06be004f05be0057
:1028f0004f04be004f01b10000000600881f7800a1
:1029000018002000881f78008bff07008f87e900e0
:102910004f04780000000600801feb0086ff0700d0
:102920008f87e90000000600889fbe008a9fbe00d6
:102930008c1f78007b00070005003d002f0007007a
:1029400007003d003d0007000006eb0004003700d3
:102950003f00070002003d00300007001c0020007f
:1029600077000700e5ff07000203be000002be007b
:102970000c00e00001003200280007000400be0047
:102980000601be004f0678004f05be004f04be0092
:1029900000000600889fbe008a9fbe008c1f780042
:1029a0006000070003003d001400070006003d0022
:1029b000040037002600070003003d006000b80057
:1029c0006011b8001d0007005d000700d2ff07007e
:1029d0000203be000002be000c00e0000100320055
:1029e0000e0007000400be000601be004f0678007e
:1029f0004f05be004f04be00000006006000b80096
:102a00006011b80008045000898458000a05590074
:102a10008b8559001c002000030037006000b800bf
:102a20006011b80005003700e00f5200e08f5a0037
:102a3000e00f5b00e08f5b00000006000402500026
:102a4000858258000603590087835900000006005c
:102a50000006eb00f4ff37000180400090b79f00b4
:102a60000001eb008fb097000100e00000000600bd
:102a70000200700090b79f000180400080b79f0067
:102a80000001eb00ffa897000100e0000000060035
:102a90000200700080b79f0001804000f0af9f00ef
:102aa0000001eb00efa897000100e0000000060025
:102ab00002007000f0af9f0001824000200007007c
:102ac000f50305008301d1000281d3008180d3008a
:102ad0000080d3008502e9000000060000027200b9
:102ae000e4af9f000804440089844c000a054d00af
:102af0008b854d00000006003fb29700cfb29700d3
:102b00005fb39700efb3970000fe2f0000000600b0
:102b10003fb09700cfb097005fb19700efb197003b
:102b2000000006000205be000004be00e00f5000d9
:102b3000e08f5800e00f5900e08f590000000600b8
:102b40000800be000a01be0000000600889fbe000b
:102b50008a9fbe008c1f78000205be000004be00e4
:102b60000006eb00e00f5000e08f5800e00f590026
:102b7000e08f590007003d006000b8006011b80008
:102b800008045000898458000a0559008b855900b3
:102b90001c002000e00f5200e08f5a00e00f5b00a5
:102ba000e08f5b0002003d000f0007000c00a20058
:102bb0000800be000a01be00120007000203be00aa
:102bc0000002be000c00e000010032000600070019
:102bd0000400be000601be004f0678004f05be008f
:102be0004f04be00000006006000b8006011b8008d
:102bf000040250008582580006035900878359005b
:102c000000000600889fbe008a9fbe008c9fbe0009
:102c10000404b8000506b8008904460060854e002b
:102c20000606b8000a054600e0854e000706b80013
:102c30008b054600040eb800890446000a854e0044
:102c4000e0854d00050eb8000a0546008b854e0054
:102c5000060eb8008b0546000416b8000a054600ab
:102c60008b854e000516b8008b054600041eb80083
:102c70008b0546000800be000a01be004f06be00dc
:102c80004f05be004f04be00000006000000fa0021
:102c9000d04002000000000082320200000000006c
:102ca0000040eb0018230200000000000a3402007c
:102cb000000000006019020000000000222b02004a
:102cc00000000000007122000100200074360200a4
:102cd00000000000f9ff37000400fa00222b020078
:102ce0000000000040c7bf00614060000004e00039
:102cf000020032004007a9000000fe00d0400200a0
:102d0000000000000040eb0018230200000000005b
:102d1000ae18020000000000823202000000000035
:102d20000a340200000000006019020000000000e8
:102d30009636020000000000000f78001e007800a8
:102d4000100798001e009000e30f50002200320090
:102d50001e009000e30f50000a003c001e0090008f
:102d6000e10f5000160032001e009000e10f5000ed
:102d700016003c001e0090000000e0000e00320033
:102d8000260037001e009000e50f500018003200aa
:102d90001e009000e50f5000120035001e0090004c
:102da000e60f5000150032001e009000e70f5000a3
:102db0001600320019003700b4ff07001800370072
:102dc000485c020000000000150037003c3e020095
:102dd0000000000012003700703c020000000000fc
:102de0000f00370046400200000000000c003700d2
:102df0007061020000000000090037000000eb00d5
:102e0000f0650200000000000500370010002000ff
:102e1000f065020000000000010037009bff070082
:102e20000000eb000080fa000000060000a0fe0099
:102e300086a0a9001421ef000000000081a08000fe
:102e40004241210013002000321ce1000500320045
:102e50000800350000000000000000000000000035
:102e6000f9ff3700a01680004800de008058780087
:102e7000f5ff370081a08800f029ec00804f80002a
:102e8000f209e30003003a001000200090a088003f
:102e90001fe1a9000080fe0000400600811f7800ad
:102ea000801f7800f0ff2700c0128800003020004b
:102eb0000000b300d0128800de02a900000000006c
:102ec000e002a9009001090000000000e002a80053
:102ed00041e2a8004602ae00feff3700f0ff2700e7
:102ee000c0128800004020003001b300d0128800da
:102ef0004602ae00feff3700f0ff2700c012880038
:102f0000001020000030a0000040a000d012880077
:102f10004602ae00feff3700f0ff2700c012880017
:102f200000202000d01288004602ae00feff3700cd
:102f3000f0ff2700c0128800006020000010a000f1
:102f4000d01288004602ae00feff3700f0ff2700d7
:102f5000c012880000702000f005b300d012880075
:102f60004602ae00feff370001f020003012800064
:102f7000010060000000e000fcff3a003012800019
:102f8000010060000000e000fcff32003012800011
:102f9000010060000000e000fcff3a0030128000f9
:102fa000010060000000e000fcff32004662ae005d
:102fb00002003700801280009012800041e2a900d8
:102fc000f01e2000101288004362a8004342a800af
:102fd0008920a900a8c0a800a8a0a900a880a900cd
:102fe0009120a80041e2a8004f007800cf007800af
:102ff00000000600801f78004022ef004222ef0010
:103000004422ef004822ef004c22ef00c6e2a80065
:10301000e5a2a900e582a800e5e2a900e5c2a900b1
:103020004002a9004022a90040a2a9004122a90013
:1030300040c2a8004102a9004142a900f00e2000b0
:10304000101288004362a9004342a800300020000b
:10305000201288004c02a8004802a8008920a9007c
:103060009120a90041e2a9004f007800000006006d
:103070008920a900809fbe00829fbe008012800030
:1030800090128000a0128000b0128000d609e200e9
:1030900026003a00da09e200240032003400f80089
:1030a0004400f8004440a800e04e8000a0018800e1
:1030b000a14f8000a018020000000000110078005d
:1030c0000000a100c0128800a0180200000000004b
:1030d000110078000000a100d0128800a0180200a2
:1030e00000000000110078000000a100e01288003c
:1030f000a018020000000000110078000000a100ec
:10310000f0128800daa9ed00daa9ed00a14f8800dd
:10311000a1018000e14e88004400f9003400f9006c
:103120004f01be004f00be0000400600d829ef004e
:10313000d6a9ef004f01be004f00be0000400600c0
:10314000e280400004003900a1018000e1804000dd
:10315000a101880001002800000006000200fa001a
:10316000e202a8000000eb00000f78000100370029
:103170001e0fe800f07022009e0f1000fcff3400cc
:10318000fa170200000000004e17020000000000c5
:103190000080fa00000006000400fa00000f78002a
:1031a00011079800d8a9ef00d629ef009e009000e3
:1031b0001e007800ea180200000000000080fa00fb
:1031c000000006000000fa00e202a9000080fa00f8
:1031d00000000600811f7800821f78004100dd009a
:1031e000030037004f017800cf0078000000060090
:1031f000d14e88000001eb00c1812e00810040000b
:1032000003003900020028008280400012002000e4
:103210004400f8003400f8004440a80000002000fa
:1032200002004000a00188000000000052190200c6
:1032300000000000110078000000a100c01288000a
:103240005219020000000000110078000000a100e7
:10325000d01288005219020000000000110078000e
:103260000000a100e01288005219020000000000d6
:10327000110078000000a100f0128800daa9ed002a
:10328000daa9ed00a14f8800a1018000e14e88007d
:103290003400f900000000004400f9008920a90072
:1032a000d0ff3700e280400004003900a101800017
:1032b000e1804000a1018800010028000000060014
:1032c0000000fa000000eb008008880001112000d7
:1032d00091407800f0ccb30000c0600010e1b7006e
:1032e0000000eb0030088800205c200060088800a7
:1032f00084c0a9008cc0a80011e1a8000080fa00d9
:10330000000006000000fa0011e1a9000080fa00a8
:10331000000006000800fa00100798002107980036
:1033200050cb8000000f78000b0037001e007800a3
:10333000b00090001e009000808f500003003a0003
:103340001100200031079800210037001e0078008e
:10335000c0009000010f78001e00e000f3ff3a006b
:10336000a0002000c001020000000000000f780053
:103370001e00e00003003a0010002000620202007c
:1033800000000000ae0090001e00780001087800e8
:103390009e0078000000eb00900098009e007800ee
:1033a00010c0b300c04098001e0078009e0090003e
:1033b0003100980051cb80001e0078004100980039
:1033c0001e00780050cb88001100200031079800c3
:1033d0003e0090000080fa00000006000800fa009d
:1033e000200798000000eb001007980050cb8000e9
:1033f000000f78001b0037001e007800b00090001e
:103400002e009000808f500011003a001e009000a6
:103410000000e000050032001e007800c0009000af
:103420001e00900041009800030037001e00780045
:103430004000900050cb88001e00780086020200f9
:10344000000000001100200031079800090037003b
:103450001e007800100798001e007800c000900041
:10346000010f78001e00e000e3ff3a00200020007a
:10347000300798003e0090000080fa00000006002f
:103480000800fa00100798002107980050cb800030
:10349000000f78000e0037001e007800b00090008a
:1034a0001e009000808f500006003a00ae00900091
:1034b0001e007800010878001100200031079800f4
:1034c000070037001e007800c0009000010f780050
:1034d0001e00e000f0ff3a002000200030079800b6
:1034e0003e0090000080fa00000006000600fa008e
:1034f0001007980050cb8000000f78000e003700b6
:103500001e007800b00090001e009000808f5000d8
:1035100006003a009e0078000000eb009000980042
:103520001100200021079800070037001e007800d6
:10353000c0009000010f78001e00e000f0ff3a008c
:1035400020002000200798002e0090000080fa0044
:10355000000006000600fa001007980050cb80001b
:10356000000f78000e0037001e007800b0009000b9
:103570001e009000808f500006003a009e007800e8
:103580000040eb00c0409800110020002107980087
:10359000070037001e007800c0009000010f78007f
:1035a0001e00e000f0ff3a002000200020079800f5
:1035b0002e0090000080fa00000006000600fa00cd
:1035c0001007980050cb8000000f78000e003700e5
:1035d0001e007800b00090001e009000808f500008
:1035e00006003a009e00780010c0b300c04098006a
:1035f0001100200021079800070037001e00780006
:10360000c0009000010f78001e00e000f0ff3a00bb
:1036100020002000200798002e0090000080fa0073
:10362000000006003600f800809fbe00829fbe00aa
:10363000849fbe00869fbe003400f80000c0b30027
:10364000a00188000200fa0050cb8000000f780033
:1036500084c0a9001e0037001e0078004040900082
:10366000e14f500017003a001e007800100078006b
:103670000000e000130032001e00780010009000ef
:103680008000e8001e007800110098001e007800fd
:1036900010009000800078001e0078001000780074
:1036a0000000e900808f5000060036001e00780000
:1036b00030009000000001009e0078000000eb0048
:1036c000900098001e007800c0009000010f780064
:1036d0001e00e000e0ff3a000080fa003400f9002c
:1036e0004f03be004f02be004f01be004f00be00a0
:1036f0003600f900004006000000fa00dec2a80013
:103700008200a8008400a9008c00a8000080fa00b4
:10371000000006003600f800809fbe00829fbe00b9
:10372000849fbe00869fbe003400f80000c0b30036
:10373000a00188000000fa008c00a90051012000bf
:10374000c0bc21008a190200000000003195210050
:103750000040eb00804878003095210090407800d0
:1037600020952100014878002095210090407800a4
:1037700040952100014878000080fa003400f900eb
:103780004f03be004f02be004f01be004f00be00ff
:103790003600f900004006000200fa0000cb80006d
:1037a000e10f40001e003a00e0c2bf000044b2003a
:1037b0000004e000080032008c00a8008400a9008a
:1037c000c0bc2100ee190200000000000080eb00e8
:1037d00000cb88006d00370091002000c0bc2100a4
:1037e000401a020000000000319521000040eb006b
:1037f0008048780030952100904078002095210085
:1038000001487800209521009040780040952100e3
:10381000014878000000eb0000cb88005b00370017
:1038200000cb8000e10f500010003a00e0c2bf0062
:103830000080fb004600de006140600080407800b0
:10384000409521000148780021012000c0bc2100e2
:10385000401a0200000000001100200010002000ab
:10386000cc270200000000004800370000cb800099
:10387000e10f50001500340000cb8000e60f50002f
:1038800012003c00e0c2bf000080fb004600de00ea
:1038900061406000104798001e4090008080fb004f
:1038a00000cb8000660010000008dd001047980083
:1038b00020952100904078001e40900080c040007c
:1038c00020952100014878003000370000cb8000af
:1038d000e60f50001300340000cb8000ec0f5000c6
:1038e00010003c00e0c2bf000080fb004600de008c
:1038f00061406000004f78009e80fb0000cb80009c
:103900006c0010000008dd00004f780030952100a9
:10391000104078009e40400030952100014878001a
:103920001a00370000cb8000ed0f500017003a005e
:103930008000eb0010002000cc27020000000000f7
:103940008c00a8008400a900c0bc2100ee19020070
:10395000000000000080eb0000cb880040952100b3
:1039600090407800e09521000148780020952100e2
:103970009040780050952100014878003095210052
:1039800090407800609521000148780000cb8000cd
:10399000e10f40000300320000cb80000000e8008f
:1039a00000cb88000080fa00000006000000fa004a
:1039b000e0952100104078000080fb000080fa00b4
:1039c000000006000000fa00509521001040780029
:1039d0000080fb000080fa00000006000000fa00f2
:1039e00060952100104078000080fb000080fa0004
:1039f000000006000600fa00000f78001e007800a4
:103a0000200798002e009000e10f500013003200b4
:103a10002e009000e10f5000040039002e009000ad
:103a2000e20f500019003200240037009e00780099
:103a300022cb800043002100200320000088b90031
:103a40000200400000004000e0807900e0c68000f5
:103a500080805000110798001a0037009e007800ff
:103a600022cb800043002100200320000088b90001
:103a70000200400000004000e0807900f0c68000b5
:103a800080805000110798000e0037009e007800db
:103a900022cb800043002100200320000088b900d1
:103aa0000200400000004000e080790060cb800010
:103ab000808050001107980002003700a0292000e4
:103ac000100798001e0090000080fa000000060019
:103ad0000c00fa0040079800510798006000b800f9
:103ae00020079800310798004e009000e20f500028
:103af0002f003e005e0090000000e0002c0032002d
:103b0000de00900020032000808f500028003e003f
:103b10000000eb001007980021cb80005e009000b1
:103b2000008050003003b000220320001100090083
:103b30000280d8008000fd00000f780018003700d8
:103b4000ce0090001e0178004300210020032000d9
:103b50000088b90002004000000040006080790049
:103b60006101b9002e009000be00900000004100ed
:103b70008180490020079800310798001e009000be
:103b80000000e800100798001e00e8002203200053
:103b9000110009000200d8008000fd00000f78002d
:103ba0009e0090005e009000808f5000e4ff39007e
:103bb0005e0090006101b8002e009000be009000f1
:103bc000960e0200000000000080fa0000000600cf
:103bd0000000fa00510020000000eb00bcff0700cd
:103be00080007800e0c680000080500000c7880098
:103bf0005100200010002000b5ff07008000780071
:103c0000f0c680000080500010c7880051002000de
:103c100020002000aeff07008000780060cb80000d
:103c20000080500020c788000080fa0000000600d5
:103c30000000fa00889fbe008a9fbe00e4ff0700d4
:103c400000c780006103b90000c780006101b900ae
:103c50000235b80003b0b9000b0278000002420040
:103c60000790b900000242008405780010c7800068
:103c70006104b90010c780006101b9000243b800b7
:103c800003c0b90007027800000242000990b900a1
:103c900000024200840378000a0543008b854b0034
:103ca00020c780006104b90020c780006101b9000d
:103cb0000243b80003c0b9000702780000024200c6
:103cc0000990b90000024200840378000a00430012
:103cd0008b804b00b40e0200000000000a0f0200af
:103ce0000000000030c7880041c7880000c780007e
:103cf0006103b90000c780006101b9000235b80056
:103d000003b0b9000b027800000242000790b9002e
:103d1000000242008405780010c780006104b900e9
:103d200010c780006101b9000243b80003c0b900a8
:103d300007027800000242000990b9000002420028
:103d4000840378000a0043008b804b00b40e02000d
:103d5000000000000a0f0200000000000004be0086
:103d600020c78000cf80de00b40e020000000000fb
:103d70000801be00740f020000000000c209230009
:103d800053262c00ae0f02000000000002002000ad
:103d9000432b2400181002000000000070c78800a8
:103da00081c7880070c7800081c7800002002000a2
:103db000030a2400d2100200000000000000e0000e
:103dc00001003500040037006000b80050c78800cb
:103dd00061c788001600370010c78000cf80de0062
:103de000b40e0200000000000004be0000c7800006
:103df000cf80de00b40e0200000000000801be000b
:103e0000740f020000000000c209230053262400a2
:103e1000ae0f020000000000020020004333240027
:103e2000181002000000000050c7880061c7880019
:103e30004f05be004f04be000080fa0000000600df
:103e40000000fa00210320000000eb0020ff070023
:103e5000e0c6880021032000100020001cff07009e
:103e6000f0c68800210320002000200018ff070072
:103e700060cb88000080fa00000006000c00fa0009
:103e8000881f78000004780069ff070030c78000b1
:103e900041c78000008fbe0050c7800061c780000e
:103ea000200798003107980070c7800081c7800004
:103eb00040079800510798008e00780008007800ad
:103ec0001101be000288be0064004000e480400092
:103ed0001101be000288be0064004000e480400082
:103ee0001101be000288be00080078004f0478006f
:103ef0000080fa00000006000000fa004cff0700f6
:103f000070c7800081c780000080fa0000000600b2
:103f10000000fa0046ff070050c7800061c780001c
:103f20000080fa00000006000000fa0040ff0700d1
:103f300030c7800041c780000080fa000000060002
:103f40000600fa00881f78000004780020ff0700b0
:103f500000c78000000f780010c78000100798008d
:103f600020c78000200798001e00be00008cbe0005
:103f7000ae00900021049800080078004f047800fb
:103f80000080fa00000006000000fa0010ff0700a1
:103f900000c780000080fa00000006000000fa0060
:103fa0000bff070010c780000080fa000000060029
:103fb0000000fa0006ff070020c780000080fa001a
:103fc000000006001600fa006000b800008fbe0076
:103fd000cfff0700008fbe00d0c68000cf80de007c
:103fe000b40e0200000000001e01be001610020008
:103ff00000000000d610020000000000200f980012
:104000002e0890000000e00003003d00ae08900084
:104010008100ea00210f98002e0990006110b9007c
:10402000b40e02000000000002002000030a240079
:1040300018110200000000000000e00001003c0038
:1040400079013700c5e2a900c5c2bf000080fb00ae
:104050004700de006140600000404000004040003a
:10406000004040000040400000404000004140004f
:10407000512c200091407800f0cbb30000c06000cc
:1040800002407000c5e2b700c5c2bf000080fb005f
:104090004600de006140600061406000004040007a
:1040a000004040000040400000404000004140000f
:1040b000512c200091407800f0cdb30000c060008a
:1040c00002407000c5e2b700c5c2bf000080fb001f
:1040d0004500de006140600061406000004040003b
:1040e00000414000512c200091407800b0cfb30037
:1040f00000c0600002407000c5e2b700c5c2bf004a
:104100000080fb004200de00614060006140600012
:10411000004040000040400000404000004140009e
:10412000512c200091407800f0ceb30000c0600018
:1041300002407000c5e2b700c5c2bf000080fb00ae
:104140004400de00614060006140600000414000ca
:10415000512c200091407800d0cfb30000c0600007
:1041600002407000c5e2b700c5c2bf000080fb007e
:104170000000d1006140600000404000004040006d
:10418000004040000040400000404000004040002f
:1041900080404000c4c2bf000074a1000140700014
:1041a000c4e2b700c4c2bf000080fb004700de00cd
:1041b000614060000040400000404000004040007e
:1041c000004040000040400000414000412c2000e1
:1041d00091407800f0cbb30000c060000240700056
:1041e000c4e2b7000040eb002057980002002c000a
:1041f000833a24001e00be001811020000000000d7
:104200000000e00001003c000200370011c0b300d4
:10421000215798000041eb0012579800020020003f
:10422000431b24001e00be00d2100200000000004c
:104230000000e000010034000200370010c0b300ad
:1042400010579800ae5090001e51900002c07000b0
:104250000004a2000004e00012003a000040eb005d
:104260000057980002002800634224001e00be0090
:104270001c110200000000000000e00001003a00f4
:104280000200370011c0b300015798000e50900093
:104290000004a2000004e00002003a00c4c2a8002a
:1042a000dd0037000041eb00724f98000200200053
:1042b000431b24001e00be00181102000000000075
:1042c0000000e00001003c000200370010c0b30015
:1042d000704f98007e4890000004a2000004e000a7
:1042e00012003a008040eb00614f9800020020006d
:1042f000732824001e00be00d2100200000000003f
:104300000000e000010034000200370012c0b300da
:10431000624f98006e4890000004a2000004e00084
:1043200002003a00c5e2a800bb0037000040eb00e5
:10433000504f980002002000732824001e00be0089
:1043400018110200000000000000e00001003c0025
:104350000200370011c0b300514f98005e48900032
:104360000004a2000004e00012003a000041eb004b
:10437000424f980002002000132e24001e00be00b1
:10438000d2100200000000000000e0000100340034
:104390000200370010c0b300404f98004e48900014
:1043a0000004a2000004e00002003a00c5c2a80018
:1043b000990037008040eb00314f98000200200048
:1043c000132e24001e00be00181102000000000081
:1043d0000000e00001003c000200370012c0b30002
:1043e000324f98003e4890000004a2000004e00014
:1043f00012003a000040eb00204f98000200280015
:10440000d33124001e00be00d210020000000000c4
:104410000000e000010034000200370011c0b300ca
:10442000214f98002e4890000004a2000004e000f4
:1044300002003a00c5a2a800770037000041eb0057
:10444000124f980002002800d33124001e00be0045
:1044500018110200000000000000e00001003c0014
:104460000200370010c0b300104f98001e489000a3
:104470000004a2000004e00012003a008040eb00bb
:10448000014f980002002800a33424001e00be0043
:10449000d2100200000000000000e0000100340023
:1044a0000200370012c0b300024f98000e4890007f
:1044b0000004a2000004e00002003a00c542a80087
:1044c000550037000040eb007047980002002800bc
:1044d000a33424001e00be001811020000000000da
:1044e0000000e00001003c000200370011c0b300f2
:1044f000714798007e4090000004a2000004e00094
:1045000012003a000041eb006247980002002800c8
:10451000733724001e00be00d2100200000000000d
:104520000000e000010034000200370010c0b300ba
:10453000604798006e4090000004a2000004e00074
:1045400002003a00c582a800330037008040eb002b
:104550005147980002002800733724001e00be0057
:1045600018110200000000000000e00001003c0003
:104570000200370012c0b300524798005e4090001e
:104580000004a2000004e00012003a000040eb002a
:104590004047980002002400233924001e00be007a
:1045a000d2100200000000000000e0000100340012
:1045b0000200370011c0b300414798004e40900000
:1045c0000004a2000004e00002003a00c522a80096
:1045d0001100370002002400233924001e00be0011
:1045e00018110200000000000000e00001003c0083
:1045f0000900370002002c00833a24001e00be0090
:10460000d2100200000000000000e00001003400b1
:1046100001003700c4e2a8001e00be00d610020050
:1046200000000000d0c688000080fa0000000600ec
:104630000200fa00004f780010c0b3009e4f100037
:1046400004003a0001a0200010c0b30080487800a8
:104650000300370001a020000040eb0080487800f4
:104660000000eb00001588000000eb00101588002a
:104670000000eb00201588000000eb0030158800da
:10468000a802a800a822a800a842a900a862a90020
:10469000a882a900a8a2a900a8c2a900a8e2a9000e
:1046a000a902a900a922a900a942a900a962a900fa
:1046b000a982a900a9a2a900a9c2a900a9e2a900ea
:1046c000aa02a900aa22a900aa42a800aa62a800d8
:1046d000aa82a800aaa2a900aac2a900aae2a900c7
:1046e000ab02a900ab22a900ab42a900ab62a900b2
:1046f000ab82a900aba2a900abc2a900abe2a900a2
:10470000112a200091407800c0cfb30000c06000a3
:10471000a1e2b700a042a800012a20009140780041
:1047200000ceb30000c07000a0e2b700212a200034
:104730009140780030ccb30000c060000034a0008d
:10474000a2e2b700a342a800512a200091407800bd
:1047500000ceb30000c060000004a000a5e2b700d6
:1047600000a02000104078000004e00007003200a4
:10477000412a20009140780000ccb30000c06000c6
:104780003041b300a4e2b70007003700412a2000ff
:104790009140780000ccb30000c0600071c2b3004b
:1047a00001407000a4e2b7008560a9008d60a800f8
:1047b000a1e2a80000a02000104078000004e00062
:1047c00005003a000000000021cb8000000320001b
:1047d000808f5000fbff36000080fa0000000600ca
:1047e000809fbe00829fbe003400f80000c0b3006e
:1047f000a00188000c00fa00e19f20000040eb00bf
:1048000080487800f19f20000040eb00804878004d
:104810008560a90000a02000104078000004e0009e
:104820002d00320000282000000f780012cb8000fd
:104830001e007800100078008001780041a0200060
:104840000200410001004000030878001e8fe800cc
:1048500012cb80001e0078001000780080017800e4
:1048600041a0200002004100010040000020b000f3
:10487000030878001e8fe80012cb80001e0078002d
:10488000100078008001780041a020000200410063
:1048900081004000004020000080400003087800b4
:1048a0001e8fe80010cb80000000e80010cb8800cd
:1048b00011cb8000f00f2000808f50009a0136004d
:1048c0000000eb0010cb8800f19f200010c0b30067
:1048d0008048780094013700c001200050158800fe
:1048e000212a20009140780030ccb30000c0600045
:1048f0000034a000a2e2b700412a200091407800d5
:1049000000ccb30000c0600071c2b3000140700071
:10491000a4e2b70020a0200090407800d0c3b300ec
:1049200080cf50000f003a00c00f200050158800c3
:10493000212a20009140780030ccb30000c06000f4
:104940004041b300a2e2b700412a20009140780024
:1049500000ccb30000c060003041b300a4e2b70057
:104960006200370020a0200090407800e0c3b30030
:1049700080cf50002d003a00212a2000914078007d
:1049800030ccb30000c060000044a000a2e2b70039
:10499000412a20009140780000ccb30000c06000a4
:1049a0007041b300a4e2b70010a0200010407800ce
:1049b0000080fb00500798005e009000e10f50005f
:1049c00011003200de009000e18f500004003c0036
:1049d0005e0090000000e000080032004300370055
:1049e000de009000e28f50000a0032005e0090006e
:1049f000e30f50000a0032003c003700c0112100d4
:104a00005015880039003700c02122005015880059
:104a100036003700c04124005015880033003700ad
:104a2000c0812800501588003000370020a02000e9
:104a300010407800e24f50002c003a00212a20005c
:104a40009140780030ccb30000c060000044a0006a
:104a5000a2e2b700412a20009140780000ccb300c8
:104a600000c060007041b300a4e2b70010a02000b5
:104a7000104078000080fb0040079800ce009000b6
:104a8000e18f5000110032004e009000e10f500005
:104a900004003c00ce0090000100e000080032005d
:104aa000120037004e009000e20f50000a00320062
:104ab000ce009000e38f50000a0032000b00370058
:104ac000c01121005015880008003700c0212200c5
:104ad0005015880005003700c0412400501588009b
:104ae00002003700c08128005015880000282000ef
:104af000000f780012cb80001e00780010007800b4
:104b00008001780041a02000020041000100400027
:104b1000030878001e8fe80012cb80001e0078008a
:104b2000100078008001780041a0200002004100c0
:104b3000010040000020b000030878001e8fe8004c
:104b400012cb80001e0078001000780080017800f1
:104b500041a02000020041008100400000402000f0
:104b600000804000030878001e8fe80010cb800012
:104b70000000e80010cb880011cb8000f00f20006f
:104b8000808f5000020036000000eb0010cb880040
:104b900020a0200090407800e0c3b30080cf5000f8
:104ba00026003a0020cb80000000e80020cb8800df
:104bb00021cb800010032000808f500002003600bf
:104bc0000000eb0020cb880022cb80001e00780084
:104bd00010007800800178004100210002004100af
:104be00001004000030878001e8fe80022cb8000ff
:104bf0001e0078001000780080017800410021003c
:104c000002004100010040004006b00003087800a7
:104c10001e8fe80022cb80001e0078001000780074
:104c200080017800410021000200410001004000a5
:104c3000800cb00003087800a600370020a02000f8
:104c400090407800f0c3b30080cf500049003a0094
:104c500010a02000104078000080fb003007980072
:104c60003e009000e10f50001b003200be0090009b
:104c7000e18f500004003c003e0090000000e00086
:104c80000800320093003700be009000e28f500011
:104c90001e0032003e009000e30f5000280032005a
:104ca0008c0037001e00780010007800800078002b
:104cb00000132100010878001e8fe8001e00780014
:104cc0001000780080007800001321004100980057
:104cd000e2e2a8007f0037001e0078001000780094
:104ce0008000780000132100110098001e8fe8005a
:104cf0001e0078001000780080007800001321006a
:104d000051009800e302a800720037001e007800ee
:104d10001000780080007800001321002100980026
:104d20001e8fe8001e0078001000780080007800d8
:104d30000013210061009800e802a8006500370018
:104d40001e00780010007800800078000013210019
:104d5000310098001e8fe8001e00780010007800d7
:104d6000800078000013210071009800e822a8005c
:104d70005800370020a0200010407800e34f50007a
:104d800054003a0010a02000104078000080fb0082
:104d900020079800ae009000e18f50001e00320006
:104da0002e009000e10f500004003c00ae00900087
:104db0000100e00008003200460037002e0090009d
:104dc000e20f500024003200ae009000e38f50004c
:104dd000310032003f0037001e00780010007800dc
:104de0008000780000142100010878001e8fe80080
:104df0001e00780010007800800078000014210068
:104e000041009800e2e2a90011a0200010c0b30008
:104e1000804878002f0037001e00780010007800ce
:104e20008000780000142100110098001e8fe80017
:104e30001e00780010007800800078000014210027
:104e400051009800e302a90011a0200020c0b30087
:104e5000804878001f0037001e007800100078009e
:104e60008000780000142100210098001e8fe800c7
:104e70001e007800100078008000780000142100e7
:104e800061009800e802a90011a0200030c0b30022
:104e9000804878000f0037001e007800100078006e
:104ea0008000780000142100310098001e8fe80077
:104eb0001e007800100078008000780000142100a7
:104ec00071009800e822a90011a020000040eb002a
:104ed0008048780020a020001040780030479800db
:104ee0000040eb0020479800f0c3b300be409000a4
:104ef00080cf50000200360010c0b3002047980059
:104f00003e4090008040e80020a02000014878004a
:104f1000ae4090000104e0000300320021a0200018
:104f20000040eb0080487800e19f200010c0b300f3
:104f3000804878000080fa003400f9004f01be007c
:104f40004f00be00004006000000fa00e09f200075
:104f5000104078000080fb000080fa00000006008e
:104f60000000fa00f09f2000104078000080fb0055
:104f70000080fa00000006000000fa00a1e2a8008c
:104f80000080fa00000006000000fa00a1e2a9007b
:104f90000080fa00000006000600fa00000f78000a
:104fa000110798001e007800200798002e0090003e
:104fb000e30f50007d0032002e009000e30f500000
:104fc00007003e002e009000e10f50003800320034
:104fd0002e009000e10f500057003e000d003700fa
:104fe0002e009000e50f5000b20032002e0090001d
:104ff000e50f5000900039002e009000e60f5000a1
:10500000d10032002e009000e70f5000f500320072
:10501000160137001e009000e10f5000140036000a
:10502000c4c2bf000080fb004600de00614060009b
:105030000004a20061406000614060000040400048
:105040000040400000404000004040000040400060
:1050500000414000412c200091407800f0cbb3008b
:1050600000c0600002407000c4e2b7007301370066
:105070001e00900061406000614060000040400000
:105080000040400000404000004040000040400020
:1050900000414000412c200091407800f0cbb3004b
:1050a00000c0600002407000c4e2b7006301370036
:1050b0001e009000e10f500011003600c4c2bf0076
:1050c0000080fb004700de000004a2006140600099
:1050d00000404000004040000040400000404000d0
:1050e000004040000040400080404000c4c2bf007b
:1050f0000074a10001407000c4e2b7004f01370006
:105100001e009000614060000040400000404000f0
:10511000004040000040400000404000004040008f
:1051200080404000c4c2bf000074a1000140700074
:10513000c4e2b700410137001e009000e10f5000ab
:105140000f003600c5c2bf000080fb000000d10088
:10515000614060000004a2006140600061406000a6
:1051600000414000512c200091407800d0cfb30086
:1051700000c0600002407000c5e2b7002f01370098
:105180001e009000614060006140600000414000ee
:10519000512c200091407800d0cfb30000c06000b7
:1051a00002407000c5e2b700240137001e009000e5
:1051b000e10f500012003600c5c2bf000080fb00a6
:1051c0004400de00614060000004a2006140600015
:1051d000614060000040400000404000004040004e
:1051e00000414000512c200091407800f0ceb300e7
:1051f00000c0600002407000c5e2b7000f01370038
:105200001e0090006140600061406000004040006e
:10521000004040000040400000414000512c200070
:1052200091407800f0ceb30000c0600002407000f2
:10523000c5e2b700010137001e009000e10f5000e9
:1052400010003600c5c2bf000080fb004200de0037
:10525000614060000004a2006140600061406000a5
:105260000040400000414000512c20009140780057
:10527000b0cfb30000c0600002407000c5e2b700cc
:10528000ee0037001e009000614060006140600049
:105290000040400000414000512c20009140780027
:1052a000b0cfb30000c0600002407000c5e2b7009c
:1052b000e20037001e009000e10f5000130036009e
:1052c000c5c2bf000080fb004500de0061406000f9
:1052d0000004a200614060006140600000404000a6
:1052e00000404000004040000040400000414000bd
:1052f000512c200091407800f0cdb30000c0600038
:1053000002407000c5e2b700cc0037001e009000dc
:10531000614060006140600000404000004040008b
:10532000004040000040400000414000512c20005f
:1053300091407800f0cdb30000c0600002407000e2
:10534000c5e2b700bd0037001e009000e10f50001d
:1053500014003600c5c2bf000080fb004600de001e
:10536000614060000004a200614060006140600094
:10537000004040000040400000404000004040002d
:105380000040400000414000512c20009140780036
:10539000f0cbb30000c0600002407000c5e2b7006f
:1053a000a60037001e009000614060006140600070
:1053b00000404000004040000040400000404000ed
:1053c0000040400000414000512c200091407800f6
:1053d000f0cbb30000c0600002407000c5e2b7002f
:1053e000960037001e009000e10f500011003600bb
:1053f000c5c2bf000080fb004700de000004a20021
:10540000614060000040400000404000004040001b
:10541000004040000040400000404000804040000c
:10542000c5c2bf000074a10001407000c5e2b70012
:10543000820037001e009000614060000040400084
:10544000004040000040400000404000004040005c
:105450000040400080404000c5c2bf000074a10071
:1054600001407000c5e2b700740037001e009000d4
:1054700061406000004040000040400000404000ab
:10548000004040000040400000404000804040009c
:10549000c5c2bf000074a10001407000c5e2b700a2
:1054a000c5c2bf000080fb004700de006140600015
:1054b00000404000004040000040400000404000ec
:1054c0000040400000414000512c200091407800f5
:1054d000f0cbb30000c0600002407000c5e2b7002e
:1054e000c5c2bf000080fb004600de0061406000d6
:1054f000614060000040400000404000004040002b
:105500000040400000414000512c200091407800b4
:10551000f0cdb30000c0600002407000c5e2b700eb
:10552000c5c2bf000080fb004500de006140600096
:10553000614060000040400000414000512c2000cc
:1055400091407800b0cfb30000c06000024070000e
:10555000c5e2b700c5c2bf000080fb004200de000c
:105560006140600061406000004040000040400039
:105570000040400000414000512c20009140780044
:10558000f0ceb30000c0600002407000c5e2b7007a
:10559000c5c2bf000080fb004400de006140600027
:1055a0006140600000414000512c20009140780093
:1055b000d0cfb30000c0600002407000c5e2b70069
:1055c000c5c2bf000080fb000000d1006140600048
:1055d00000404000004040000040400000404000cb
:1055e000004040000040400080404000c4c2bf0076
:1055f0000074a10001407000c4e2b700c4c2bf0043
:105600000080fb004700de00614060000040400079
:10561000004040000040400000404000004040008a
:1056200000414000412c200091407800f0cbb300b5
:1056300000c0600002407000c4e2b7000080fa00c1
:10564000000006000000fa00c4c2a900c4e2a900dc
:10565000c522a900c582a900c542a900c5a2a9000a
:10566000c5c2a900c5e2a9000080fa00000006003a
:105670000200fa00000f7800100020009e0f1000ba
:1056800010003600d0c2bf000080fb004200de00e8
:10569000614060000004a200614060006140600061
:1056a0000040400000414000012d20009140780062
:1056b000b0cfb30000c0600002407000d0e2b7007d
:1056c0000b0037001e007800614060006140600000
:1056d0000040400000414000012d20009140780032
:1056e000b0cfb30000c0600002407000d0e2b7004d
:1056f0000080fa00000006000200fa00000f7800a7
:10570000100020009e0f10000f003600d0c2bf0016
:105710000080fb000000d100614060000004a20096
:10572000614060006140600000414000012d2000a8
:1057300091407800d0cfb30000c0600002407000fc
:10574000d0e2b7000a0037001e0078006140600018
:105750006140600000414000012d20009140780030
:10576000d0cfb30000c0600002407000d0e2b700ac
:105770000080fa00000006000000fa00c4c2bf006a
:105780000080fb004600de006140600000c0ea00cf
:105790006140600061406000004040000040400007
:1057a00000404000004040000040400000414000f8
:1057b000412c200091407800f0cbb30000c0600085
:1057c00002407000c4e2b700c4c2bf000080fb000a
:1057d0004700de0000c0ea00614060000040400079
:1057e00000404000004040000040400000404000b9
:1057f0000040400080404000c4c2bf000074a100cf
:1058000001407000c4e2b700c5c2bf000080fb00c9
:105810000000d1006140600000c0ea00614060000b
:105820006140600000414000512c20009140780010
:10583000d0cfb30000c0600002407000c5e2b700e6
:10584000c5c2bf000080fb004400de006140600074
:1058500000c0ea006140600061406000004040001c
:10586000004040000040400000414000512c20001a
:1058700091407800f0ceb30000c06000024070009c
:10588000c5e2b700c5c2bf000080fb004200de00d9
:105890006140600000c0ea0061406000614060005b
:1058a0000040400000414000512c20009140780011
:1058b000b0cfb30000c0600002407000c5e2b70086
:1058c000c5c2bf000080fb004500de0061406000f3
:1058d00000c0ea006140600061406000004040009c
:1058e00000404000004040000040400000414000b7
:1058f000512c200091407800f0cdb30000c0600032
:1059000002407000c5e2b700c5c2bf000080fb00c6
:105910004600de006140600000c0ea0061406000b7
:1059200061406000004040000040400000404000f6
:10593000004040000040400000414000512c200049
:1059400091407800f0cbb30000c0600002407000ce
:10595000c5e2b700c5c2bf000080fb004700de0003
:1059600000c0ea006140600000404000004040008c
:105970000040400000404000004040000040400027
:1059800080404000c5c2bf000074a100014070000b
:10599000c5e2b7000080fa00000006000000fa002f
:1059a000c4c2bf000080fb004600de006140600012
:1059b00000c0ea00614060006140600000404000bb
:1059c00000404000004040000040400000404000d7
:1059d00000414000412c200091407800f0cbb30002
:1059e00000c0600002407000c4e2b7000080fa000e
:1059f000000006000000fa00c4c2bf000080fb00e7
:105a00004700de0000c0ea00614060000040400046
:105a10000040400000404000004040000040400086
:105a20000040400080404000c4c2bf000074a1009c
:105a300001407000c4e2b7000080fa0000000600d8
:105a40000000fa00c5c2bf000080fb000000d100ca
:105a50006140600000c0ea00614060006140600099
:105a600000414000512c200091407800d0cfb3007d
:105a700000c0600002407000c5e2b7000080fa007c
:105a8000000006000000fa00c5c2bf000080fb0055
:105a90004400de006140600000c0ea006140600038
:105aa0006140600000404000004040000040400075
:105ab00000414000512c200091407800f0ceb3000e
:105ac00000c0600002407000c5e2b7000080fa002c
:105ad000000006000000fa00c5c2bf000080fb0005
:105ae0004200de006140600000c0ea0061406000ea
:105af000614060000040400000414000512c200007
:105b000091407800b0cfb30000c060000240700048
:105b1000c5e2b7000080fa00000006000000fa00ad
:105b2000c5c2bf000080fb004500de006140600090
:105b300000c0ea0061406000614060000040400039
:105b40000040400000404000004040000041400054
:105b5000512c200091407800f0cdb30000c06000cf
:105b600002407000c5e2b7000080fa0000000600a5
:105b70000000fa00c5c2bf000080fb004600de0046
:105b80006140600000c0ea00614060006140600068
:105b90000040400000404000004040000040400005
:105ba0000040400000414000512c2000914078000e
:105bb000f0cbb30000c0600002407000c5e2b70047
:105bc0000080fa00000006000000fa00c5c2bf0015
:105bd0000080fb004700de0000c0ea00614060007a
:105be00000404000004040000040400000404000b5
:105bf000004040000040400080404000c5c2bf005f
:105c00000074a10001407000c5e2b7000080fa00f6
:105c1000000006000200fa00000f78009e007800e5
:105c2000c0bb22008a190200000000000080fa00b8
:105c3000000006000000fa00c0bb2200ee190200be
:105c4000000000000080fa00000006000200fa00d8
:105c5000000f78001e00e000040035009e00780070
:105c6000c0bb2200401a0200000000000080fa00c1
:105c7000000006000000fa00809521001040780026
:105c80000004e0000e003a008000eb0070002000ed
:105c9000c1fc070080952100104078000080fb00c7
:105ca00011002000bcfc0700809521001040780006
:105cb0008040e800809521000148780023003700eb
:105cc0008095210010407800e74f50000f003a0007
