:020000040000fa
:080000001c01040000000000d7
:020000040000fa
:10020000680d040000000000581d040000000000fc
:100210004e2204000000000036230400000000000d
:10022000e62c040000000000de21040000000000b5
:100230006e210400000000000f452100807922009b
:100240000001880000000000050007000c00070006
:100250002a080200000000000040da000000fe0052
:100260004440a900000020000000e000030032002c
:1002700000002000a00188004440a8000000060003
:10028000001f2e0001002000160037006200400011
:10029000e0804800910188009001ba0062004000af
:1002a000e0804800910188009002ba00620040009e
:1002b000e08048000002eb006028e10005003a0001
:1002c0008301e90007003300038009000059eb00b7
:1002d000040037006128e100010032000082eb00d9
:1002e00005000700910188001001ba000200e0003b
:1002f000e6ff3a00000005009101880080027800c6
:1003000062004000e08048003559ba008301e900ee
:10031000080032002559ba008301e90005003200c7
:100320000400e000f4ff320015d9ba008301e900af
:10033000f1ff3a0000000600889fbe00e304400081
:100340000900a100808f540049003600e38f54005b
:1003500001003e0049002000704280000000e000e3
:1003600002003200800078000c0037000185200078
:1003700003003700908f5400230036008080e8008f
:10038000110078001100e000faff3a000f0037007a
:10039000928f54001c0036008280e8001101780022
:1003a0001100e000faff3a001001780001852000fa
:1003b00003003700908f5400130036008080e8005f
:1003c00011007800820f5000faff3a006842800066
:1003d000890f5400010031000904780008007800fa
:1003e0006b0007000000e00004003a00890f540091
:1003f0001f0032000804d100f5ff3700081878000c
:1004000030000700d4ff3700110178009201780016
:1004100064805100890f50000300310012009000e9
:100420008008780007003700090041008008780044
:1004300092019000130098001100780012881400b7
:1004400009097800910178001100e00004003200f1
:10045000130090008380e8000000e00001003a00f3
:100460008000eb00714288000280e8000100370044
:100470000000eb004f04be000000060000047800fe
:100480000600370082004100a0428000e1007800b1
:100490000200e800904288000100010092428000c2
:1004a000b0428000800f5100f6ff3900008020002c
:1004b000a042880020022000b04288000800780096
:1004c0003a0007000000e000300032008080e900c0
:1004d00091027800e38f52002c0036000508a3003b
:1004e0002a003a00824280000200e000020032004e
:1004f000828f500004003100020878008142880099
:100500001600370003017800920190000300e0001c
:1005100002003200818f5100faff39001202780088
:1005200004004100808f500018003900810f5000f6
:1005300003003a00050942008200780007003700f6
:100540000300e0000300320005804000808f51006e
:100550000e003900930098001101980011019000dd
:100560000200e0000900320011804000820f5000bc
:1005700006003a004e28ef001100900011017800ab
:1005800090084100100090009000980000000600c4
:100590000000e000030034000c000700e10f400001
:1005a00001003a000000eb00000006000c02e2002f
:1005b00004003d000f42ab00020032000f02ab000e
:1005c000feff32000040da00feff3700889fbe00c9
:1005d00080047800004380000000e00003003a003f
:1005e000100007000000e0000a0035000043800012
:1005f0000900e00002003a0000047800060037001d
:100600000004780009004000060007000000e00038
:1006100001003d000084eb00080078004f04be009c
:1006200000000600800078000000e00004003a00ae
:10063000003d2100004388000101780006003700da
:100640000081eb0000452100808f500002003e0039
:10065000014388000001eb00020078000000060062
:10066000839f68000100e00002003d006000100070
:10067000e08018000300e00002003d00600111006e
:10068000e08119007d0107004f00e00002003b00ff
:1006900060001000e080180000000600889fbe0087
:1006a0008a9fbe00010578000100e00004003500cb
:1006b00008003c000000e000200032000500370088
:1006c00060001000e080180002003b0001f02c00e8
:1006d0001a0037000004be006011b8006b0920004a
:1006e0000982cf00020039000882cf000441b00027
:1006f000694252000e00320008003b008281710006
:10070000610164008904d1000884d3008b05e800ee
:100710000442e800f9ff3a000500370008044400ed
:1007200089844c008b05e9000442e900fbff3a0094
:10073000620107000af0a70001f0a0004f05be000b
:100740004f04be0000000600889fbe008a9fbe00c6
:100750008c1f78000004be007e0107000478a3000f
:1007600026003a006120e1002500320009f8a300cc
:1007700025003a006420e10021003200f507b100b5
:100780000508a300020032000000400081804800fc
:100790006044b80003102000020020000000400068
:1007a000818048000805440089854c000a05410005
:1007b0008b8549000a0550008b85580003003300e3
:1007c0000a00be0002047400838474008301d10017
:1007d0000281d300830f7100f0ff3a008904d10039
:1007e0000884d3006001490082017800c1adde00b9
:1007f000fb07b00031010700740137000960a00059
:100800000800be007101370012022000f242880089
:10081000f0ff2f00f1ff27006c013700889fbe001a
:100820008a9fbe008c1f78006f0107001002200015
:1008300002003b00f04288005b0137008a00620042
:100840006408e10002003a00f042880063013700ca
:100850006108e100fcff32000800be0003047800dc
:10086000c400070001f0a1006701070008f0a6001e
:10087000040037000001be0091042400b0fd2000f8
:100880003700070009f0a70001f0a2004f01370070
:10089000889fbe008a9fbe008c1f7800520107000f
:1008a0004101330003866c006450e10024003200f3
:1008b0006420e100270032006150e1002200320094
:1008c0006120e100210032008b854200eb07b1007e
:1008d0000134b800003ab8000804420089844a0094
:1008e000013ab8000030b8008880400009014a0091
:1008f00004003300000040008180480002014900ec
:100900008b05e900c909dd00830170000100320098
:1009100013002000c814de004814dd004709de0083
:100920001200b200c808de0008847000e30007006f
:1009300001f0a1000cf0a70001f0a0002301370096
:100940006120e100250132000801be000200be0066
:10095000f7ff37006150e100fcff3a001f0137004c
:1009600003f0a200889fbe008a9fbe008c1f780003
:100970001d0107000c0133006450e1004f003200fc
:100980006420e1005200320003826c0007003b004b
:100990000905d0000306d000820f54000c065d004c
:1009a0000200390002003200890178000306780055
:1009b0008582550004003d000003fd008103fd0019
:1009c0008502ea008b854200840f720002003b0022
:1009d00060001000e08018006011b8000005eb0016
:1009e0007a28e1000a00390006007800c75ddd00c2
:1009f000f707b200878075002d00370082817100f3
:100a00000a017800610560008180d1000080d30078
:100a10008502e900f9ff3b00060440008784480096
:100a200002003b0060041400e0841c000988a3005d
:100a3000070032008a8171008281710061016400c7
:100a40008904d1000884d3008b05e8001700370023
:100a50000978a30013003a000b00e00013003400f3
:100a60008b05e9000804440089844c000a447400a2
:100a70000978a3000d003a000b00e00007003400e5
:100a80008b05e9000804440089844c0001003a0009
:100a90000b0020000978a300f7ff32000001eb00f3
:100aa00002003700828171000a017800830007008c
:100ab0000cf0a70001f0a000c40037006420e100a2
:100ac00002003a00838f6c00c40033000801be00ae
:100ad0000200be00bd003700140020002f013700c7
:100ae0000001be009b0007000470a70003f0a100f6
:100af0006509b100160032000d0035006828e100dc
:100b000006003500f0ff2f00f1ff27000300e00092
:100b100013003b0001002800000005000000400019
:100b2000818048008502e900fcff3a000800370098
:100b3000f88f420002003c008000eb00000005003e
:100b40008100d1000080d3008502e800fcff3a005c
:100b50000300e00002003b0060001000e08018008d
:100b600000000600f4ff2f000c01370004002000f5
:100b70000a013700889fbe008a9fbe008c1f780044
:100b8000990007008800330003866c006450e10080
:100b90002e0032006420e100330032006150e10099
:100ba0002f0032006120e1003100320085855500c0
:100bb000eb07b00009002000080420000500370002
:100bc0000804440089844c000a00310006034300f5
:100bd00087834b000001530081815b00f8ff3300e5
:100be0000203be000800a0000804440089844c00f1
:100bf000f6ff3900c639dd008301730001003200c1
:100c0000130020008904d1000884d3000998a300b0
:100c1000050032000800a7000300a0008904d100ed
:100c20000884d3008b05e8008904d1000884d30030
:100c30000001eb000281d2002000070001f0a100ba
:100c40000cf0a70001f0a000600037006420e10074
:100c5000620032000801be000200be00f7ff37004c
:100c60006120e1005d0032006000b800f3ff370052
:100c70000000200001f82700f0ff37006022b800d4
:100c8000060220000000d0008180d2000482d20041
:100c90008582d2000000a0000202520083825a0026
:100ca00003003b000202420083824a000000a100d0
:100cb0000603e900f3ff3a0000000600810020006f
:100cc000618055000b003d000b00200061fe2f00ed
:100cd0000100e1001d0034008281710061016400a7
:100ce0008904d1000884d3000000e800faff3a002c
:100cf00071002000610064000300700002006000c9
:100d00000900320061044400e0844c000988a50019
:100d1000050032008b05e8006808e10002003a0097
:100d20008904d1000884d300f20f20000258e100aa
:100d300005003d00c75ddd00f907b2008980750040
:100d400008007800000006000bf827008b007800f0
:100d500000000500c70ade00f107b200f50fb2007f
:100d600008003200e1cf4200020032000170a00012
:100d700024000500810f7000010032000408050006
:100d800044000500810f700002003a0014000500c5
:100d90008502e9000000400081c04800fcff3b00e4
:100da0000170a000240005000200be006450e100b4
:100db000050036006420e100020036000968a30047
:100dc00001003a000800be000160a0004f06780054
:100dd0004f05be004f04be0000000600f0ff2f00cc
:100de000f1ff2700f9ff37000004be00d9ff07001c
:100df0000003be000405be000200be00d5ff0700d0
:100e0000844f750000000600889fbe008a9fbe00c8
:100e10008c9fbe000004be00ceff07000800be008d
:100e2000890678006420e1000800390004003200df
:100e30000160a00012022000f24288005300370037
:100e400091fc2300b0fd20004e0037000006eb00af
:100e500009f0a10003f82300020020000800be00f2
:100e60001dff07000600340001f8230000002000e9
:100e70000801be003fff07000004be002c00200058
:100e80000800be0093e82300320a230012ff070087
:100e9000120034000801be00d1fd2300703d2b007c
:100ea000b0fe07000005be00b3f32300f27a26006f
:100eb0000800be0076fe070003f8230002002000b1
:100ec000a7fe07000801be00a6fe07000a01be003b
:100ed00028ff07000004be000c06e8000800be0062
:100ee00001f0a1000200200003982300fafe070091
:100ef0000800be00160035000801be0064fe0700b1
:100f00000005be0032cd2c0043fb230095fe0700f8
:100f1000809fbe001269280003d52b000a00be0086
:100f20005bfe0700620f210013ef2b008dfe070010
:100f30000a01be0056fe07004f01be000dff07006c
:100f40000801be0052fe07000801be0085fe070032
:100f50000c00e0000b0032000c10a70001f0a20012
:100f6000b2fd200093fc23006260e1000400320027
:100f700022a9200063f023000c10a70063f82300cf
:100f800078fe07000df0a70001f0a2004f06be009a
:100f90004f05be004f04be0000000600889fbe0043
:100fa0008a9fbe00841f78008fff07004f007800e3
:100fb00011003300f0ff2f00838f6c0006003b0010
:100fc000040565000a00a7000800370009f0a60024
:100fd0001000200008003700820f5400838f5c004f
:100fe000030039001000200001003e000000200036
:100ff00009f0a7000000ea004f05be004f04be0044
:101000000000e000000006000000fa009e30020030
:10101000000000001e240200000000000040eb0061
:10102000b414020000000000a62502000000000029
:10103000fc0a020000000000be1c020000000000cc
:1010400000712200010020001028020000000000b2
:10105000f9ff37000400fa00be1c02000000000087
:1010600040c7bf00614060000004e00002003200a1
:101070004007a9000000fe009e30020000000000b2
:101080000040eb00b4140200000000004a0a020015
:10109000000000001e24020000000000a62502003f
:1010a00000000000fc0a02000000000032280200dc
:1010b00000000000000f78001e0078001007980064
:1010c0001e009000e20f5000190032001e00900038
:1010d000e20f500007003c001e0090000000e000fe
:1010e0000e0032001e009000e10f50000d00320093
:1010f000190037001e009000e40f5000120032006b
:101100001e009000e40f50000c0035001e009000ff
:10111000e50f50000f0032000f003700baff070044
:101120000d003700cc4b0200000000000a00370021
:10113000e62e02000000000007003700602d0200cc
:1011400000000000040037002e3002000000000004
:1011500001003700acff07000000eb000080fa0040
:101160000000060000a0fe0086a0a9001421ef00e8
:1011700000000000b17d8000a2fb200013002000d1
:10118000321ce100050032000800350000000000bc
:101190000000000000000000f9ff3700a0168000ea
:1011a0004800de0080587800f5ff3700b17d8800e8
:1011b0005828ec00c04280005a08e30003003a00bf
:1011c00010002000c07d88001fe1a9000080fe0003
:1011d00000400600811f7800801f7800f0ff270084
:1011e000c0128800003020000000b300d012880038
:1011f000de02a90000000000e002a9009001090041
:1012000000000000e002a80041e2a8004602ae0093
:10121000feff3700f0ff2700c012880000402000ca
:101220003001b300d01288004602ae00feff370046
:10123000f0ff2700c0128800001020000030a0003e
:101240000040a000d01288004602ae00feff37002a
:10125000f0ff2700c012880000202000d012880074
:101260004602ae00feff3700f0ff2700c0128800e4
:10127000006020000010a000d01288004602ae00de
:10128000feff3700f0ff2700c0128800007020002a
:10129000f005b300d01288004602ae00feff370012
:1012a00001f0200030128000010060000000e0002a
:1012b000fcff3a0030128000010060000000e000f6
:1012c000fcff320030128000010060000000e000ee
:1012d000fcff3a0030128000010060000000e000d6
:1012e000fcff32004662ae00020037008012800030
:1012f0009012800041e2a900f01e20001012880028
:101300004362a8004342a8008920a900a8c0a80001
:10131000a8a0a900a880a9009120a80041e2a800e7
:101320004f007800cf00780000000600801f780092
:101330004022ef004222ef004422ef004822ef005b
:101340004c22ef00c6e2a800e5a2a900e582a800b1
:10135000e5e2a900e5c2a9004002a9004022a900d7
:1013600040a2a9004122a90040c2a8004102a90050
:101370004142a900f00e2000101288004362a9002b
:101380004342a80030002000201288004c02a80030
:101390004802a8008920a9009120a90041e2a900e3
:1013a0004f007800000006008920a900809fbe0041
:1013b000829fbe008012800090128000a0128000e8
:1013c000b01280004408e20026003a004808e2001b
:1013d000240032003400f8004400f8004440a80023
:1013e00050428000a0018800e14280003c0a0200d7
:1013f00000000000110078000000a100c012880069
:101400003c0a020000000000110078000000a1006a
:10141000d01288003c0a0200000000001100780091
:101420000000a100e01288003c0a02000000000059
:10143000110078000000a100f012880048a8ed001b
:1014400048a8ed00e1428800a101800051428800d7
:101450004400f9003400f9004f01be004f00be0007
:10146000004006004628ef0044a8ef004f01be00f0
:101470004f00be0000400600e2804000040039003a
:10148000a1018000e1804000a10188000100280046
:10149000000006000200fa00e202a8000000eb00d3
:1014a000000f7800010037001e0fe800f0702200e6
:1014b0009e0f1000fcff340096090200000000009f
:1014c000ea080200000000000080fa0000000600a8
:1014d0000400fa00000f78001107980046a8ef00fa
:1014e0004428ef009e0090001e007800860a02004b
:1014f000000000000080fa00000006000000fa0072
:10150000e202a9000080fa0000000600811f7800b6
:10151000821f78004100dd00030037004f01780092
:10152000cf00780000000600414288000001eb0077
:1015300081d22c0081004000030039000200280005
:1015400082804000120020004400f8003400f800bf
:101550004440a8000000200002004000a0018800d4
:1015600000000000ee0a02000000000011007800f8
:101570000000a100c0128800ee0a02000000000076
:10158000110078000000a100d0128800ee0a0200cd
:1015900000000000110078000000a100e0128800a7
:1015a000ee0a020000000000110078000000a10017
:1015b000f012880048a8ed0048a8ed00e14288003c
:1015c000a1018000514288003400f90000000000b1
:1015d0004400f9008920a900d0ff3700e2804000d4
:1015e00004003900a1018000e1804000a1018800d1
:1015f00001002800000006000000fa000000eb00d7
:10160000800888000111200091407800f0ccb300e0
:1016100000c0600010e1b7000000eb003008880057
:10162000205c20006008880084c0a9008cc0a8004d
:1016300011e1a8000080fa00000006000000fa0096
:1016400011e1a9000080fa00000006000800fa007d
:101650001007980021079800209e8000000f780056
:101660000b0037001e007800b00090001e009000b4
:10167000808f500003003a001100200031079800cd
:10168000210037001e007800c0009000010f780094
:101690001e00e000f3ff3a00a00020009c010200c1
:1016a00000000000000f78001e00e00003003a0078
:1016b000100020003e02020000000000ae0090007a
:1016c0001e007800010878009e0078000000eb0002
:1016d000900098009e00780010c0b300c0409800b1
:1016e0001e0078009e00900031009800219e80002e
:1016f0001e007800410098001e007800209e88009f
:1017000011002000310798003e0090000080fa0090
:10171000000006000800fa00200798000000eb0017
:1017200010079800209e8000000f78001b003700f3
:101730001e007800b00090002e009000808f5000b6
:1017400011003a001e0090000000e0000500320089
:101750001e007800c00090001e009000410098001c
:10176000030037001e00780040009000209e880093
:101770001e0078006202020000000000110020003c
:1017800031079800090037001e0078001007980004
:101790001e007800c0009000010f78001e00e000dd
:1017a000e3ff3a0020002000300798003e00900040
:1017b0000080fa00000006000800fa0010079800f8
:1017c00021079800209e8000000f78000e0037004f
:1017d0001e007800b00090001e009000808f500026
:1017e00006003a00ae0090001e0078000108780064
:1017f0001100200031079800070037001e00780014
:10180000c0009000010f78001e00e000f0ff3a00d9
:1018100020002000300798003e0090000080fa0071
:10182000000006000600fa0010079800209e8000c5
:10183000000f78000e0037001e007800b000900006
:101840001e009000808f500006003a009e00780035
:101850000000eb0090009800110020002107980084
:10186000070037001e007800c0009000010f7800cc
:101870001e00e000f0ff3a00200020002007980042
:101880002e0090000080fa00000006000600fa001a
:1018900010079800209e8000000f78000e0037008f
:1018a0001e007800b00090001e009000808f500055
:1018b00006003a009e0078000040eb00c04098000f
:1018c0001100200021079800070037001e00780053
:1018d000c0009000010f78001e00e000f0ff3a0009
:1018e00020002000200798002e0090000080fa00c1
:1018f000000006000600fa0010079800209e8000f5
:10190000000f78000e0037001e007800b000900035
:101910001e009000808f500006003a009e00780064
:1019200010c0b300c04098001100200021079800ab
:10193000070037001e007800c0009000010f7800fb
:101940001e00e000f0ff3a00200020002007980071
:101950002e0090000080fa00000006003600f8001b
:10196000809fbe00829fbe00849fbe00869fbe00f7
:101970003400f80000c0b300a00188000200fa00a3
:10198000209e8000000f780084c0a9001e00370050
:101990001e00780040409000e14f500017003a00d0
:1019a0001e007800100078000000e00013003200f4
:1019b0001e007800100090008000e8001e007800f3
:1019c000110098001e007800100090008000780040
:1019d0001e007800100078000000e900808f5000a1
:1019e000060036001e007800300090000000010064
:1019f0009e0078000000eb00900098001e00780028
:101a0000c0009000010f78001e00e000e0ff3a00e7
:101a10000080fa003400f9004f03be004f02be0000
:101a20004f01be004f00be003600f9000040060026
:101a30000000fa00dec2a8008200a8008400a9000d
:101a40008c00a8000080fa00000006003600f800b4
:101a5000809fbe00829fbe00849fbe00869fbe0006
:101a60003400f80000c0b300a00188000000fa00b4
:101a70008c00a9005101200080d62000260b020016
:101a800000000000113b21000040eb00804878007e
:101a9000103b210090407800003b21000148780075
:101aa000003b210090407800203b21000148780055
:101ab0000080fa003400f9004f03be004f02be0060
:101ac0004f01be004f00be003600f9000040060086
:101ad0000200fa00f09d8000e10f40001e003a0075
:101ae000e0c2bf000044b2000004e0000800320081
:101af0008c00a8008400a90080d620008a0b020078
:101b0000000000000080eb00f09d88006d003700b1
:101b10009100200080d62000dc0b020000000000b5
:101b2000113b21000040eb0080487800103b210071
:101b300090407800003b210001487800003b2100e4
:101b400090407800203b2100014878000000eb0025
:101b5000f09d88005b003700f09d8000e10f500091
:101b600010003a00e0c2bf000080fb004600de002b
:101b70006140600080407800203b210001487800ef
:101b80002101200080d62000dc0b020000000000b4
:101b90001100200010002000681902000000000061
:101ba00048003700f09d8000e10f50001500340020
:101bb000f09d8000e60f500012003c00e0c2bf0024
:101bc0000080fb004600de00614060001047980086
:101bd0001e4090008080fb00f09d80006600100099
:101be0000008dd0010479800003b2100904078007d
:101bf0001e40900080c04000003b2100014878005a
:101c000030003700f09d8000e60f500013003400d4
:101c1000f09d8000ec0f500010003c00e0c2bf00bf
:101c20000080fb004600de0061406000004f78004d
:101c30009e80fb00f09d80006c0010000008dd001d
:101c4000004f7800103b2100104078009e4040007b
:101c5000103b2100014878001a003700f09d8000f9
:101c6000ed0f500017003a008000eb00100020003c
:101c700068190200000000008c00a8008400a90080
:101c800080d620008a0b0200000000000080eb00dc
:101c9000f09d8800203b210090407800c03b21004f
:101ca00001487800003b210090407800303b210043
:101cb00001487800103b210090407800403b210013
:101cc00001487800f09d8000e10f400003003200e1
:101cd000f09d80000000e800f09d88000080fa0080
:101ce000000006000000fa00c03b21001040780010
:101cf0000080fb000080fa00000006000000fa00ef
:101d0000303b2100104078000080fb000080fa008a
:101d1000000006000000fa00403b2100104078005f
:101d20000080fb000080fa00000006000600fa00b8
:101d3000000f78001e007800200798002e00900009
:101d4000e10f5000130032002e009000e10f500010
:101d5000040039002e009000e20f500019003200fc
:101d6000240037009e007800129e800083e6200049
:101d7000200320000088b90002004000000040005d
:101d8000e0807900109a8000808050001107980050
:101d90001a0037009e007800129e800083e6200023
:101da000200320000088b90002004000000040002d
:101db000e0807900209a8000808050001107980010
:101dc0000e0037009e007800129e800083e62000ff
:101dd000200320000088b9000200400000004000fd
:101de000e0807900309e80008080500011079800cc
:101df00002003700a0292000100798001e00900064
:101e00000080fa00000006000c00fa00400798006d
:101e1000510798006000b80020079800310798002b
:101e20004e009000e20f50002f003e005e00900038
:101e30000000e0002c003200de00900020032000b3
:101e4000808f500028003e000000eb001007980033
:101e5000119e80005e009000008050003003b000b2
:101e600022032000110009000280d8008000fd003c
:101e7000000f780018003700ce0090001e01780097
:101e800083e62000200320000088b9000200400003
:101e900000004000608079006101b9002e009000d0
:101ea000be0090000000410081804900200798009a
:101eb000310798001e0090000000e800100798000d
:101ec0001e00e80022032000110009000200d800d3
:101ed0008000fd00000f78009e0090005e009000e2
:101ee000808f5000e4ff39005e0090006101b8006f
:101ef0002e009000be0090003003020000000000a1
:101f00000080fa00000006000000fa0051002000e6
:101f10000000eb00bcff070080007800109a8000f2
:101f200000805000309a88005100200010002000ee
:101f3000b5ff070080007800209a800000805000e4
:101f4000409a88005100200020002000aeff0700ca
:101f500080007800309e800000805000509a8800f9
:101f60000080fa00000006000000fa00889fbe0012
:101f70008a9fbe00e4ff0700309a80006103b90029
:101f8000309a80006101b9000235b80003b0b90091
:101f90000b027800000242000790b90000024200e4
:101fa00084057800409a80006104b900409a80005e
:101fb0006101b9000243b80003c0b900070278000c
:101fc000000242000990b900000242008403780038
:101fd0000a0543008b854b00509a80006104b900cc
:101fe000509a80006101b9000243b80003c0b900f3
:101ff00007027800000242000990b9000002420086
:10200000840378000a0043008b804b004e030200db
:1020100000000000a403020000000000609a880095
:10202000719a8800309a80006103b900309a80006c
:102030006101b9000235b80003b0b9000b027800a5
:10204000000242000790b9000002420084057800b7
:10205000409a80006104b900409a80006101b90093
:102060000243b80003c0b900070278000002420032
:102070000990b90000024200840378000a0043007e
:102080008b804b004e03020000000000a4030200fe
:10209000000000000004be00509a8000cf80de00e7
:1020a0004e030200000000000801be000e04020002
:1020b00000000000c209230053262c00480402003f
:1020c0000000000002002000432b2400b2040200a4
:1020d00000000000a09a8800b19a8800a09a8000b1
:1020e000b19a800002002000030a24006c0502005f
:1020f000000000000000e00001003500040037008f
:102100006000b800809a8800919a88001600370015
:10211000409a8000cf80de004e03020000000000e5
:102120000004be00309a8000cf80de004e03020023
:10213000000000000801be000e04020000000000c4
:10214000c2092300532624004804020000000000b6
:102150000200200043332400b2040200000000000b
:10216000809a8800919a88004f05be004f04be00f7
:102170000080fa00000006000000fa0021032000a1
:102180000000eb0020ff0700109a880021032000c8
:10219000100020001cff0700209a88002103200067
:1021a0002000200018ff0700309e88000080fa0001
:1021b000000006000c00fa00881f78000004780078
:1021c00069ff0700609a8000719a8000008fbe004e
:1021d000809a8000919a800020079800310798002b
:1021e000a09a8000b19a800040079800510798009b
:1021f0008e007800080078001101be000288be0041
:1022000064004000e48040001101be000288be006e
:1022100064004000e48040001101be000288be005e
:10222000080078004f0478000080fa0000000600e3
:102230000000fa004cff0700a09a8000b19a8000cd
:102240000080fa00000006000000fa0046ff0700c8
:10225000809a8000919a80000080fa0000000600b9
:102260000000fa0040ff0700609a8000719a800029
:102270000080fa00000006000600fa00881f7800bf
:102280000004780020ff0700309a8000000f7800db
:10229000409a800010079800509a8000200798000c
:1022a0001e00be00008cbe00ae009000210498000d
:1022b000080078004f0478000080fa000000060053
:1022c0000000fa0010ff0700309a80000080fa003a
:1022d000000006000000fa000bff0700409a800093
:1022e0000080fa00000006000000fa0006ff070068
:1022f000509a80000080fa00000006001600fa00e4
:102300006000b800008fbe00cfff0700008fbe0046
:10231000009a8000cf80de004e0302000000000023
:102320001e01be00b00402000000000070050200a3
:1023300000000000200f98002e0890000000e00030
:1023400003003d00ae0890008100ea00210f9800d4
:102350002e0990006110b9004e0302000000000039
:1023600002002000030a2400b20502000000000061
:102370000000e00001003c0079013700c5e2a9003f
:10238000c5c2bf000080fb004700de006140600066
:10239000004040000040400000404000004040003d
:1023a0000040400000414000512c20009140780046
:1023b000f0cbb30000c0600002407000c5e2b7007f
:1023c000c5c2bf000080fb004600de006140600027
:1023d000614060000040400000404000004040007c
:1023e0000040400000414000512c20009140780006
:1023f000f0cdb30000c0600002407000c5e2b7003d
:10240000c5c2bf000080fb004500de0061406000e7
:10241000614060000040400000414000512c20001d
:1024200091407800b0cfb30000c06000024070005f
:10243000c5e2b700c5c2bf000080fb004200de005d
:10244000614060006140600000404000004040008a
:102450000040400000414000512c20009140780095
:10246000f0ceb30000c0600002407000c5e2b700cb
:10247000c5c2bf000080fb004400de006140600078
:102480006140600000414000512c200091407800e4
:10249000d0cfb30000c0600002407000c5e2b700ba
:1024a000c5c2bf000080fb000000d1006140600099
:1024b000004040000040400000404000004040001c
:1024c000004040000040400080404000c4c2bf00c7
:1024d0000074a10001407000c4e2b700c4c2bf0094
:1024e0000080fb004700de006140600000404000cb
:1024f00000404000004040000040400000404000dc
:1025000000414000412c200091407800f0cbb30006
:1025100000c0600002407000c4e2b7000040eb0061
:102520002057980002002c00833a24001e00be00b1
:10253000b2050200000000000000e00001003c00c5
:102540000200370011c0b300215798000041eb0092
:102550001257980002002000431b24001e00be00fa
:102560006c050200000000000000e00001003400e3
:102570000200370010c0b30010579800ae50900012
:102580001e51900002c070000004a2000004e00090
:1025900012003a000040eb000057980002002800ab
:1025a000634224001e00be00b605020000000000c9
:1025b0000000e00001003a000200370011c0b30043
:1025c000015798000e5090000004a2000004e000a3
:1025d00002003a00c4c2a800dd0037000041eb0051
:1025e000724f980002002000431b24001e00be0012
:1025f000b2050200000000000000e00001003c0005
:102600000200370010c0b300704f98007e48900061
:102610000004a2000004e00012003a008040eb0039
:10262000614f980002002000732824001e00be00a5
:102630006c050200000000000000e0000100340012
:102640000200370012c0b300624f98006e4890003d
:102650000004a2000004e00002003a00c5e2a80065
:10266000bb0037000040eb00504f980002002000f4
:10267000732824001e00be00b20502000000000006
:102680000000e00001003c000200370011c0b30070
:10269000514f98005e4890000004a2000004e00042
:1026a00012003a000041eb00424f98000200200067
:1026b000132e24001e00be006c0502000000000066
:1026c0000000e000010034000200370010c0b30039
:1026d000404f98004e4890000004a2000004e00023
:1026e00002003a00c5c2a800990037008040eb0004
:1026f000314f980002002000132e24001e00be005f
:10270000b2050200000000000000e00001003c00f3
:102710000200370012c0b300324f98003e489000cc
:102720000004a2000004e00012003a000040eb00a8
:10273000204f980002002800d33124001e00be0064
:102740006c050200000000000000e0000100340001
:102750000200370011c0b300214f98002e489000ae
:102760000004a2000004e00002003a00c5a2a80094
:10277000770037000041eb00124f9800020028005c
:10278000d33124001e00be00b2050200000000008c
:102790000000e00001003c000200370010c0b30060
:1027a000104f98001e4890000004a2000004e000b2
:1027b00012003a008040eb00014f98000200280010
:1027c000a33424001e00be006c05020000000000bf
:1027d0000000e000010034000200370012c0b30026
:1027e000024f98000e4890000004a2000004e00090
:1027f00002003a00c542a800550037000040eb0037
:102800007047980002002800a33424001e00be0078
:10281000b2050200000000000000e00001003c00e2
:102820000200370011c0b300714798007e4090004d
:102830000004a2000004e00012003a000041eb0096
:102840006247980002002800733724001e00be0073
:102850006c050200000000000000e00001003400f0
:102860000200370010c0b300604798006e4090002f
:102870000004a2000004e00002003a00c582a800a3
:10288000330037008040eb005147980002002800d9
:10289000733724001e00be00b205020000000000d5
:1028a0000000e00001003c000200370012c0b3004d
:1028b000524798005e4090000004a2000004e0002f
:1028c00012003a000040eb0040479800020024004c
:1028d000233924001e00be006c0502000000000029
:1028e0000000e000010034000200370011c0b30016
:1028f000414798004e4090000004a2000004e00010
:1029000002003a00c522a80011003700020024008e
:10291000233924001e00be00b205020000000000a2
:102920000000e00001003c000900370002002c001c
:10293000833a24001e00be006c0502000000000067
:102940000000e0000100340001003700c4e2a800ec
:102950001e00be007005020000000000009a880002
:102960000080fa00000006000200fa00004f780024
:1029700010c0b3009e4f100004003a0041862000b2
:1029800010c0b30080487800030037004186200063
:102990000040eb00804878000000eb000015880044
:1029a0000000eb00101588000000eb0020158800e7
:1029b0000000eb0030158800a802a800a822a8009b
:1029c000a842a900a862a900a882a900a8a2a900fb
:1029d000a8c2a900a8e2a900a902a900a922a900e9
:1029e000a942a900a962a900a982a900a9a2a900d7
:1029f000a9c2a900a9e2a900aa02a900aa22a900c5
:102a0000aa42a800aa62a800aa82a800aaa2a900b5
:102a1000aac2a900aae2a900ab02a900ab22a900a0
:102a2000ab42a900ab62a900ab82a900aba2a9008e
:102a3000abc2a900abe2a900112a200091407800a6
:102a4000c0cfb30000c06000a1e2b700a042a80060
:102a5000012a20009140780000ceb30000c0700031
:102a6000a0e2b700212a20009140780030ccb300ca
:102a700000c060000034a000a2e2b700a342a8009a
:102a8000512a20009140780000ceb30000c06000c1
:102a90000004a000a5e2b7004086200010407800a6
:102aa0000004e00007003200412a20009140780035
:102ab00000ccb30000c060003041b300a4e2b70016
:102ac00007003700412a20009140780000ccb30075
:102ad00000c0600071c2b30001407000a4e2b70002
:102ae0008560a9008d60a800a1e2a80040862000b2
:102af000104078000004e00005003a0000000000eb
:102b0000119e800000032000808f5000fbff3600e4
:102b10000080fa0000000600809fbe00829fbe0079
:102b20003400f80000c0b300a00188000c00fa00d7
:102b3000218620000040eb0080487800318620008c
:102b40000040eb00804878008560a90040862000a6
:102b5000104078000004e0002d0032000028200022
:102b6000000f7800029e80001e00780010007800a0
:102b700080017800818620000200410001004000b1
:102b8000030878001e8fe800029e80001e00780077
:102b9000100078008001780081862000020041004a
:102ba000010040000020b000030878001e8fe800fc
:102bb000029e80001e0078001000780080017800de
:102bc000818620000200410081004000004020007a
:102bd00000804000030878001e8fe800009e8000ff
:102be0000000e800009e8800019e8000f00f200099
:102bf000808f50009a0136000000eb00009e880094
:102c00003186200010c0b30080487800940137005e
:102c1000c001200050158800212a20009140780032
:102c200030ccb30000c060000034a000a2e2b700c6
:102c3000412a20009140780000ccb30000c0600021
:102c400071c2b30001407000a4e2b70060862000aa
:102c500090407800d0c3b30080cf50000f003a00fe
:102c6000c00f200050158800212a200091407800d4
:102c700030ccb30000c060004041b300a2e2b70016
:102c8000412a20009140780000ccb30000c06000d1
:102c90003041b300a4e2b700620037006086200034
:102ca00090407800e0c3b30080cf50002d003a0080
:102cb000212a20009140780030ccb30000c0600091
:102cc0000044a000a2e2b700412a20009140780011
:102cd00000ccb30000c060007041b300a4e2b700b4
:102ce00050862000104078000080fb0050079800bc
:102cf0005e009000e10f500011003200de009000f5
:102d0000e18f500004003c005e0090000000e000f5
:102d10000800320043003700de009000e28f5000d0
:102d20000a0032005e009000e30f50000a003200fb
:102d30003c003700c01121005015880039003700d1
:102d4000c02122005015880036003700c041240001
:102d50005015880033003700c081280050158800c6
:102d6000300037006086200010407800e24f5000ad
:102d70002c003a00212a20009140780030ccb3008a
:102d800000c060000044a000a2e2b700412a200079
:102d90009140780000ccb30000c060007041b300e7
:102da000a4e2b70050862000104078000080fb00ad
:102db00040079800ce009000e18f500011003200d3
:102dc0004e009000e10f500004003c00ce00900047
:102dd0000100e00008003200120037004e009000b1
:102de000e20f50000a003200ce009000e38f500046
:102df0000a0032000b003700c01121005015880076
:102e000008003700c0212200501588000500370057
:102e1000c04124005015880002003700c0812800fe
:102e20005015880000282000000f7800029e8000c6
:102e30001e00780010007800800178008186200054
:102e40000200410001004000030878001e8fe800e6
:102e5000029e80001e00780010007800800178003b
:102e60008186200002004100010040000020b000e7
:102e7000030878001e8fe800029e80001e00780084
:102e80001000780080017800818620000200410057
:102e900081004000004020000080400003087800ce
:102ea0001e8fe800009e80000000e800009e880061
:102eb000019e8000f00f2000808f5000020036003d
:102ec0000000eb00009e88006086200090407800a3
:102ed000e0c3b30080cf500026003a00109e80006f
:102ee0000000e800109e8800119e80001003200062
:102ef000808f5000020036000000eb00109e88001a
:102f0000129e80001e00780010007800800178007a
:102f100081e6200002004100010040000308780023
:102f20001e8fe800129e80001e00780010007800be
:102f30008001780081e6200002004100010040008d
:102f40004006b000030878001e8fe800129e800043
:102f50001e007800100078008001780081e62000d3
:102f60000200410001004000800cb000030878001e
:102f7000a60037006086200090407800f0c3b300c0
:102f800080cf500049003a00508620001040780061
:102f90000080fb00300798003e009000e10f5000d9
:102fa0001b003200be009000e18f500004003c0086
:102fb0003e0090000000e00008003200930037005f
:102fc000be009000e28f50001e0032003e009000d4
:102fd000e30f5000280032008c0037001e007800fc
:102fe000100078008000780040f920000108780087
:102ff0001e8fe8001e007800100078008000780026
:1030000040f9200041009800e2e2a8007f0037006c
:103010001e007800100078008000780040f9200041
:10302000110098001e8fe8001e0078001000780044
:103030008000780040f9200051009800e302a800c9
:10304000720037001e0078001000780080007800c1
:1030500040f92000210098001e8fe8001e00780033
:10306000100078008000780040f92000610098008e
:10307000e802a800650037001e0078001000780004
:103080008000780040f92000310098001e8fe80091
:103090001e007800100078008000780040f92000c1
:1030a00071009800e822a8005800370060862000d0
:1030b00010407800e34f500054003a005086200042
:1030c000104078000080fb0020079800ae009000c0
:1030d000e18f50001e0032002e009000e10f5000e2
:1030e00004003c00ae0090000100e0000800320047
:1030f000460037002e009000e20f500024003200fe
:10310000ae009000e38f5000310032003f003700e6
:103110001e007800100078008000780040fa20003f
:10312000010878001e8fe8001e007800100078006b
:103130008000780040fa200041009800e2e2a900f7
:103140005186200010c0b300804878002f0037005f
:103150001e007800100078008000780040fa2000ff
:10316000110098001e8fe8001e0078001000780003
:103170008000780040fa200051009800e302a90086
:103180005186200020c0b300804878001f0037001f
:103190001e007800100078008000780040fa2000bf
:1031a000210098001e8fe8001e00780010007800b3
:1031b0008000780040fa200061009800e802a90031
:1031c0005186200030c0b300804878000f003700df
:1031d0001e007800100078008000780040fa20007f
:1031e000310098001e8fe8001e0078001000780063
:1031f0008000780040fa200071009800e822a900c1
:10320000518620000040eb00804878006086200056
:1032100010407800304798000040eb0020479800ad
:10322000f0c3b300be40900080cf500002003600d3
:1032300010c0b300204798003e4090008040e80056
:103240006086200001487800ae4090000104e00054
:1032500003003200618620000040eb0080487800c7
:103260002186200010c0b300804878000080fa005a
:103270003400f9004f01be004f00be0000400600c0
:103280000000fa0020862000104078000080fb003b
:103290000080fa00000006000000fa0030862000de
:1032a000104078000080fb000080fa00000006005b
:1032b0000000fa00a1e2a8000080fa000000060069
:1032c0000000fa00a1e2a9000080fa000000060058
:1032d0000600fa00000f7800110798001e00780021
:1032e000200798002e009000e30f50007d00320070
:1032f0002e009000e30f500007003e002e009000cb
:10330000e10f5000380032002e009000e10f500015
:1033100057003e000d0037002e009000e50f5000d2
:10332000b20032002e009000e50f500090003900ee
:103330002e009000e60f5000d10032002e009000c9
:10334000e70f5000f5003200160137001e00900014
:10335000e10f500014003600c4c2bf000080fb0023
:103360004600de00614060000004a2006140600091
:1033700061406000004040000040400000404000cc
:10338000004040000040400000414000412c20002f
:1033900091407800f0cbb30000c0600002407000a4
:1033a000c4e2b700730137001e0090006140600066
:1033b000614060000040400000404000004040008c
:1033c000004040000040400000414000412c2000ef
:1033d00091407800f0cbb30000c060000240700064
:1033e000c4e2b700630137001e009000e10f5000f7
:1033f00011003600c4c2bf000080fb004700de00a1
:103400000004a20061406000004040000040400015
:1034100000404000004040000040400000404000ac
:1034200080404000c4c2bf000074a1000140700091
:10343000c4e2b7004f0137001e00900061406000f9
:10344000004040000040400000404000004040007c
:10345000004040000040400080404000c4c2bf0027
:103460000074a10001407000c4e2b70041013700c0
:103470001e009000e10f50000f003600c5c2bf00d3
:103480000080fb000000d100614060000004a20049
:10349000614060006140600000414000512c20000c
:1034a00091407800d0cfb30000c0600002407000af
:1034b000c5e2b7002f0137001e0090006140600098
:1034c0006140600000414000512c20009140780094
:1034d000d0cfb30000c0600002407000c5e2b7006a
:1034e000240137001e009000e10f5000120036004a
:1034f000c5c2bf000080fb004400de0061406000e8
:103500000004a20061406000614060000040400093
:10351000004040000040400000414000512c20008d
:1035200091407800f0ceb30000c06000024070000f
:10353000c5e2b7000f0137001e0090006140600037
:1035400061406000004040000040400000404000fa
:1035500000414000512c200091407800f0ceb30093
:1035600000c0600002407000c5e2b70001013700f2
:103570001e009000e10f500010003600c5c2bf00d1
:103580000080fb004200de00614060000004a200f9
:103590006140600061406000004040000041400028
:1035a000512c200091407800b0cfb30000c06000e3
:1035b00002407000c5e2b700ee0037001e00900028
:1035c00061406000614060000040400000414000f8
:1035d000512c200091407800b0cfb30000c06000b3
:1035e00002407000c5e2b700e20037001e00900004
:1035f000e10f500013003600c5c2bf000080fb0081
:103600004500de00614060000004a20061406000ef
:103610006140600000404000004040000040400029
:103620000040400000414000512c200091407800b3
:10363000f0cdb30000c0600002407000c5e2b700ea
:10364000cc0037001e0090006140600061406000c7
:10365000004040000040400000404000004040006a
:1036600000414000512c200091407800f0cdb30083
:1036700000c0600002407000c5e2b700bd00370026
:103680001e009000e10f500014003600c5c2bf00bc
:103690000080fb004600de00614060000004a200e4
:1036a0006140600061406000004040000040400018
:1036b0000040400000404000004040000041400009
:1036c000512c200091407800f0cbb30000c0600086
:1036d00002407000c5e2b700a60037001e0090004f
:1036e00061406000614060000040400000404000d8
:1036f00000404000004040000040400000414000c9
:10370000512c200091407800f0cbb30000c0600045
:1037100002407000c5e2b700960037001e0090001e
:10372000e10f500011003600c5c2bf000080fb0051
:103730004700de000004a20061406000004040003d
:103740000040400000404000004040000040400079
:103750000040400080404000c5c2bf000074a1008e
:1037600001407000c5e2b700820037001e009000e3
:1037700061406000004040000040400000404000c8
:1037800000404000004040000040400080404000b9
:10379000c5c2bf000074a10001407000c5e2b700bf
:1037a000740037001e00900061406000004040003f
:1037b0000040400000404000004040000040400009
:1037c0000040400080404000c5c2bf000074a1001e
:1037d00001407000c5e2b700c5c2bf000080fb0019
:1037e0004700de00614060000040400000404000b3
:1037f00000404000004040000040400000414000c8
:10380000512c200091407800f0cbb30000c0600044
:1038100002407000c5e2b700c5c2bf000080fb00d7
:103820004600de00614060006140600000404000f2
:103830000040400000404000004040000041400087
:10384000512c200091407800f0cdb30000c0600002
:1038500002407000c5e2b700c5c2bf000080fb0097
:103860004500de00614060006140600000404000b3
:1038700000414000512c200091407800b0cfb300af
:1038800000c0600002407000c5e2b700c5c2bf00c2
:103890000080fb004200de0061406000614060008b
:1038a0000040400000404000004040000041400017
:1038b000512c200091407800f0ceb30000c0600091
:1038c00002407000c5e2b700c5c2bf000080fb0027
:1038d0004400de0061406000614060000041400043
:1038e000512c200091407800d0cfb30000c0600080
:1038f00002407000c5e2b700c5c2bf000080fb00f7
:103900000000d100614060000040400000404000e5
:1039100000404000004040000040400000404000a7
:1039200080404000c4c2bf000074a100014070008c
:10393000c4e2b700c4c2bf000080fb004700de0045
:1039400061406000004040000040400000404000f6
:10395000004040000040400000414000412c200059
:1039600091407800f0cbb30000c0600002407000ce
:10397000c4e2b7000080fa00000006000000fa0070
:10398000c4c2a900c4e2a900c522a900c582a90039
:10399000c542a900c5a2a900c5c2a900c5e2a900e7
:1039a0000080fa00000006000200fa00000f780014
:1039b000100020009e0f100010003600d0c2bf0083
:1039c0000080fb004200de00614060000004a200b5
:1039d00061406000614060000040400000414000e4
:1039e000012d200091407800b0cfb30000c06000ee
:1039f00002407000d0e2b7000b0037001e007800d4
:103a000061406000614060000040400000414000b3
:103a1000012d200091407800b0cfb30000c06000bd
:103a200002407000d0e2b7000080fa0000000600fb
:103a30000200fa00000f7800100020009e0f100016
:103a40000f003600d0c2bf000080fb000000d10094
:103a5000614060000004a2006140600061406000bd
:103a600000414000012d200091407800d0cfb300ec
:103a700000c0600002407000d0e2b7000a003700ca
:103a80001e0078006140600061406000004140001d
:103a9000012d200091407800d0cfb30000c060001d
:103aa00002407000d0e2b7000080fa00000006007b
:103ab0000000fa00c4c2bf000080fb004600de0028
:103ac0006140600000c0ea00614060006140600049
:103ad00000404000004040000040400000404000e6
:103ae0000040400000414000412c200091407800ff
:103af000f0cbb30000c0600002407000c4e2b70029
:103b0000c4c2bf000080fb004700de0000c0ea0026
:103b10006140600000404000004040000040400024
:103b20000040400000404000004040008040400015
:103b3000c4c2bf000074a10001407000c4e2b7001d
:103b4000c5c2bf000080fb000000d10061406000e2
:103b500000c0ea0061406000614060000041400038
:103b6000512c200091407800d0cfb30000c06000fd
:103b700002407000c5e2b700c5c2bf000080fb0074
:103b80004400de006140600000c0ea006140600067
:103b900061406000004040000040400000404000a4
:103ba00000414000512c200091407800f0ceb3003d
:103bb00000c0600002407000c5e2b700c5c2bf008f
:103bc0000080fb004200de006140600000c0ea00af
:103bd00061406000614060000040400000414000e2
:103be000512c200091407800b0cfb30000c060009d
:103bf00002407000c5e2b700c5c2bf000080fb00f4
:103c00004500de006140600000c0ea0061406000e5
:103c10006140600000404000004040000040400023
:103c20000040400000414000512c200091407800ad
:103c3000f0cdb30000c0600002407000c5e2b700e4
:103c4000c5c2bf000080fb004600de00614060008e
:103c500000c0ea0061406000614060000040400038
:103c60000040400000404000004040000040400054
:103c700000414000512c200091407800f0cbb3006f
:103c800000c0600002407000c5e2b700c5c2bf00be
:103c90000080fb004700de0000c0ea0061406000d9
:103ca0000040400000404000004040000040400014
:103cb000004040000040400080404000c5c2bf00be
:103cc0000074a10001407000c5e2b7000080fa0056
:103cd000000006000000fa00c4c2bf000080fb0024
:103ce0004600de006140600000c0ea006140600004
:103cf0006140600000404000004040000040400043
:103d0000004040000040400000414000412c2000a5
:103d100091407800f0cbb30000c06000024070001a
:103d2000c4e2b7000080fa00000006000000fa00bc
:103d3000c4c2bf000080fb004700de0000c0ea00f4
:103d400061406000004040000040400000404000f2
:103d500000404000004040000040400080404000e3
:103d6000c4c2bf000074a10001407000c4e2b700eb
:103d70000080fa00000006000000fa00c5c2bf0083
:103d80000080fb000000d1006140600000c0ea003c
:103d9000614060006140600000414000512c200003
:103da00091407800d0cfb30000c0600002407000a6
:103db000c5e2b7000080fa00000006000000fa002b
:103dc000c5c2bf000080fb004400de00614060000f
:103dd00000c0ea00614060006140600000404000b7
:103de000004040000040400000414000512c2000b5
:103df00091407800f0ceb30000c060000240700037
:103e0000c5e2b7000080fa00000006000000fa00da
:103e1000c5c2bf000080fb004200de0061406000c0
:103e200000c0ea0061406000614060000040400066
:103e300000414000512c200091407800b0cfb300e9
:103e400000c0600002407000c5e2b7000080fa00c8
:103e5000000006000000fa00c5c2bf000080fb00a1
:103e60004500de006140600000c0ea006140600083
:103e700061406000004040000040400000404000c1
:103e80000040400000414000512c2000914078004b
:103e9000f0cdb30000c0600002407000c5e2b70082
:103ea0000080fa00000006000000fa00c5c2bf0052
:103eb0000080fb004600de006140600000c0ea00b8
:103ec00061406000614060000040400000404000f0
:103ed00000404000004040000040400000414000e1
:103ee000512c200091407800f0cbb30000c060005e
:103ef00002407000c5e2b7000080fa000000060032
:103f00000000fa00c5c2bf000080fb004700de00d1
:103f100000c0ea00614060000040400000404000f6
:103f20000040400000404000004040000040400091
:103f300080404000c5c2bf000074a1000140700075
:103f4000c5e2b7000080fa00000006000200fa0097
:103f5000000f78009e00780080d52100260b02001b
:103f6000000000000080fa00000006000000fa00d7
:103f700080d521008a0b0200000000000080fa00ba
:103f8000000006000200fa00000f78001e00e000aa
:103f9000040035009e00780080d52100dc0b020073
:103fa000000000000080fa00000006000000fa0097
:103fb000603b2100104078000004e0000e003a0051
:103fc0008000eb0070002000c1fc0700603b210076
:103fd000104078000080fb0011002000bcfc0700ae
:103fe000603b2100104078008040e800603b2100e9
:103ff0000148780023003700603b21001040780022
:10400000e74f50000f003a00603b2100104078005d
:104010000080fb000000e9008000eb00acfc070022
:10402000603b2100104078000080fb001100200060
:10403000a7fc0700613b21000040eb0080487800ae
:1040400010003700603b2100104078000080fb002a
:104050000000e9008000eb009dfc0700603b2100b0
:10406000104078000080fb001100200098fc070041
:10407000603b2100104078008040e800603b210058
:10408000014878000080fa00000006000200fa00f3
:10409000703b2100104078000080fb00000f78008a
:1040a0001e007800e20f50001c0032001e00780055
:1040b000e20f500007003c001e0078000000e00006
:1040c0000b0032001e007800e10f50000c0032009f
:1040d000230037001e007800e30f50001600320066
:1040e0001e007800e40f50001a0032001c00370058
:1040f000210020000000eb0075fc070018003700cd
:10410000210020001000200071fc07002100200089
:10411000700020006efc0700110037002100200015
:10412000200020006afc0700210020006000200021
:1041300067fc07000a003700210020003000200043
:1041400063fc0700210020005000200060fc0700f5
:104150000300370021002000400020005cfc070025
:10416000703b210010407800e34f500006003e00f5
:10417000703b2100104078008040e800703b210037
:104180000148780003003700713b21000040eb003c
:10419000804878000080fa00000006000000fa0065
:1041a000803b2100104078000004e00013003a003a
:1041b000803c2100104078000004e0000f00320035
:1041c000813b210010c0b300804878008000eb00e4
:1041d0000000eb003efc0700803b2100104078000f
:1041e0000080fb001100200039fc0700813c210009
:1041f0000040eb008048780036003700803b21000b
:10420000104078000004e00013003a00803c2100d8
:10421000104078000004e0000f003a00813b2100cc
:1042200070c0b300804878008000eb000000eb0015
:1042300027fc0700803b2100104078000080fb0035
:104240001100200022fc0700813c210010c0b300b7
:10425000804878001f003700803b21001040780024
:10426000e74f50000c003a00813b21000040eb007a
:10427000804878008000eb007000200014fc0700ec
:10428000803b2100104078000080fb0011002000de
:104290000ffc07000f003700803b21001040780022
:1042a000e14f50000b003a00813b21000040eb0041
:1042b000804878008000eb001000200004fc07001c
:1042c000803b2100104078000080fb00110020009e
:1042d000fffb07000080fa00000006000200fa0061
:1042e000903b2100104078000080fb00000f780018
:1042f0001e007800e10f5000150032001e0078000b
:10430000e10f500004003c001e0078000000e000b7
:10431000080032001a0037001e007800e20f50003b
:10432000120032001e007800e30f5000130032002c
:1043300013003700210020000000eb00e4fb070021
:104340002100200040002000e1fb07000c003700a6
:104350002100200010002000ddfb070021002000cc
:1043600030002000dafb07000500370021002000a4
:1043700020002000d6fb0700010037007ffd07006a
:10438000903b210010407800e24f500006003e00b4
:10439000903b2100104078008040e800903b2100d5
:1043a0000148780003003700913b21000040eb00fa
:1043b000804878000080fa00000006000200fa0041
:1043c000a03b2100104078000080fb00000f780027
:1043d0001e007800e10f5000150032001e0078002a
:1043e000e10f500004003c001e0078000000e000d7
:1043f000080032001a0037001e007800e20f50005b
:10440000120032001e007800e30f5000130032004b
:1044100013003700210020000000eb00acfb070078
:104420002100200040002000a9fb07000c003700fd
:104430002100200070002000a5fb070021002000c3
:1044400050002000a2fb07000500370021002000db
:10445000600020009efb07000100370047fd0700b9
:10446000a03b210010407800e24f500006003e00c3
:10447000a03b2100104078008040e800a03b2100d4
:104480000148780003003700a13b21000040eb0009
:10449000804878000080fa00000006000400fa005e
:1044a000209b80000000e00020003200c19a8000c4
:1044b00080da2f00808f50001c003500c19a8000e8
:1044c00080252000808f500018003c00d602a900f3
:1044d000d622a900d642a900d662a9000000eb00ae
:1044e000209b8800c09a8000000178001207980085
:1044f0001e0190000200e00003003d001e0190003c
:104500000201ea0012079800007122001e019000cb
:10451000110009000200d800ef005000e024220042
:10452000dc0b0200000000004e003700c09a800043
:104530000000e0000c003400009b80000000e80058
:10454000009b8800e09a80000000e900e09a880063
:10455000e09a80000000e0000e003d0030002000e6
:10456000e09a88000b003700009b80000000e90003
:10457000009b8800e09a80000000e800e09a880034
:10458000e09a8000e30f5000020034000000eb00ce
:10459000e09a8800e09a8000000f78001e01780001
:1045a000e10f5100130032001e007800e10f5000af
:1045b00004003c001e0178000200e0000800320008
:1045c0001a0037001e007800e20f50000e00320083
:1045d0001e017800e30f5100100032001300370075
:1045e000d602a900d622a800d642a900d662a80009
:1045f0000e003700d602a900d622a800d642a80095
:10460000d662a90009003700d602a800d622a90068
:10461000d642a800d662a90004003700d602a8003e
:10462000d622a900d642a900d662a800c19a80006d
:1046300080da2f00808f50000a003500c19a800078
:1046400080252000808f500006003c0010002000d4
:10465000209b8800f1002000e0242200dc0b0200f7
:10466000000000000080fa00000006000400fa00cc
:10467000309b80000000e00020003200d19a8000d2
:1046800080da2f00808f50001c003500d19a800006
:1046900080252000808f500018003c00d682a900a1
:1046a000d6a2a900d6c2a900d6e2a9000000eb005c
:1046b000309b8800d09a8000000178001207980093
:1046c0001e0190000200e00003003d001e0190006a
:1046d0000201ea0012079800007122001e019000fa
:1046e000110009000200d800ef00500060332200e2
:1046f000dc0b0200000000004e003700d09a800062
:104700000000e0000c003d00109b80000000e9006c
:10471000109b8800f09a80000000e900f09a880061
:10472000f09a80000000e0000e003d003000200004
:10473000f09a88000b003700109b80000000e80012
:10474000109b8800f09a80000000e800f09a880032
:10475000f09a8000e30f5000020034000000eb00ec
:10476000f09a8800f09a8000000f78001e0178000f
:10477000e10f5100130032001e007800e10f5000dd
:1047800004003c001e0178000200e0000800320036
:104790001a0037001e007800e20f50000e003200b1
:1047a0001e017800e30f51001000320013003700a3
:1047b000d682a900d6a2a800d6c2a900d6e2a80037
:1047c0000e003700d682a900d6a2a800d6c2a80043
:1047d000d6e2a90009003700d682a800d6a2a90017
:1047e000d6c2a800d6e2a90004003700d682a800ed
:1047f000d6a2a900d6c2a900d6e2a800d19a80000c
:1048000080da2f00808f50000a003500d19a800096
:1048100080252000808f500006003c001000200002
:10482000309b8800f100200060332200dc0b020086
:10483000000000000080fa00000006000000fa00fe
:104840008000eb00e0242200260b020000000000a4
:104850008000eb0060332200260b02000000000005
:104860000080fa00000006000200fa00000f780045
:104870001e00e0000b003a000000eb00c09a880028
:104880008000eb00e0242200dc0b020000000000ae
:10489000d602a900d622a900d642a900d662a90054
:1048a0003100370080c12f009e0f10000b003d002b
:1048b00080c12f00c09a8800c29a8000008f2d000e
:1048c000110009000200d80080007800e0242200d6
:1048d000dc0b02000000000023003700803e2000b7
:1048e0009e0f10000b003400803e2000c09a88000c
:1048f000c29a800000712200110009000200d80055
:1049000080007800e0242200dc0b020000000000a0
:10491000150037001e007800c09a88001e00e000d5
:1049200009003d00008f2d001e01780011000900d4
:104930000200d80080007800e0242200dc0b020096
:104940000000000008003700007122001e017800fe
:10495000110009000200d80080007800e024220045
:10496000dc0b0200000000000080fa0000000600de
:104970000200fa00000f78001e00e0000b003a0071
:104980000000eb00d09a88008000eb00603322002a
:10499000dc0b020000000000d682a900d6a2a9000c
:1049a000d6c2a900d6e2a9003100370080c12f008d
:1049b0009e0f10000b003d0080c12f00d09a880090
:1049c000d29a8000008f2d00110009000200d8004b
:1049d0008000780060332200dc0b02000000000041
:1049e00023003700803e20009e0f10000b00340093
:1049f000803e2000d09a8800d29a80000071220068
:104a0000110009000200d800800078006033220005
:104a1000dc0b020000000000150037001e007800cb
:104a2000d09a88001e00e00009003d00008f2d0094
:104a30001e017800110009000200d80080007800f3
:104a400060332200dc0b0200000000000800370089
:104a5000007122001e017800110009000200d80038
:104a60008000780060332200dc0b020000000000b0
:104a70000080fa00000006000800fa00000f78002d
:104a8000110798001e007800300798003e01900042
:104a90000200e00003003d003e0090000000ea003c
:104aa000300798001e019000220798002e00900009
:104ab0000000e00003003d002e0190000201ea002a
:104ac000220798003e0090002e01900082004000d6
:104ad000803e2000808f500006003c001e009000a9
:104ae0001e00100060ff07001e0090001e00400026
:104af0009fff07000080fa00000006000000fa0097
:104b0000009b80000080fa00000006000200fa000e
:104b1000000f78001e007800009b88000080fa00db
:104b2000000006000000fa00109b80000080fa00e0
:104b3000000006000200fa00000f78001e00780056
:104b4000109b88000080fa00000006002800fa0090
:104b5000889fbe008a1f78000000eb003007980095
:104b60000000eb0020079800100037003e00900086
:104b70008136210000004000810040000000eb0071
:104b8000800878003e009000e800470000004000e8
:104b900000004000010140006000b8000089be0034
:104ba0003e0090000000e800300798003e009000b2
:104bb000e70f5000edff3400290037000000eb0044
:104bc00030079800200037003e0590003e0090001e
:104bd000e8004700000040000000400001004000e5
:104be0001004be003e00900047000700cf80de00aa
:104bf0000801400089814800e80047000a0045009c
:104c000000004000010040000288be006000b800c3
:104c1000008fbe00040037001000200001002000bb
:104c20001e0f40005e974800703e200001002000eb
:104c3000be0f1000ae8f1800f7ff34003e0090004a
:104c40000000e800300798003e009000e70f500099
:104c5000ddff34002e0090000000e80020079800df
:104c6000ae00900030062000808f5000d3ff34004b
:104c70000000eb00300798001c0037003e05900054
:104c80003e009000e80047000000400000004000a7
:104c9000010040001000be004e03020000000000b2
:104ca0000004be002e009000cf80de004e03020004
:104cb000000000000001be000800be00ba050200ae
:104cc00000000000700502000000000000017800f4
:104cd000813621000a0045000100400002087800ea
:104ce0003e0090000000e800300798003e00900071
:104cf000e70f5000e1ff34004f0578004f04be007d
:104d00000080fa00000006000400fa00000f78009e
:104d1000700020009e0f1000030036000000eb0022
:104d2000100798000a0037001e00780041f92000a3
:104d300000004000608178001e00780041fa2000e9
:104d400000004000608078000001510012079800c8
:104d50001e0090000080fa00000006000600fa0025
:104d6000100798001e009000e70f50000300360067
:104d70000000eb0020079800150037001e0090008f
:104d800041f9200000004000608178001e00900082
:104d900041fa2000000040006080780000015100ce
:104da0001e009000813621000000400060807800e5
:104db000000f51001e00e000030034001e007800c8
:104dc00020079800020037000000eb002007980041
:104dd0002e0090000080fa00000006000400fa0097
:104de000000f7800700020009e0f100003003600b6
:104df0000000eb0010079800050037001e00780047
:104e000041f9200000004000608078001007980001
:104e10001e0090000080fa00000006003400f80038
:104e2000881f780008c0b300a80188004f047800ec
:104e30000000fa0086c0a9001fe1a80021e1a90036
:104e40000080fa003400f900004006000000fa007b
:104e500020002000000988000000eb00c008880046
:104e600010002000e008880086c0a9008ec0a800bd
:104e700021e1a8000080fa00000006000000fa000e
:104e800020002000f0088800a07d8000a008880095
:104e9000a07d80000000e800d008880086a0a9005e
:104ea0001fe1a9008ea0a8000080fa000000060003
:104eb0000200fa00000f78000000eb00c0428800fa
:104ec0001e007800b07d88000000eb00c07d8800e7
:104ed000eaff0700ddff07000080fa00000006007f
:104ee0001200fa0030079800410798005207980016
:104ef00063079800740798000000eb001007980003
:104f0000ce0090005e0090000088b900800078001c
:104f10006e0090000000e8000088b9000000e80082
:104f200080007800a0142000808f5000030036001d
:104f30000080eb00000f9800320037000000eb000b
:104f400020079800210037000000eb00000f7800d8
:104f5000080037001e019000a1fb200010c0b30024
:104f600000f178001e0090000000e8001007980093
:104f70001e0fe8005e0090009e0f1000f5ff350048
:104f80000000eb00000f7800080037001e019000c1
:104f9000a1fb20000040eb0000f178001e00900013
:104fa0000000e800100798001e0fe800ee009000d7
:104fb0005e0090000088b9009e0f5000f3ff3c0097
:104fc0002e0090000000e80020079800ae0090003e
:104fd0004e009000808f5000dbff35001e019000d6
:104fe000a1fb200020c0b30000f178007e009000fb
:104ff000a07d88003e009000d04288000000eb00b9
:10500000000f98000e0890000080fa0000000600d3
:105010000000fa00c07d80000080fa000000060059
:105020000800fa0020079800310798006000b800d7
:10503000008fbe0004003700100020000100200097
:105040001e0f40005e9748002e009000be009000aa
:10505000be0f1000ae8f1800f7ff35000080fa0079
:10506000000006000000fa00e6c2bf000080fb005e
:105070004600de00614060000081fb00e7c2bf0027
:105080000080fb000000d100614060000080fb0058
:105090000000400080007800e7c2bf00614060006f
:1050a0000080fb000080400000004000800078008d
:1050b000e6c2bf000080fb004700de000080fb006e
:1050c0000080400000004000000041000080fa0025
:1050d000000006000200fa00000f78001e007800b1
:1050e000019e8000828620000000400000004000f9
:1050f00000004000000040000000400000004000b0
:10510000000040000000400001004000000040009e
:10511000600079000080fa00000006000e00fa002e
:1051200040079800510798006000b80020079800d9
:10513000310798004e009000e20f500040003e0002
:105140005e0090000000e0003d003200de009000b4
:1051500000102000808f500039003e000000eb005e
:1051600010079800019e80005e00900000805000b3
:105170001010b00080007800f00f2000008f600059
:105180002b0037004e0090009e00780082862000a1
:10519000000040000000400000004000000040000f
:1051a00000004000000040000000400000004000ff
:1051b0000100400000004000600079006101b9007a
:1051c0002e009000be009000000041008180490048
:1051d00020079800310798001e0090000000e800aa
:1051e000100798009e00e800f00f28008080600003
:1051f000610798006e0090000000e0000a003d008a
:10520000ee0090008100e9006107980000f02f0097
:10521000ee00900080807000610798006e009000a2
:105220000000e80060079800ee009000010f780091
:105230009e0090005e009000808f5000d1ff3900ea
:105240005e0090006101b8002e009000be0090004a
:1052500030030200000000000080fa000000060099
:105260000800fa00300798000000eb0010079800d3
:1052700070382100000f78000000eb002007980034
:10528000420037003e009000ae0090008286200071
:10529000000040000000400000004000000040000e
:1052a00000004000000040000000400000004000fe
:1052b0000100400000004000e00079001e00900066
:1052c000808f5000100034003e009000ae0090002f
:1052d00082862000000040000000400000004000e6
:1052e00000004000000040000000400000004000be
:1052f000000040000100400000004000e000790094
:10530000110798001e0037003e009000ae0090008c
:1053100082862000000040000000400000004000a5
:10532000000040000000400000004000000040007d
:1053300000004000010040000000400060007900d3
:105340009e0f50000e003d003e009000ae00900009
:105350008286200000004000000040000000400065
:10536000000040000000400000004000000040003d
:10537000000040000100400000004000600f790084
:105380002e0090000000e80020079800ae0090007a
:10539000f00f2000808f5000baff34001e009000f4
:1053a0001e0050000080fa00000006000800fa000d
:1053b0001007980021079800320798003e009000df
:1053c0000000e00026003200be0090000010200027
:1053d000808f500022003e000000eb00000f78009c
:1053e0001b0037003e0090001e00500000004000ef
:1053f000800078002e009000008040008081e9004d
:105400001e019000019e80001e00780080804000f8
:10541000f00f2000808060008486200002004100a0
:10542000000040000000400000004000000040007c
:10543000000040000000400000004000010040006b
:105440000000400060007a00800978001e0fe8002c
:105450009e0078003e009000808f5000e1ff3900f0
:105460000080fa00000006000800fa00fc0a0200b2
:1054700000000000401f2000342402000000000053
:10548000401f2000b8240200000000000000370088
:105490001100200010002000681902000000000028
:1054a0000000eb008426020000000000800078006d
:1054b00000322000808f500007003c0010002000c8
:1054c00084260200000000008000780000322000e6
:1054d000808f50003a0034000000eb008426020068
:1054e000000000008000780000322000808f500013
:1054f00004003400110020000000eb0068190200d5
:1055000000000000100020008426020000000000bf
:105510008000780000322000808f500004003400aa
:105520001100200010002000681902000000000097
:10553000e0e32f0010079800201c2000000f7800e7
:105540001e007800b8240200000000001e00900039
:1055500034240200000000006000b800200798001a
:105560003107980007003700000000002e0090006f
:10557000be00900061004000e080480020079800d5
:10558000310798002e019000be019000f0c3290061
:1055900001002000800f5100818f5900f2ff34007c
:1055a000401f20003424020000000000401f2000a3
:1055b000b824020000000000be1c02000000000031
:1055c00060002000842602000000000080007800b7
:1055d00000322000808f500007003c007000200047
:1055e00084260200000000008000780000322000c5
:1055f000808f50003a0034006000200084260200b2
:10560000000000008000780000322000808f5000f1
:10561000040034001100200070002000681902000e
:10562000000000007000200084260200000000003e
:105630008000780000322000808f50000400340089
:105640001100200070002000681902000000000016
:10565000201c200010079800e0e32f00000f7800c6
:105660001e007800b8240200000000001e00900018
:1056700034240200000000006000b80020079800f9
:105680003107980007003700000000002e0090004e
:10569000be00900061004000e080480020079800b4
:1056a000310798002e019000be019000f0c3290040
:1056b00001002000800f5100818f5900f2ff34005b
:1056c000401f20003424020000000000401f200082
:1056d000b824020000000000be1c02000000000010
:1056e00030002000842602000000000080007800c6
:1056f00000322000808f500007003c005000200046
:1057000084260200000000008000780000322000a3
:10571000808f50005eff3400c05d20003424020002
:105720000000000040a22f00b8240200000000008a
:105730006000b80020079800310798000700370084
:10574000000000002e009000be00900061004000ac
:10575000e080480020079800310798002e01900053
:10576000be019000f070220001002000800f510067
:10577000818f5900f2ff3400401f200034240200c2
:1057800000000000401f2000b824020000000000bc
:105790003fff37000000fa004010210058270200a8
:1057a0000000000008280200000000000000e000e7
:1057b000fcff32000080fa00000006000a00fa0038
:1057c0006000b80030079800410798004f0037008c
:1057d0003e009000ce009000000040008180480014
:1057e0004210210000004100104078008000fb00c2
:1057f000800f200000806000100798003e0090009d
:10580000ce0090000000400081804800421021003e
:1058100000004100104078000000fb0067006000bd
:105820000000400000004000000040000000400078
:1058300000004000800178003e009000ce00900003
:10584000000040008180480061004000e080480086
:105850004210210000004100104078008000fb0051
:10586000000e2000008060004380de000080710098
:10587000200798001e009000210320008080400037
:105880002e009000808f500009003d003e009000e7
:10589000ce009000421a210000004000820040002b
:1058a00010002000800878001e0fe8000700370075
:1058b0003e009000ce009000421a210000004000ff
:1058c000820040000000eb00800878001e00e0002d
:1058d0000500340010002000010020002092880004
:1058e00031928800030037006000b80020928800e1
:1058f000319288003e009000ce0090006100400090
:10590000e080480030079800410798003e01900071
:10591000ce019000f004200001002000800f510013
:10592000818f5900aaff34000080fa0000000600b1
:105930000800fa000000eb00200798000000eb00d0
:10594000100798000000eb00000f780010003700ef
:105950001e007800411a210000004000e08078001d
:105960002e009000010040002007980081022000d6
:105970001e804000411a210000004000e0807800b5
:105980001e00900001004000100798001e0fe80064
:10599000700220009e0f1000edff3400ae0090005a
:1059a0001e009000808f500003003d00100020007a
:1059b00030079800020037008000eb0031079800a4
:1059c0003e0090000080fa00000006000000fa008f
:1059d000d7ff07000000e00007003200401f200052
:1059e0003424020000000000c0e02f00b8240200b0
:1059f0000000000006003700c0e02f003424020041
:105a000000000000401f2000b82402000000000039
:105a10000080fa00000006000000fa00401f20008d
:105a20003424020000000000401f2000b8240200bf
:105a3000000000000080fa00000006000000fa00ec
:105a4000c0430200000000001600200045002000b6
:105a5000840020004300200002282000e10e2000e6
:105a60000000eb001e4302000000000011002000b7
:105a7000100020007a43020000000000ac43020046
:105a8000000000000080fa00000006000400fa0098
:105a9000000f7800300020009e0f1000030034003b
:105aa0001000200010079800020037000000eb00f3
:105ab000100798001e0090000080fa000000060009
:105ac0000200fa00ddff0700fc0a020000000000ef
:105ad000110020000000eb00681902000000000027
:105ae000000037002bff070034ff0700401a210099
:105af000e0209000401a210070209000808040003b
:105b0000401a21000028900080804000401a2100a7
:105b10001028900080804000401a2100202890002a
:105b200080804000401a210030289000008f400003
:105b3000300020009e0f10001200340011002000e1
:105b4000100020006819020000000000b2ff0700ea
:105b500060ce22008a0b0200000000000000eb0073
:105b6000842602000000000080007800703e2000c3
:105b7000808f5000dbff3c000e4902000000000057
:105b8000d8ff37002292800033928000100020005e
:105b900001002000800f5100818f590005003a005c
:105ba000a128200060ce2200260b02000000000089
:105bb000ccff3700110020002000200068190200ef
:105bc0000000000060ce22008a0b020000000000ee
:105bd0000000eb0034240200000000000000eb0095
:105be000b824020000000000beff37000800fa00e1
:105bf0000000eb0084260200000000008000780016
:105c0000803721000108780010002000842602005f
:105c1000000000008000780080372100110098000b
:105c20002000200084260200000000008000780090
:105c300080372100210098003000200084260200d7
:105c400000000000800078008037210031009800bb
:105c50004000200084260200000000008000780040
:105c60008037210041009800500020008426020067
:105c7000000000008000780080372100510098006b
:105c800060002000842602000000000080007800f0
:105c900080372100610098007000200084260200f7
:105ca000000000008000780080372100710098001b
:105cb0000000eb00509e88000000eb0030079800c9
:105cc0000c0037003e0090008137210000004000aa
