:020000040000fa
:080000003001040000000000c3
:020000040000fa
:10020000322c040000000000223c0400000000002a
:10021000184104000000000000420400000000003b
:10022000b04b0400000000002c710400000000002e
:100230008074040000000000a840040000000000da
:100240003840040000000000be030400000000006d
:10025000880c0400000000006a0204000000000096
:100260004fb02100807922000001880000000000ca
:10027000050007000c000700d22602000000000065
:100280000040da000000fe004440a90040132000b6
:100290000000e0000300320010002000a0018800f0
:1002a0004440a80000000600205821001100200052
:1002b0001600370062004000e0804800910188008d
:1002c0009001ba0062004000e0804800910188007f
:1002d0009002ba0062004000e08048000002eb009b
:1002e0006028e10005003a008301e90007003300bf
:1002f000038009000059eb00040037006128e10089
:10030000010032000082eb00050007009101880027
:100310001001ba000200e000e6ff3a00000005000c
:10032000910188008002780062004000e08048006f
:100330003559ba008301e900080032002559ba0096
:100340008301e900050032000400e000f4ff320000
:1003500015d9ba008301e900f1ff3a000000060058
:10036000000178001001e200030035001061a800d0
:10037000000028001021b7003008800041088000ec
:100380000200e000010032000089be00000006000b
:10039000889fbe00e30440000900a100808f540044
:1003a00049003600e38f540001003e004900200060
:1003b000705180000000e0000200320080007800f0
:1003c0000c00370001a3200003003700908f540079
:1003d000230036008080e800110078001100e00062
:1003e000faff3a000f003700928f54001c003600cd
:1003f0008280e800110178001100e000faff3a0065
:100400001001780001a3200003003700908f5400f2
:10041000130036008080e80011007800820f500041
:10042000faff3a0068518000890f54000100310042
:100430000904780008007800e50007000000e000eb
:1004400004003a00890f54001f0032000804d10054
:10045000f5ff37000818780030000700d4ff370098
:10046000110178009201780064805100890f5000da
:100470000300310012009000800878000700370068
:100480000900410080087800920190001300980054
:100490001100780012881400090978009101780091
:1004a0001100e00004003200130090008380e80097
:1004b0000000e00001003a008000eb00715188006c
:1004c0000280e800010037000000eb004f04be008e
:1004d000000006000004780006003700820041009a
:1004e000a0518000e10078000200e80090518800ef
:1004f0000100010092518000b0518000800f510036
:10050000f6ff3900c0992000a05188002002200089
:10051000b051880008007800750a07000000e0006c
:10052000300032008080e90091027800e38f5200b1
:100530002c0036000508a3002a003a0082518000f2
:100540000200e00002003200828f500004003100ff
:1005500002087800815188001600370003017800f6
:10056000920190000300e00002003200818f5100f0
:10057000faff39001202780004004100808f500019
:1005800018003900810f500003003a0005094200ad
:1005900082007800070037000300e000030032000b
:1005a00005804000808f51000e00390093009800b4
:1005b00011019800110190000200e00009003200d2
:1005c00011804000820f500006003a002e2aef00f2
:1005d0001100900011017800900841001000900077
:1005e0009000980000000600881f78000004780042
:1005f000d05080000000e000010032000000010047
:100600001c6aef00a05080000000e00001003200f2
:10061000000001006140b800b0508800c15088005f
:100620004f04780000000600889fbe00d050800074
:100630000000e0000100320000000100a050800036
:100640000000e000010032000000010030408000a6
:100650000000e000010032000000010000408000c6
:100660000000e00001003200000001001c4ae2002e
:1006700027003a00b0508000c15080000004eb0019
:10068000d260260093012000b30d0700f2352f0041
:10069000e3c6230000004100818049000804e8000f
:1006a000e80f5400f6ff3a00b0508800c1508800af
:1006b0000004eb0089802000d26026009301200016
:1006c000b0508000c1508000a30d0700f2352f000c
:1006d000e3c623000000410081804900b05088003b
:1006e000c1508800809cbe000804e8000002200081
:1006f000800f5400f0ff3a00204480003144800015
:10070000104088002140880010c0b3001ceab700e8
:10071000d260260093012000b0508000c1508000bc
:100720008d0d0700f2352f00e3c6230000004100c5
:1007300081804900b0508800c1508800124080007c
:100740000201d000e203b200820141008280200059
:10075000028141001202be0014408800254088003a
:100760000089be0010408000214080000100780018
:1007700000f0a1004f04be0000000600889fbe00ec
:100780008004780001007800020478008901780074
:100790001100200015000700880f500001003200f2
:1007a0008004eb00090078004f04be000000060042
:1007b0000000fa004fb99700e8815700018c200033
:1007c000e03b20005f0007000080fa000000060008
:1007d0000000e00003003400cd090700e10f4000f5
:1007e00001003a000000eb0000000600889fbe00f8
:1007f0008a9fbe008c9fbe008e1f78008106780005
:1008000083047800000678000288b90000077800a9
:100810000000e00002003a000001780043003700c9
:100820000d00e0004100320000057800c900900092
:1008300069009000808f50000400390009007800a2
:10084000f80007000000e0002a00350019007800d9
:100850004a00de006100600003003a000a047800ec
:10086000800578000b0037000a017800a100200005
:100870000c0078002e010700800578000000e000e1
:1008800002003a000a047800020037000c00500011
:100890000004e800c90190006900900003005000c6
:1008a000880f500002003100000478008005eb0042
:1008b000080178008c00780003007800260107000a
:1008c0000806460008055500490090000800400051
:1008d000c00498000b00e00004003200090078001a
:1008e000260107000000e00002003a000a00e000d4
:1008f000ceff3a001900780000b8a30002003200d1
:10090000090078001d01070000c0200019006000e8
:100910000200320049009000e00498000a005700ed
:10092000110009000d80d800000178000200780055
:100930004f0778004f06be004f05be004f04be00b3
:10094000000006006200fa00889fbe008a9fbe0079
:100950000004be00020578008300780060f92f00d3
:100960000f0040004501070088979f0099979f005e
:100970000000eb00a09f9f009a4578000b80fb00d1
:100980000000ea00cf04de000904e90050c2b30011
:1009900080cf550001003200090478000800e00013
:1009a0000b003400080178008a0078001f9097003f
:1009b0008f9197000300010090979f000000e000d6
:1009c000930032002f98970008004000a09f9f00de
:1009d0000905450050c2b30080cf55000400320025
:1009e0000b04e000e4ff3a002f98970089003700dd
:1009f0000000eb00809f9f00f0979f00e0979f0012
:100a0000d0979f00c0979f00b0979f00c09f9f0006
:100a100009003700e0a020000080500000004000e6
:100a200021a02000e08078004f989700010070001e
:100a3000c09f9f000a05e8001a4478008800fb0068
:100a4000e0a0200012010700800078000000e00014
:100a5000f0ff3a00a0c2b300804f54000e003a00ed
:100a6000bf8897000180e900b08f9f009000780058
:100a7000b19f9f000100e00005003d000100ea0079
:100a8000b09f9f004f9897000020a000c09f9f003c
:100a90000a05e80010003700b19f9f0009003700e9
:100aa000bf989700f0ff2700808f500004003200ad
:100ab0006a08b9000000410003004000b09f9f0099
:100ac0000a05e8001a01fb0003fd2f0003004100a6
:100ad000e90f5000f2ff3600e0c2b3009a4f100059
:100ae000040032000080eb00909f9f008a04780091
:100af0001c0037008a04e800a0c2b300994f100020
:100b000007003a00bf8897000180e900b08f9f007e
:100b100010007800909f9f008a84e8001100370041
:100b20000000eb00909f9f00090037009f989700fe
:100b3000f0ff2700808f5000040032006a08b900df
:100b40000000410003004000909f9f008904e800de
:100b50001901fb0003fd2f0003004100e90f5000c5
:100b6000f2ff3600194478008800fb0040a5210000
:100b7000c70007000000e00002003a0000447800cf
:100b8000010037008904e800a87f9f0080c6b300f9
:100b9000804f540004003a0066405000994f140002
:100ba0000700320008003700c0c6b300804f540071
:100bb00005003a00994f140003003a0065404000d8
:100bc000a07f9f008904e8000905e800c8fb2f000a
:100bd0000f04440060f92f000f0040008085e800fa
:100be0008801780019417800800078000b007800b7
:100bf000790107000000e00005003a008800780055
:100c00000b007800aa0007000000e0005aff3d003a
:100c10000080eb004f05be004f04be000080fa00cc
:100c200000000600889fbe0000047800c00190000c
:100c3000600090008000eb00808f51003900390087
:100c4000180178002000290000006100e20f500028
:100c500007003200002020001800e00001003500ed
:100c600000202400000c71008080eb002d00370074
:100c70000100260001006100810f500008003a00c9
:100c800038009000808f510005003900080078007e
:100c90003a0007008080eb000000e00021003a00ed
:100ca00000c020001800600017003a00a80490005f
:100cb0006002200008004000808f540012003a00bb
:100cc00000202000b2fd070080007800200498007a
:100cd0000000e00005003a0029049800490498004b
:100ce0000900e80030049800060037001860a000f2
:100cf000400498000020b00030049800410c980097
:100d0000510c9800b9020700280090005004980088
:100d1000380090006004980000002600180c700055
:100d20008000eb00010078004f04be0000000600c8
:100d3000820178000400370090cf100005003200d7
:100d40000000e8008301e9000300e000faff3a0038
:100d50000000eb000000060000027800800178002f
:100d600001003700b159780002004200808f510025
:100d7000fcff3a000400780000000600889fbe00d7
:100d80008a1f7800000478000000e0000e003a009e
:100d900000057800898820001900e0000500320075
:100da00019007800f5ff07000000e00001003d0099
:100db0000084eb000a05e8008984e800e80f55008c
:100dc0002a003200f4ff3700100078004d00de00ea
:100dd0006100600024003200a80490000800370081
:100de0000901500038409000890078000000fb00a5
:100df0005d0807000000e000130034008084440018
:100e000048009000808f5400f5ff390028009000c2
:100e1000400498001801780000c020000000610024
:100e200002003200a800900001003700b8009000d6
:100e30004e10de00610060000a003200610498007c
:100e40000004eb00090037002800900040049800df
:100e500060049800500c98001890a0000084eb00eb
:100e600002003700510c9800000478000800780058
:100e70004f0578004f04be00000006000200fa0093
:100e8000f1bf9f00010878000080fa000000060012
:100e9000040037001004e00001003a0000000500e3
:100ea0000000e80090cf1000faff3a0000000600b2
:100eb0000400fa00889fbe008a9fbe008c1f780045
:100ec000000478000106780070089000f800900097
:100ed0000100500088089000010050009808900020
:100ee00001005000a808900001005000b8089000d0
:100ef00001005000c8089000810550000002220047
:100f0000a0bf9f000003230090bf9f000810900027
:100f10000028a30018003a000b00e000160034007f
:100f20008b04780009057800e28f54000200360037
:100f30002a002000020037000900e0000b00340006
:100f4000c80190000a017800ec805700580090001a
:100f500003000100500498000000e00096003200f9
:100f6000680890000a004000600c98008a845400d1
:100f70004240a900ebff3c00780190000200e00035
:100f80000b003400c80190008c00780058009000dd
:100f900003000100500498000000e00086003200c9
:100fa00068089000f800900001004000600c980074
:100fb000880c90000900e000150034000905780055
:100fc000e28f5400020036002a00200002003700a1
:100fd0000900e0000b003400c80190000a0178000d
:100fe000ee80570058009000030001005004980064
:100ff0000000e00070003200680890000a00400025
:10100000600c98008a8454004240a900ebff3c0029
:10101000180990000200e0000b003400c8019000a5
:10102000e800900058009000030001005004980070
:101030000000e0006000320068089000980890000e
:1010400001004000600c9800a80c90000900e0002e
:101050001500340009057800e28f540002003600c4
:101060002a002000020037000900e0000b003400d5
:10107000c80190000a017800ee80570058009000e7
:1010800003000100500498000000e0004a00320014
:10109000680890000a004000600c98008a845400a0
:1010a0004240a900ebff3c00380990000200e0003c
:1010b0000d003400e8009000180890008080400087
:1010c000c8019000580090000300010050049800ef
:1010d0000000e0003800320068089000b808900076
:1010e00001004000600c9800c80c90000900e0006e
:1010f0001500340009057800e28f54000200360024
:101100002a002000020037000900e0000b00340034
:10111000c80190000a017800ee8057005800900046
:1011200003000100500498000000e000220032009b
:10113000680890000a004000600c98008a845400ff
:101140004240a900ebff3c00081090000028a300db
:101150001b0032000b00e000190034008b04780003
:1011600009057800e28f5400020036002a002000b2
:10117000020037000900e0000b003400c8019000b5
:101180000a017800ec80570058009000030001002d
:10119000500498000000e00007003200680890004a
:1011a0000a004000600c98008a8454004240a90064
:1011b00003003400eaff37000080eb000100370035
:1011c0000000eb004f0678004f05be004f04be0044
:1011d0000080fa0000000600889fbe008a1f780089
:1011e000000478000102780082447800030578004a
:1011f00070c6b300804f510021003c0000c0e900e0
:10120000804f5100e5003d0072405000804f51007a
:10121000510132000d003c006c405000804f5100e5
:1012200066013c0000c0e900804f5100db003d003a
:1012300050c2b300804f51005d0132007c4040003d
:10124000804f51005d013a00d400370010c6b30052
:10125000804f5100d100320004003c006940500032
:10126000804f510055013a007500370030c6b30079
:10127000804f5100180032000040e800090037009c
:1012800000c7b300804f51002401320008003c0029
:1012900000c0e900804f5100ea00320068003c00c5
:1012a0006540500080cf540044013a000f003700e1
:1012b00050c7b300804f51006100320063404000ce
:1012c000804f51005e00320065405000804f510059
:1012d0003a013a00200137009180e900010a7800c4
:1012e0007800900011f079003a013700a860900072
:1012f000c0c6b30080cf50000a003a001400780046
:1013000064015000020a78001200be004f88de001f
:10131000cf80de001202be00000378008003780058
:101320001600370010c7b30080cf500003003a000a
:1013300094007800688050000500370014017800a0
:10134000a0c6b30080cf500005003a0068005100ed
:10135000000a78003002be002003be0007003700fc
:101360000280e900000a780010007800000278008e
:10137000cfa2de000503780086037800049cbe003f
:101380000694be00a860900080c6b30080cf5000d5
:101390000e00320020c6b30080cf500005003a0096
:1013a0000400fb00cf80de0001017800820178009c
:1013b0000a00370040c7b30080cf5000030032005e
:1013c0006640400080cf500006003a0004007800dc
:1013d000cf80de000101780082017800009cbe0011
:1013e0000294be003800be002801be00e00f50008d
:1013f000e08f5800e00f5900e08f590003003d00d6
:1014000078009000d1c2b3000a00370008109000a5
:101410000018a3000300320078009000b1c2b300ae
:10142000040037000008a300570032007800900045
:1014300001c2b30001707d000000e80051003700d8
:10144000a8609000c0c6b30080cf500007003a00eb
:101450009400780064805000000a78001002be00fa
:101460000003eb00860378001600370010c7b300b6
:1014700080cf500003003a0094007800688050004c
:101480000500370014017800a0c6b30080cf5000db
:1014900005003a0068005100000a78003002be00e2
:1014a0002003be00070037000280e900000a780030
:1014b00010007800000278000500200006002000df
:1014c00007002000049cbe000694be00a8609000a7
:1014d00080c6b30080cf50000e00320020c6b3009b
:1014e00080cf500005003a000480fb00010020007e
:1014f00002002000030020000a00370040c7b300ac
:1015000080cf5000030032006640400080cf500082
:1015100006003a00040078000100200002002000cc
:1015200003002000009cbe000294be000810900042
:101530000038a300140032003800be002801be00ad
:10154000e00f5000e08f5800e00f5900e08f590085
:101550000d00320080c7b30080cf5400030032007a
:1015600080c5b30080cf540007003a007800900097
:1015700001c3b30001707d008000e80089707d0028
:101580000080e8007004980078009000000045009a
:1015900060049800894078006c003700a8609000d3
:1015a00014017800c0c4b30080cf500005003a0099
:1015b00068005100000a78005001be004000be00e3
:1015c0000400370064005100000a78001000be00db
:1015d000e7090700009cbe000294be00380090009e
:1015e0000000e00003003d0078009000d1c2b3008d
:1015f0000a003700081090000018a3000300320012
:1016000078009000b1c2b300040037000008a300c6
:10161000050032007800900001c2b30001707d0027
:101620000000e80070049800780090000000450079
:101630006004980089407800080078007b0107006a
:1016400066003700a8609000c0c6b30080cf50008d
:10165000250032000a003c006440500080cf50005a
:101660002800320000c0e80080cf50001400320093
:101670006840500080cf500022003a000a00370036
:1016800040c7b30080cf50001e00320066404000cb
:1016900080cf50001b0032006940500080cf5000c6
:1016a00018003a00060037001480e900000a7800ac
:1016b00010007800485c9000084878004700370028
:1016c0001480e900000a7800100278006808900091
:1016d000cf80de000101780082017800009abe0010
:1016e0000292be003d0037001480e900000a780035
:1016f0001001780068089000cf80de000089be00ed
:10170000360037001480e900000a780010007800e5
:10171000680c900008087800300037001180e9005c
:101720008008780010007800cf80de00010178008a
:1017300082017800009cbe000294be0078009000f8
:10174000000045006004980081c7b30008007800dd
:101750007c000700210037001480e900000a7800af
:101760009001780063049800580990000200e0009e
:1017700003003d0003007800250107000a00370040
:101780008000eb000300780069fd0700800078000e
:101790000000e0000300320068009000008050006c
:1017a0000100370058089000100c98000b0037001b
:1017b0007800900002707d000600370078009000ed
:1017c000800045000904e00001003a0059c2b3005e
:1017d000894878000000e800700498000000eb00e1
:1017e0004f0578004f04be0000000600404ae200aa
:1017f00004003a0080c820003603070020c0b30070
:1018000040eab70000000600889fbe000004780090
:101810005afd070080047800180078000068a300d3
:1018200002003200280090003cfb07000000eb00a3
:1018300020049800384090000004e00005003500c6
:101840000000fb00fb0507000000e0000100320083
:101850008084eb00181090000000e00008003200c7
:10186000fd0507000000e000010032008084eb006d
:101870001810900029fb07000000eb0010149800de
:10188000180078000008b200100032000000eb00e1
:1018900081882000910f1400070032000000e8004a
:1018a0008180e800e80f5000faff3a000800780055
:1018b0001afb070013003700000040008188200059
:1018c000010040000008eb00f8ff3700000c780032
:1018d00000c0eb0030449800600220000800400087
:1018e000200498004004980050049800400c980090
:1018f00060049800500c9800700498007600440032
:10190000000c9800090078004f04be00000006009b
:10191000889fbe0089002000688920001800e00030
:101920000200320018007800b7ff07008904e900c0
:101930000884e9000900e000f8ff3a004f04be0007
:10194000000006006f02b000889fbe008a9fbe00a4
:101950008c9fbe008e1f780000067800109f20002c
:1019600080bf9f0080c5b30080cf500007003200c9
:1019700082002000f2b79f00039e200083bf9f00db
:101980007740400080cf50000a00320080c7b3008b
:1019900080cf500005003200a4002000f4b79f0063
:1019a00080c5b30080cf500002003a000001200043
:1019b000f0b79f003c04be002c05be0040c6b3003b
:1019c00080cf5000030032006540400080cf5000bf
:1019d0000b003a00e00f5400e08f5c00e00f5d0068
:1019e000e08f5d0006003d006000b8006011b800a7
:1019f00008045000898458000a0559008b85590055
:101a0000e00f5400e08f5c00e00f5d00e08f5d00b0
:101a100004003a005c0890008d0120000000e00006
:101a20000c003200ffb0970001027800cfa2de0068
:101a300005037800860378000800be000a01be0096
:101a4000750907000fba970064407800d0e79f003f
:101a50007d0120007fb0970000027800cfa2de0059
:101a600005037800860378000800be000a01be0066
:101a700062090700009ebe000296be000d00e9004c
:101a8000e1fc2f008f804000008740001a003700e3
:101a90007fb1970002027800cfa2de000503780034
:101aa000860378003c00be002c01be005e090700e2
:101ab0000205be000004be008d06e900ffb19700dc
:101ac00003027800cfa2de000503780086037800c9
:101ad0000800be000a01be00dc0907003fb2970003
:101ae000000052008fb8970060cf7800089ebe00bb
:101af0000a96be000e07e9003c00be002c01be00a5
:101b0000b0b79f00c1b79f00d2b79f00e3b79f0057
:101b1000e00f5000e08f5800e00f5900e08f5900af
:101b2000020034000d00e000d9ff3c00ffb0970038
:101b3000e88f500010003a000c1090000038a3000d
:101b40000d003200f78f560006003e00e2fc2f0029
:101b50000d014100e2c07f0000c3b30080cf500000
:101b6000050032008d06e90000c3b300e3fc2f003e
:101b70008d81410080f17f0078811600120e98005f
:101b80006c009000e3fc2f008f8141008d804100ac
:101b900071fc07001c0990005c089000800f510048
:101ba00006003d0002005000000e98000c1090004e
:101bb0000040a100001698000f0037000000e00070
:101bc0000d003d000c10900074006000f00f5000fc
:101bd00009003a007c089000fc00900001005000d1
:101be0008c08900001005000020050004240a90003
:101bf00001003400000e98004f0778004f06be0029
:101c00004f05be004f04be006f02b1000000060089
:101c100080007800010037000000e8001004e000b8
:101c2000fdff3a0001005000000006002f04b00044
:101c3000889fbe008a9fbe008c9fbe008e1f7800ca
:101c400080bf9f00014778005001be004000be00e9
:101c5000a09f9f00b19f9f00c29f9f00d39f9f00a6
:101c600010c6b300804f57001500320010c4b300f7
:101c7000804f5700120032000fb9970052089000b1
:101c80000000e00003003d006000200050099800c3
:101c90000b0037000000e00009003a0070c6b300f6
:101ca000804f57000300320070c4b300804f5700cc
:101cb00003003a00100020008fb99700d009980067
:101cc0008fb8970020fb2f000f0040000e02070086
:101cd00000017800e20f500014003a0030002000ac
:101ce0000fba9700100a980010c6b300804f570033
:101cf0000a00320064404000804f57000700320065
:101d00000040e800804f570004003200a1962100f7
:101d10000040e800804f570001003a00e1962100a2
:101d20008fba970065009000150037000000e000b2
:101d300017003400300020008fb8970090089800fa
:101d400010c6b300804f57000a00320064404000c4
:101d5000804f5700070032000040e800804f5700d6
:101d600004003200219721000040e800804f570016
:101d700001003a00619721000fb9970062009000be
:101d8000315878003158780011487800cb0137007d
:101d900014c6b300844f57000300320010c4b300d0
:101da000804f570011003a008fba9700e50190006c
:101db0008300780000c3b30080587800e1029800e7
:101dc00080c7b300844f57000100320080c5b300c4
:101dd000804878000380e8008fb89700e000980002
:101de000710090000080e800f00098000200e00020
:101df00005003a00929f9f00c3fb2f000f81410016
:101e00009f999700a9013700a4972100f4b79f007c
:101e100010c6b300804f57000500320010c4b30055
:101e2000804f5700b0003a00b5982100f5b79f00e9
:101e30008fb897005108900012022000a2b79f00af
:101e40000000e000020035000000e800a0b79f009d
:101e5000afb197008301e800e3b79f006022b800ac
:101e60006033b8002f989700bf9897004f9997005c
:101e7000df999700230907008fb897003102be0051
:101e80002103be000000e00004003d000400be008d
:101e90000601be0003f0a200020037000400be00ed
:101ea0000601be00a09f9f00b19f9f00c29f9f00a0
:101eb000d39f9f001f99970064015100929f9f003c
:101ec000c3fb2f000f8041000048eb00d4fb2f0024
:101ed0000f024200c4b79f0032003700c201200049
:101ee0000300200045fb2f000f804200b2010700d5
:101ef0002f9c9700bf9c97004f9d9700df9d9700f8
:101f00000800be000a01be00030907000006be006b
:101f10006fb1970067015100e2b79f004240a900ee
:101f20000a003400280907000002be000203be00b8
:101f30000800be000a01be0026090700a09f9f00fe
:101f4000b19f9f00c29f9f00d39f9f00cfb197007a
:101f50006780410071002000060037000000e900a2
:101f60006f4866004c6add004466de000c067200b5
:101f7000c4eede00e00f5600e08f5e000500340086
:101f80008100e900e18f4000f4ff3a0001003700d2
:101f90000060eb008100e900fdff3b0067004000ae
:101fa000c0b79f00efb297000500e00009003400c1
:101fb0006022b8006033b8002f989700bf98970050
:101fc0004f999700df999700040907000000e0008f
:101fd000c2ff3c00c0fb2f008f0040004fb19700b4
:101fe000010051000000e900afb19700830f5000dd
:101ff00001003d00a0b79f00afb297000500e000d0
:1020000004003d0085017800d0fb2f000f01400047
:102010002e0037002fb19700800f510005003d00c2
:102020000100410010409000f5c0b300e74f5000a0
:1020300001003c008042eb00d3fb2f000f804100e9
:102040002fb29700040040008000e9000402e9007c
:10205000114178008100e900854f5100fbff3200fb
:102060008401e800afb0970001005000000042007a
:10207000efcf520001003a000248e80025fb2f0094
:102080008f8242006b8142000400e00005003d00a9
:102090008301e8001f98970064004000909f9f0014
:1020a0006a814200030041008000e90003027800d9
:1020b000040037001100fb00ffb29700e0c87a006f
:1020c0008100e9000402e900faff3b008fb89700a5
:1020d000510890000000e000f4003d000300e9001a
:1020e000d0089800f10037002f9c9700bf9c970004
:1020f0004f9d9700df9d97006022b8006033b800c5
:102100000800be000a01be007e0807000000e000d3
:1021100005003d000bf0a200a89f9f00b99f9f0003
:10212000ca9f9f00db9f9f001f989700725927004e
:102130000280b900026a280013002000de030700b5
:10214000e4005000919f9f0015003b00e3801000c9
:10215000c0ff2f00008460000801ea00929f9f00ea
:102160002f989700bf9897004f999700df99970095
:1021700009912000070037000808a300030032007f
:102180003902be002903be00990807000884d10067
:10219000e88444000800e000f7ff3c001c00370022
:1021a0009f9997000300e0001d003400c0ff2f003e
:1021b00000806000909f9f00000478006000b800dd
:1021c0000200200003ff23000991200007003700d0
:1021d0000808a300030032003902be002903be0034
:1021e000830807000884d100e88444000800e00068
:1021f000f7ff3c000002be000203be002f989700cc
:10220000bf9897004f999700df999700ed08070056
:10221000a09f9f00b19f9f00c29f9f00d39f9f00e0
:102220000fba97005409900060c6b300804f570062
:10223000040032006100200060c4b300804f5700ea
:1022400002003a009f9a9700ea8042000101410093
:10225000d2b79f00f30f510002003400300120007c
:10226000d0b79f0000c3b300c07f9f00d1fb2f00f9
:102270008f804000b1b79f00310037000800be00da
:102280000a01be00240807000006be005fb19700e7
:1022900068015100d2b79f004240a9000e003400ef
:1022a000490807000002be000203be000800be008d
:1022b0000a01be00470807006022b80046782d00da
:1022c000771924004a080700a09f9f00b19f9f0034
:1022d000c29f9f00d39f9f00bfb1970068844100b9
:1022e0008900200008003700a20020000300200021
:1022f0000c00be002c0107000804e90004c3b30071
:10230000044c41000006be00e00f5600e08f5e0066
:10231000070034008904e900e18f4400f2ff3a002d
:10232000030037000804e90000c3b300004c780044
:102330008904e900fbff3b0068044400b8b79f0034
:10234000dfb297000500e0000b0034002f9c9700df
:10235000bf9c97004f9d9700df9d97006022b800bb
:102360006033b8000800be000a01be001b08070069
:102370000000e000c1ff3c00c1fb2f000f804000c7
:102380003fb19700000051008001e9001f9a9700bb
:10239000e7004200d5fb2f000f814200010037000b
:1023a0000201e80000c3b300924f1000fcff3200ae
:1023b000d4fb2f000f00420080804000828050003c
:1023c0000080410082015000919f9f008fba9700ca
:1023d000550a900060c6b300804f570003003200da
:1023e00060c4b300804f570002003a008100e8004b
:1023f0000800370050c6b300804f57000400320079
:102400008000eb0050c4b300804f570001003a0039
:102410001100200001024200848f510001003d00a4
:10242000030278000400e00002003d00840178000f
:102430001e003700830f520005003d00e440790084
:1024400097c3b30040c3b30080cf500001003c00ed
:1024500007c3b300040041008001e9008402780052
:102460008502e900134378008301e900874f530098
:10247000fbff32008501e80004005000808042002c
:1024800090c3b30080cf530001003a008648e800b3
:102490000500e00005003d000201e9008301e800bd
:1024a0001f9897000000e800909f9f001f9a9700d8
:1024b0008e4078000fb89700d50007004f077800ce
:1024c0004f06be004f05be004f04be002f04b100f2
:1024d0000000060000017800a02620000000e000b7
:1024e00008003200905180000000e000050032003a
:1024f0000000e9009051880000004000a1518000d8
:1025000002b0780000000600889fbe0080047800ba
:102510006684400000ff2700180060004401de00d0
:10252000f07f2000800f51000e003a00800ceb007d
:10253000180478006f0064001c003a00210090002d
:102540000000e00019003a00110090000000e000d7
:1025500016003a00100020001100e00014003200c4
:10256000120037000200e00005003c000100780086
:10257000db010700000178000000e00008003c00db
:10258000f00028001800600001fe2300010c70001c
:1025900020c02f00800c41000080eb0004003700b9
:1025a000800ceb000000eb00010037002000200051
:1025b0004f04be0000000600889fbe008a1f7800fe
:1025c0008c9fbe00000478000206be00e6044000b6
:1025d000190178000200d0004505de008a0078006d
:1025e000f07f2000800f55000c003a006f00610062
:1025f00068003a00280090000000e00065003a0002
:10260000180090000000e00062003a001000200076
:102610001800e000600032005e0037000a00e000b1
:1026200007003a0008007800ad010700800078003c
:102630000000e000020034000a0078005600370075
:102640006108b9000c0140008d814800e07f200046
:10265000800f5100e08f59000d0034001900e00098
:1026600004003d006000b8000200200003ff2f00be
:10267000030037006000b8000200200003ff2700bd
:10268000009cbe000294be001000200042003700f3
:1026900019027800e00f5100e08f59000800340063
:1026a000f1002800810062000200410000004000ab
:1026b0000000400000004000808c700033003700b4
:1026c00000002800000362006f0062000040a000cc
:1026d000800c780061015100e0815900c0fc2f009e
:1026e000f1ff2f00800f5100818f59000d003d0038
:1026f000860c78000000eb0020049800100498007d
:10270000000c7800240037008880e800110c780065
:10271000640044009008780019087800800ceb00f1
:1027200070014100f00f4100f7ff34008202ea001f
:10273000150032008881e80070821200980078004d
:102740008508de00130078000400dd00008c7000b6
:1027500064014400930078008508de0012007800d0
:102760000400dd0080897000920078008508de009a
:10277000190078000400dd0000897000190078005d
:102780000500de00800c7800990c73000080eb00df
:1027900001003700200020004f06be004f057800e2
:1027a0004f04be00000006000800fa00889fbe002b
:1027b0008a9fbe008c9fbe00e0b79f00f1b79f00cc
:1027c0000206be003c02070080bf9f0091bf9f0031
:1027d0000001be000c00be005f0507006fb197004e
:1027e000ffb1970000055100818559000fbc97008b
:1027f0009fbc97000800be000a01be004f06be0045
:102800004f05be004f04be000080fa000000060025
:10281000ec874700889fbe008a9fbe008c9fbe0049
:102820008e1f7800000478000145780002067800c9
:1028300083047800840678000300e00002003c0076
:10284000190020002ca8210060c6b300804f55005d
:102850000e00320060c4b300804f55000b00320000
:1028600070c6b300804f55000300320070c4b3003f
:10287000804f55009c003a00e48f460080003500f0
:1028800058089000808f56007d003d008d05e800bf
:1028900060c6b300804f55001000320060c4b30022
:1028a000804f55000d003200081090000038a30042
:1028b00004003a0058089000808f540001003d0049
:1028c000590c9800580890000b005000500c9800cc
:1028d00002003b000000eb00500c98000b00e000f1
:1028e00027003c00180990006800900001c3b30065
:1028f000017178008201e800130c980058089000dc
:102900000000e00003003c00081090000038a30025
:102910000500320068009000e1c2b30081717800c8
:102920000280e800100c9800d80890000b00ea0024
:10293000808f500001003d008105ea000b00ea0095
:10294000200c98000b804000500c9800890f50001c
:1029500001003d0080047800390c98006800900068
:102960009808900001004000090178008c00780070
:10297000f9f8070058089000090050001a003700c5
:1029800098089000680090008b8f540018003d005c
:1029900001004000090178008c007800eef8070083
:1029a0001808900009014000120c98000980550099
:1029b000200c9800580890000000e00003003c0044
:1029c000081090000038a30006003200e8009000d4
:1029d000e0c2b30000f17800380890000000e80081
:1029e000300c980058089000400c9800a400370064
:1029f000010040000b0178008c007800d6f8070039
:102a0000180890000b014000120c98008b845400b1
:102a1000580890000000e00003003c0008109000ff
:102a20000038a3000500320068009000e1c2b30046
:102a3000017178000200e800100c9800580890001e
:102a4000890f500001003d0080047800680090006c
:102a500098089000010040008b00460009017800b2
:102a6000bdf807001808900009004000100c9800fd
:102a70005808900009005000200c98008000370092
:102a800070c6b300804f55000300320070c4b3001d
:102a9000804f550014003a0058089000808f540071
:102aa00004003d00081090000038a30001003a0027
:102ab000590c9800580890000000e900500c98004c
:102ac00002003b000000eb00500c980070c6b30001
:102ad000804f550002003a005ac6b3000b00370081
:102ae0005ac4b3000900370010c6b300804f550028
:102af00002003a000ac7b3000400370010c4b30054
:102b0000804f550001003a000ac5b3001809900033
:102b1000680090003c7178008201e800130c980076
:102b20000c027800580890000000e00003003c0010
:102b3000081090000038a30017003200e800900051
:102b4000e0c2b30080f178008280e800110c9800a8
:102b5000580890000000e0000f0034008904e900ec
:102b6000890f500001003d0080047800680090004b
:102b700001004000090178008400780076f8070021
:102b80001808900009004000100c980058089000a8
:102b900009005000200c98006800900098089000f0
:102ba000010040000086e8000a58780080007800a4
:102bb0000d00e00004003500b0c2b300804878008a
:102bc0008c04780004003700d0c2b300804878003d
:102bd0008c0478008d06ea008005eb0078875700aa
:102be00006003700a10020000d007800b5000700a6
:102bf000015f78008b05e800800678000d00e0009a
:102c0000f8ff3c00e18f550009003c0050c6b300be
:102c1000804f55000300320050c4b300804f550070
:102c200003003a0000c3b300005e78008c04780013
:102c30000b00e000040032000b00e900f8805700b0
:102c4000008040000700370000c3b300805c7800bc
:102c5000060037008b05e90001c3b30090dc40009b
:102c60000000e9000b00e000faff3c006800900063
:102c7000980890000100400000805400300c98003b
:102c80000810900074006000f00f50000e003a0031
:102c9000780090009808900001004000a80890007b
:102ca00001004000b808900001004000c8089000f2
:102cb0008100400078089000808f500002003d00a5
:102cc00001005000000c98004f0778004f06be002e
:102cd0004f05be004f04be00cf00b100000006004b
:102ce000881f780000027800e60240001500780096
:102cf00001002800810360006f006000800a7800f6
:102d000012003a00240090000000e0000f003a009a
:102d1000140090000000e0000c003a0016002000b3
:102d20001400e0006300320008003700e4004200b5
:102d3000910a78000480e800900878001408780070
:102d4000020a7800700353000100370016002000cb
:102d5000150178001500e000f4ff32001300370081
:102d60006401420080004000120078004f00de0045
:102d7000808a70008480e8001200780080014000a2
:102d8000110078004f00de00008971009101780089
:102d900003814100140078004f00de0080087100bc
:102da00014047800080a44000603e90015007800be
:102db000ef0f5000eaff36003a0037000481e800c8
:102dc0009400d1009201780003804100000040008f
:102dd00000004000000040000000400000004000f3
:102de00000004000000040000000400000004000e3
:102df00000004000000040000000400000004000d3
:102e000000004000008a7000e40042008301d1000d
:102e10001104780008004400000040000000400059
:102e200000004000000040000000400000004000a2
:102e30000000400000004000000040000000400092
:102e40000000400000004000000040000000400082
:102e5000008971001101d1009501780003804100c3
:102e60000000400000004000000040000000400062
:102e70000000400000004000000040000000400052
:102e80000000400000004000000040000000400042
:102e9000000040000000400080087100950ad10049
:102ea0000603e80015007800ff0f5000c3ff3e0046
:102eb000ef0a6000958a7300060078004f047800de
:102ec0000000060001017800801f78001100090051
:102ed0000200d800800078004f0078000191b9000e
:102ee00082025000010278000400be0000000600cb
:102ef0000c02e20004003d000f42ab000200320071
:102f00000f02ab00feff32000040da00feff370088
:102f1000889fbe0080047800305280000000e000ee
:102f200003003a00550007000000e0000a003500e9
:102f3000305280000900e00002003a0000047800ee
:102f40000600370000047800090040004b0007002d
:102f50000000e00001003d000084eb000800780064
:102f60004f04be00000006000a00fa00800178004d
:102f7000e20f500024003e0040528000e10f50005c
:102f800008003200e02120000000e00005003200cf
:102f90006421200085212000a621200080017800e6
:102fa00004003700c4202000e52020000621200076
:102fb00043212000144090000004e000030035008d
:102fc0008009eb0000002800140a700015409000f2
:102fd0000028a30001003a0015a0a000820178009b
:102fe00006003700154090000008a300fdff3200e6
:102ff0003100fb00000b78008301e9000300e000d2
:10300000f8ff3a000800370030002000b0bf9f00f2
:10301000c3bf9f00d1bf9f00e2bf9f006a805700df
:1030200000c0da006fb99700020078000080fa0053
:10303000000006000a00fa0011002000b1bf9f0046
:10304000c0bf9f006a80570000c0da004fb89700e9
:103050000080fa00000006000a00fa00510020007b
:10306000b1bf9f00c0bf9f006a80570000c0da0058
:103070005fb897000080fa0000000600800078002a
:103080000000e00004003a0040a82100305288000f
:1030900001017800060037000081eb0040b02100fc
:1030a000808f500002003e00315288000001eb008a
:1030b0000200780000000600839f68000100e00025
:1030c00002003d0060001000e08018000300e000f6
:1030d00002003d0060011100e0811900810107003c
:1030e0004f00e00002003b0060001000e08018008c
:1030f00000000600889fbe008a9fbe000105780080
:103100000100e0000400350008003c000000e00081
:10311000200032000500370060001000e080180039
:1031200002003b0001f02c001a0037000004be0032
:103130006011b8006b0920000982cf00020039003d
:103140000882cf000441b000694252000e003200f4
:1031500008003b0082817100610164008904d10094
:103160000884d3008b05e8000442e800f9ff3a0028
:10317000050037000804440089844c008b05e900f1
:103180000442e900fbff3a00660107000af0a700cd
:1031900001f0a0004f05be004f04be000000060075
:1031a000889fbe008a9fbe008c1f78000004be006e
:1031b000820107000478a30026003a006120e100a4
:1031c0002500320009f8a30025003a006420e10040
:1031d00021003200f507b1000508a300020032000b
:1031e00000004000818048006044b80003102000c7
:1031f00002002000000040008180480008054400d3
:1032000089854c000a0541008b8549000a0550005c
:103210008b855800030033000a00be0002047400ce
:10322000838474008301d1000281d300830f710075
:10323000f0ff3a008904d1000884d30060014900fe
:1032400082017800c1adde00fb07b0003501070048
:10325000780137000960a0000800be007501370042
:1032600012022000f2518800f0ff2f00f1ff27002a
:1032700070013700889fbe008a9fbe008c1f7800b7
:10328000730107001002200002003b00f05188008b
:103290005f0137008a0062006408e10002003a0022
:1032a000f0518800670137006108e100fcff32003f
:1032b0000800be0003047800c400070001f0a1006c
:1032c0006b01070008f0a600040037000001be00f3
:1032d00091042400b0fd20003700070009f0a7008a
:1032e00001f0a20053013700889fbe008a9fbe00f4
:1032f0008c1f7800560107004501330003866c00df
:103300006450e100240032006420e1002700320014
:103310006150e100220032006120e1002100320012
:103320008b854200eb07b1000134b800003ab800c9
:103330000804420089844a00013ab8000030b8000d
:103340008880400009014a0004003300000040006a
:1033500081804800020149008b05e900c909dd00b0
:10336000830170000100320013002000c814de0049
:103370004814dd004709de001200b200c808de0074
:1033800008847000e700070001f0a1000cf0a7001e
:1033900001f0a000270137006120e100290132007f
:1033a0000801be000200be00f7ff37006150e100d7
:1033b000fcff3a002301370003f0a200889fbe0003
:1033c0008a9fbe008c1f7800210107001001330086
:1033d0006450e1004f0032006420e10052003200ee
:1033e00003826c0007003b000905d0000306d000f3
:1033f000820f54000c065d0002003900020032000a
:1034000089017800030678008582550004003d009c
:103410000003fd008103fd008502ea008b85420068
:10342000840f720002003b0060001000e080180072
:103430006011b8000005eb007a28e1000a003900ad
:1034400006007800c75ddd00f707b20087807500d1
:103450002d003700828171000a017800610560004b
:103460008180d1000080d3008502e900f9ff3b0094
:10347000060440008784480002003b0060041400fa
:10348000e0841c000988a300070032008a817100d3
:1034900082817100610164008904d1000884d30035
:1034a0008b05e800170037000978a30013003a00e5
:1034b0000b00e000130034008b05e9000804440011
:1034c00089844c000a4474000978a3000d003a0076
:1034d0000b00e000070034008b05e90008044400fd
:1034e00089844c0001003a000b0020000978a300f9
:1034f000f7ff32000001eb0002003700828171000b
:103500000a017800870007000cf0a70001f0a00076
:10351000c80037006420e10002003a00838f6c008d
:10352000c80033000801be000200be00c100370021
:1035300014002000330137000001be009f00070087
:103540000470a70003f0a1006509b1001600320065
:103550000d0035006828e10006003500f0ff2f005f
:10356000f1ff27000300e00013003b0001002800ea
:103570000000050000004000818048008502e9004d
:10358000fcff3a0008003700f88f420002003c00c0
:103590008000eb00000005008100d1000080d30016
:1035a0008502e800fcff3a000300e00002003b0057
:1035b00060001000e080180000000600f4ff2f00fb
:1035c00010013700040020000e013700889fbe0064
:1035d0008a9fbe008c1f78009d0007008c0033007e
:1035e00003866c006450e1002e0032006420e1008c
:1035f000330032006150e1002f0032006120e10011
:103600003100320085855500eb07b000090020002d
:1036100008042000050037000804440089844c0099
:103620000a0031000603430087834b00000153006a
:1036300081815b00f8ff33000203be000800a00098
:103640000804440089844c00f6ff3900c639dd00c7
:103650008301730001003200130020008904d100af
:103660000884d3000998a300050032000800a700d1
:103670000300a0008904d1000884d3008b05e80072
:103680008904d1000884d3000001eb000281d2003c
:103690002400070001f0a1000cf0a70001f0a00039
:1036a000640037006420e100660032000801be00bb
:1036b0000200be00f7ff37006120e1006100320028
:1036c0006000b800f3ff37000000200001f8270079
:1036d000f0ff37000081eb00e50037000001eb0050
:1036e000e30037006022b800060220000000d0008e
:1036f0008180d2000482d2008582d2000000a00026
:103700000202520083825a0003003b000202420080
:1037100083824a000000a1000603e900f3ff3a009b
:103720000000060081002000618055000b003d0074
:103730000b00200061fe2f000100e1001d0034009d
:1037400082817100610164008904d1000884d30082
:103750000000e800faff3a007100200061006400f8
:1037600003007000020060000900320061044400a0
:10377000e0844c000988a500050032008b05e800b4
:103780006808e10002003a008904d1000884d300ef
:10379000f20f20000258e10005003d00c75ddd008a
:1037a000f907b20089807500080078000000060063
:1037b0000bf827008b00780000000500c70ade0028
:1037c000f107b200f50fb20008003200e1cf42006d
:1037d000020032000170a00024000500810f70007b
:1037e000010032000408050044000500810f70004c
:1037f00002003a00140005008502e90000004000c4
:1038000081c04800fcff3b000170a00024000500bf
:103810000200be006450e100050036006420e100b3
:10382000020036000968a30001003a000800be004b
:103830000160a0004f0678004f05be004f04be0097
:1038400000000600f0ff2f00f1ff2700f9ff37000e
:103850000004be00d9ff07000003be000405be003f
:103860000200be00d5ff0700844f7500000006006f
:10387000889fbe008a9fbe008c9fbe000004be00d1
:10388000ceff07000800be00890678006420e10032
:1038900008003900040032000160a000120220007c
:1038a000f25188005300370091fc2300b0fd200046
:1038b0004e0037000006eb0009f0a10003f82300da
:1038c000020020000800be0019ff070006003400b7
:1038d00001f82300000020000801be003bff0700a4
:1038e0000004be002c0020000800be0093e8230066
:1038f000320a23000eff0700120034000801be0048
:10390000d1fd2300703d2b00acfe07000005be007a
:10391000b3f32300f27a26000800be0072fe07000f
:1039200003f8230002002000a3fe07000801be00e8
:10393000a2fe07000a01be0024ff07000004be002b
:103940000c06e8000800be0001f0a1000200200003
:1039500003982300f6fe07000800be00160035009d
:103960000801be0060fe07000005be0032cd2c003d
:1039700043fb230091fe0700809fbe0012692800d0
:1039800003d52b000a00be0057fe0700620f21007e
:1039900013ef2b0089fe07000a01be0052fe07004c
:1039a0004f01be0009ff07000801be004efe0700e0
:1039b0000801be0081fe07000c00e0000b00320091
:1039c0000c10a70001f0a200b2fd200093fc230020
:1039d0006260e1000400320022a9200063f02300ad
:1039e0000c10a70063f8230074fe07000df0a70079
:1039f00001f0a2004f06be004f05be004f04be00fe
:103a000000000600889fbe008a9fbe00841f7800c9
:103a10008fff07004f00780011003300f0ff2f00e8
:103a2000838f6c0006003b00040565000a00a700b8
:103a30000800370009f0a600100020000800370039
:103a4000820f5400838f5c000300390010002000b7
:103a500001003e000000200009f0a7000000ea007d
:103a60004f05be004f04be000000e000000006004d
:103a7000889fbe008a9fbe008c9fbe008205780092
:103a80000004be004dff07000800be006420e100f6
:103a90000700390002003a00f1ff2700f0ff2f0075
:103aa0000160a00012022000f2518800550037008a
:103ab0006120e10003003a000b00a70001f8230099
:103ac0005000370001f0a10002002100936424009f
:103ad00097fe07000800be0004003500b2fd20007c
:103ae000930c24004b0007000004be000005eb000f
:103af0000b00a6004f0dde0001f0a1000004be0087
:103b000032982f0023ea2300f7fd07000001eb00a5
:103b100003f023000b00a70003f8230027fe070093
:103b200085fe07000000a7000a00a20071fd070043
:103b30000b00e000030032000200200003f023002d
:103b40001dfe070001f0a2000006be0002002000da
:103b500093042400e4fd07000801be0017fe0700df
:103b6000809fbe000c00be0022a22a00d3a7230023
:103b7000ddfd07004f01be0010fe07000004be007f
:103b800001f0a100020020000398230068fe070056
:103b90000800be00190035000001be00d2fd07007c
:103ba0000006be00b2c52900e3622300cefd070077
:103bb00022222b00f3942b0000fe07000c01be0014
:103bc000c9fd0700e273280083c02300fbfd070046
:103bd0000c01be00c4fd070042aa2a00a3e22b008c
:103be000f6fd07000c01be00bffd07000801be0086
:103bf000bdfd07000801be00f0fd07000a00a70098
:103c000001f0a2004f06be004f05be004f04be00eb
:103c1000000006000400200000003700889fbe005e
:103c20008a9fbe008c1f78004f26dd0008ff07002a
:103c3000f7fe33006120e100430032006250e100f2
:103c400041003e003e0039006420e1003c003200ab
:103c5000058255000f003b000402e80038003a00de
:103c6000800f5300818f5b00350034000800be00d8
:103c700003f0a10001f0a60003f0a0000cf0a700e3
:103c8000cefd0700ebfe37000603430087834b00a1
:103c90000c4646000005530081855b00020033009e
:103ca0000a03be000c00a0000402e900f6ff3b007e
:103cb000850578000602430087824b0004003a0025
:103cc0006000b80009f0a70001f0a000d9fe37009d
:103cd0000002520081825a000704e0000400330011
:103ce0000603430087834b008b05e900faff37008a
:103cf000090578000604be000203be006011b8008a
:103d000088fe0700e00f5200e08f5a0007003500e0
:103d100002003c000c08a300040032000601be00b3
:103d200003f0a0000cf0a700a4fd07000a856800be
:103d300001f0a1000af0a70001f0a000bdfe3700cd
:103d40000800be00bbfe3700100220000cf0a600e9
:103d5000f0518800bbfe3700020ab900001bb90011
:103d60000200b8008100420081004300000006000c
:103d70008103780091fe07000001be006000b800da
:103d80000478a30013003a006220e10015003e0011
:103d90000d0039008301d1000281d3008180d3005e
:103da0008301d1000281d3008180d3008301d1003f
:103db0000281d3008180d3000538b000c42add0021
:103dc000f300b2008381720007f0a70003f0a000a7
:103dd00000000600f3ff2700f2ff2f006110b9007a
:103de000fbff370003ff2700f7ff3700881f78002d
:103df000000478005001be004000be0000004200f8
:103e000081804a0002014b0083814b00009cbe0070
:103e10000294be000400e1000588e1000690e10084
:103e20000798e10002003100680044001008e80033
:103e30004f04780000000600f4874700889fbe000a
:103e40008a9fbe008c9fbe008e1f78000205be00b8
:103e50000004be00d4b79f00e5b79f00f6b79f00ef
:103e600087bf9f000000eb00c0b79f00b0b79f0066
:103e7000a0b79f0090b79f0080b79f000d0420005f
:103e8000bfb097004fb09700000140000000e00075
:103e900014003d004f08de0000007100c0b79f0015
:103ea000ad00070001003d0012002000b000070037
:103eb00001003d0012002000b500070001003d0098
:103ec00012002000ba000700be000700feff3a0003
:103ed000c2000700c80007000f004000c3ff070032
:103ee000270037004f08de0000067100ccb79f00a6
:103ef0009900070001003d00120020009c0007000f
:103f000001003d0012002000a100070001003d005b
:103f100012002000a6000700aa000700feff3a00da
:103f2000ae0007000fb297009fb297002fb3970023
:103f3000bfb39700b60007000000520081805a000e
:103f400002015b0083815b0080b79f0091b79f00f7
:103f5000a2b79f00b3b79f000007eb00ac000700bb
:103f60000020e10001a8e10002b0e10003b8e10097
:103f7000010031001e0020000e005600c0b79f0057
:103f80004fb297000400e000070035001000200049
:103f9000010020006011b8000804700089847000de
:103fa0000a0571008b8571008d06e900b4ff3a00a7
:103fb0000400e00003003d008f0007000f004000f8
:103fc0008aff07004fa897000000e00004003a00b5
:103fd0000fb497009fb497002fb59700bfb5970017
:103fe000970007004f0778004f06be004f05be0040
:103ff0004f04be004f01b10000000600881f78008a
:1040000018002000881f78008bff07008f87e900c9
:104010004f04780000000600801feb0086ff0700b9
:104020008f87e90000000600889fbe008a9fbe00bf
:104030008c1f78007b00070005003d002f00070063
:1040400007003d003d0007000006eb0004003700bc
:104050003f00070002003d00300007001c00200068
:1040600077000700e5ff07000203be000002be0064
:104070000c00e00001003200280007000400be0030
:104080000601be004f0678004f05be004f04be007b
:1040900000000600889fbe008a9fbe008c1f78002b
:1040a0006000070003003d001400070006003d000b
:1040b000040037002600070003003d006000b80040
:1040c0006011b8001d0007005d000700d2ff070067
:1040d0000203be000002be000c00e000010032003e
:1040e0000e0007000400be000601be004f06780067
:1040f0004f05be004f04be00000006006000b8007f
:104100006011b80008045000898458000a0559005d
:104110008b8559001c002000030037006000b800a8
:104120006011b80005003700e00f5200e08f5a0020
:10413000e00f5b00e08f5b0000000600040250000f
:104140008582580006035900878359000000060045
:104150000006eb00f4ff37000180400090b79f009d
:104160000001eb008fb097000100e00000000600a6
:104170000200700090b79f000180400080b79f0050
:104180000001eb00ffa897000100e000000006001e
:104190000200700080b79f0001804000f0af9f00d8
:1041a0000001eb00efa897000100e000000006000e
:1041b00002007000f0af9f00018240002000070065
:1041c000f50305008301d1000281d3008180d30073
:1041d0000080d3008502e9000000060000027200a2
:1041e000e4af9f000804440089844c000a054d0098
:1041f0008b854d00000006003fb29700cfb29700bc
:104200005fb39700efb3970000fe2f000000060099
:104210003fb09700cfb097005fb19700efb1970024
:10422000000006000205be000004be00e00f5000c2
:10423000e08f5800e00f5900e08f590000000600a1
:104240000800be000a01be0000000600889fbe00f4
:104250008a9fbe008c1f78000205be000004be00cd
:104260000006eb00e00f5000e08f5800e00f59000f
:10427000e08f590007003d006000b8006011b800f1
:1042800008045000898458000a0559008b8559009c
:104290001c002000e00f5200e08f5a00e00f5b008e
:1042a000e08f5b0002003d000f0007000c00a20041
:1042b0000800be000a01be001c0107000203be0088
:1042c0000002be000c00e000010032000600070002
:1042d0000400be000601be004f0678004f05be0078
:1042e0004f04be00000006006000b8006011b80076
:1042f0000402500085825800060359008783590044
:10430000000006008f1fd1002a0107008f87e900f7
:104310000000e000000006001400fa00889fbe00c4
:104320008a9fbe008c9fbe000004be000205be0036
:10433000680047000a90be000890be0046010700d2
:104340000070a7000bf0a100304320009e029000f7
:1043500080825200b0fe2f000028e10011003d00d5
:10436000b0fc2f000028e100150034001e09900069
:104370008e0890007e0090000501b0000201d1007f
:104380008180d3000080d3008502e800fbff3a0063
:104390000b00e0006b013b0060001000e0801800a3
:1043a00068013700f0ff2f00f1ff27000b00e0004d
:1043b00064013b000100280000002000610137007b
:1043c0006000b8005f0137004f89de00820178008d
:1043d0006101370007f0a20096013700809feb00d3
:1043e000f40007008f87e9000000e00000000600ed
:1043f0002800fa00889fbe008a9fbe008c9fbe00e6
:1044000003866b003b0107000028a30064003a000c
:104410000128a30067003a000008a30062003a00e8
:104420000108a30065003a001e009000be0890003d
:1044300081064000ed3fb100f4805700ee0190008e
:10444000111ab8008e099000311bb8009e09900027
:10445000311cb800511db800f48557004600070014
:10446000fe0190003a0007008b85e8003e0007003f
:104470008e09900040000700ee0190003400070014
:104480008b85e800380007008e0990004000070087
:104490009e0990001b18b800890440000a85480056
:1044a000fe019000340007008b85e800380007000b
:1044b000ee019000300007008e0990001b18b80034
:1044c000890440000a8548000a98a30008003a00c1
:1044d0000402420085824a0006034b0087834b009a
:1044e00008044c0089844c000a054d008d06e90043
:1044f00084827200850273004c3add0085027200ee
:104500000100320015002000443ade001400b20021
:104510004538de00cb45dd000b007000c540de00f5
:10452000cb4ddd008b8070004549de00cb55dd00b2
:104530000b017100c551de000d037800ba010700c0
:1045400003f0a1000cf0a70003f0a000fd0037006d
:104550001b18b8008502400006834800e0834b002a
:1045600060044c00070037001b18b8000603400029
:1045700087834800faff37001b18b8008703400004
:1045800008844800e0844c0060054d0000000600ef
:104590001b18b8000804400089844800faff37005f
:1045a0000108a300e4003a005800be005801be0014
:1045b000e3ff37000008a300df003a000904780099
:1045c000f9ff37002800fa00889fbe008a9fbe00ce
:1045d0008c9fbe0003866b00c60007006400e100ec
:1045e000440032006408e1004a0032006100e1004a
:1045f000460032006108e10049003200ec06470045
:104600006000b8003d02be003d03be00f4865700c6
:104610006011b8003d04be003d05be007d032000d2
:104620000b0037000000a0008d06e90013003200e7
:104630000402420085824a0006034b0087834b0038
:104640000000400081804800020149008381490048
:104650000802520089825a000a035b008b835b00c8
:10466000f0ff3b000802420089824a000a034b0027
:104670008b834b008d06e900edff3a0084827200c7
:1046800086827200f707b200878272000100320052
:10469000150020001e0490003e0b900006035400fd
:1046a000e63fb0000368a300070032000000a70047
:1046b0000500a0008301d1000281d3008180d300d6
:1046c0000080d3000603e8008301d1000281d300fb
:1046d0008180d3000080d3000002eb000482d2006e
:1046e0005101070003f0a1000cf0a70003f0a000a7
:1046f00094003700640247006408e1008e00320035
:104700003400be003401be00f6ff37006108e1004e
:10471000890032006011b8006000b800f1ff370076
:1047200003ff270002002000fbff3700889fbe0028
:104730008a9fbe008c9fbe000404b8000506b80026
:104740008904460060854e000606b8000a0546004a
:10475000e0854e000706b8008b054600040eb80041
:10476000890446000a854e00e0854d00050eb8001c
:104770000a0546008b854e00060eb8008b054600e4
:104780000416b8000a0546008b854e000516b800d1
:104790008b054600041eb8008b0546000800be00cd
:1047a0000a01be004f06be004f05be004f04be000a
:1047b00000000600889fbe008a9fbe008c9fbe003e
:1047c0000404be000605be00809fbe00829fbe009e
:1047d00041010700040678000800be000a01be007f
:1047e0003d010700840678004f03be004f02be0063
:1047f0008d4f76007fb0970013003300f0ff2f003d
:104800008b8f6b0006003b000d0666000c00a700b6
:104810000a00370007f0a600100020000a00370049
:10482000880f5200898f5a008a0f5b008b8f5b00c4
:10483000030039001000200001003e0000002000ad
:1048400007f0a7000000ea004f06be004f05be00bb
:104850004f04be0000000600800078005002be0039
:104860005003be004439de00f700b200f37f2000a1
:1048700003016100090032000218e10016003a004d
:10488000850172008301730083817300000820009a
:1048900015003a0040002000130037008501720027
:1048a000830173008381730005003a0004a8be00f1
:1048b00006a8be00100020000b0037000201e9002e
:1048c0000402420085824a0006034b0087834b00a6
:1048d0000748a300f9ff32000740a00004a8be006b
:1048e00006a8be00200020008000980092009800da
:1048f00000000600680447000294be000094be0059
:10490000fc0447008694be008494be000900780031
:10491000d1ff070008007800cfff0700990078005a
:10492000814f70000b003b000800be00fc00070038
:104930004f00b10003003700f3ff2700f2ff2f0004
:104940006110b9004f06be004f05be004f04be0007
:104950000080fa0000000600889fbe0083047800f3
:104960000300e0002c00350003003c0000827000d2
:10497000040271002600320036432000c5002000ea
:104980008383cf000a0039000541b1008283cf0044
:10499000070039000541b1008183cf0004003900d0
:1049a0000541b1008083cf00010039000541b1000d
:1049b00085c353006022b800120032000a003b0099
:1049c00084827200610260008301d1000281d30001
:1049d0008180d3000080d3000603e8008743e8000d
:1049e000f7ff3a00070037000000400081804800d0
:1049f00002014900838149000603e9008743e90079
:104a0000f9ff3a008800070009f0a70003f0a000b2
:104a10004f04be000000060060001000e080180097
:104a200060011900e0811900d3ff3b00033e2c0018
:104a3000f7ff37002800fa00889fbe008a9fbe005b
:104a40008c9fbe0007067800878669000c003b003b
:104a5000030478008704780008f0a10009f0a100a1
:104a6000840f5000858f5800860f5900890f5c0015
:104a7000030033000cf0a20001003a000cf0a1008a
:104a80009cff07006400e1005f00320078014700ee
:104a90006408e100610032006c0147007485570032
:104aa0003200be001201be003a04be001a05be006c
:104ab0001e039000be0a90008503530006003d00cf
:104ac0000004fd008104fd000205fd008305fd00da
:104ad0008703ea00050378000df8a3000400320004
:104ae00060041400e0841c0060051d00e0851d00ca
:104af0006022b8007d0320000d38e1008006eb0045
:104b00000b0039004433dd00f300b2008301730071
:104b100039003700848272000d027800e1066400db
:104b20008b85d1000a85d3008984d3000884d30003
:104b30008703e900f7ff3b00080040008980480038
:104b40000a0149008b81490004003b00600010000d
:104b5000e080180060011900e08119000358a300eb
:104b6000090032008d82720084827200610260004e
:104b70008301d1000281d3008180d3000080d30063
:104b80000603e8001b0037000348a30017003a00a3
:104b90000600e000170034000603e9000d00a30042
:104ba00000004800818048000201490083814900db
:104bb0000348a3000f003a000600e000090034009b
:104bc0000603e9000000400081804800020149001e
:104bd0008381490001003a000003eb000348a30071
:104be000f5ff32006022b8000200370084827200b4
:104bf000618266000c00070003f0a1000cf0a70022
:104c000003f0a0004fff3700640147006408e10093
:104c100002003a000df8a30047ff3a003200be0040
:104c20001201be0047ff3700180020005700200087
:104c3000080453000d003d000600200097fc2f00e3
:104c40000740e1001e0034008482720061026000af
:104c50008301d1000281d3008180d3000080d30082
:104c60000804e800f8ff3a004700200061046000f3
:104c700005047400040464000d003200610040006b
:104c8000e080480060014900e081490003b8a500c8
:104c9000070032000603e8006538e10004003a002e
:104ca0008301d1000281d3008180d3000080d30032
:104cb000f87f20000830e100030035000803780089
:104cc0006000b8006011b8004433dd00f300b200aa
:104cd000830173000000060005ff270005826100c4
:104ce000070032000428e100010032002400050022
:104cf0000600070001003a00440005000408050012
:104d000002000700f9ff3a00140005006f826100fd
:104d100081027000850271008502720000000600a9
:104d2000e48240001078a3000700320064024000d3
:104d30001178a3003400be001401be00040032004c
:104d40000330a700000006003500be001501be00bc
:104d50000330a000000006000000fa0036510200f7
:104d600000000000e8420200000000000040eb00ec
:104d70007e330200000000007044020000000000ca
:104d8000c629020000000000883b0200000000006d
:104d90000071220001002000da460200000000003d
:104da000f9ff37000400fa00883b02000000000011
:104db00040c7bf00614060000004e0000200320014
:104dc0004007a9000000fe0036510200000000006c
:104dd0000040eb007e3302000000000014290200b6
:104de00000000000e84202000000000070440200e1
:104df00000000000c629020000000000fc4602007e
:104e000000000000000f78001e00780010079800d6
:104e10001e009000e30f5000220032001e009000a0
:104e2000e30f50000a003c001e009000e10f50000c
:104e3000160032001e009000e10f500016003c00ea
:104e40001e0090000000e0000e0032002600370037
:104e50001e009000e50f5000180032001e00900068
:104e6000e50f5000120035001e009000e60f5000c4
:104e7000150032001e009000e70f500016003200af
:104e800019003700b4ff070018003700ae6c0200ad
:104e90000000000015003700a24e020000000000d4
:104ea00012003700d64c0200000000000f0037004f
:104eb000ac500200000000000c003700ea7c020049
:104ec00000000000090037000000eb0050760200ef
:104ed000000000000500370010002000507602009e
:104ee00000000000010037009bff07000000eb00fe
:104ef0000080fa000000060000a0fe0086a0a900c5
:104f00001421ef0000000000e1a280000246210011
:104f100013002000321ce1000500320008003500bb
:104f2000000000000000000000000000f9ff370052
:104f3000a01680004800de0080587800f5ff37009a
:104f4000e1a28800382aec00c05180003a0ae30050
:104f500003003a0010002000f0a288001fe1a90021
:104f60000080fe0000400600811f7800801f78004e
:104f7000f0ff2700c0128800003020000000b300be
:104f8000d0128800de02a90000000000e002a900a3
:104f90009001090000000000e002a80041e2a80022
:104fa0004602ae00feff3700f0ff2700c012880067
:104fb000004020003001b300d01288004602ae004d
:104fc000feff3700f0ff2700c0128800001020000d
:104fd0000030a0000040a000d01288004602ae00c1
:104fe000feff3700f0ff2700c012880000202000dd
:104ff000d01288004602ae00feff3700f0ff270007
:10500000c0128800006020000010a000d0128800ac
:105010004602ae00feff3700f0ff2700c0128800f6
:1050200000702000f005b300d01288004602ae00e8
:10503000feff370001f02000301280000100600008
:105040000000e000fcff3a00301280000100600028
:105050000000e000fcff3200301280000100600020
:105060000000e000fcff3a00301280000100600008
:105070000000e000fcff32004662ae000200370094
:10508000801280009012800041e2a900f01e2000f2
:10509000101288004362a8004342a8008920a9009a
:1050a000a8c0a800a8a0a900a880a9009120a800d5
:1050b00041e2a8004f007800cf0078000000060011
:1050c000801f78004022ef004222ef004422ef00d0
:1050d0004822ef004c22ef00c6e2a800e5a2a9009a
:1050e000e582a800e5e2a900e5c2a9004002a90006
:1050f0004022a90040a2a9004122a90040c2a80064
:105100004102a9004142a900f00e200010128800bf
:105110004362a9004342a80030002000201288000a
:105120004c02a8004802a8008920a9009120a900eb
:1051300041e2a9004f007800000006008920a90084
:10514000809fbe00829fbe0080128000901280006f
:10515000a0128000b01280001e0ae20026003a0071
:10516000220ae200240032003400f8004400f80073
:105170004440a80020518000a0018800e151800037
:105180000629020000000000110078000000a100c4
:10519000c0128800062902000000000011007800fb
:1051a0000000a100d01288000629020000000000c3
:1051b000110078000000a100e0128800062902001a
:1051c00000000000110078000000a100f01288002b
:1051d00022aaed0022aaed00e1518800a101800081
:1051e000215188004400f9003400f9004f01be004d
:1051f0004f00be0000400600202aef001eaaef006c
:105200004f01be004f00be0000400600e28040009b
:1052100004003900a1018000e1804000a101880064
:1052200001002800000006000200fa00e202a800c7
:105230000000eb00000f7800010037001e0fe800af
:10524000f07022009e0f1000fcff34006028020066
:1052500000000000b4270200000000000080fa00f7
:10526000000006000400fa00000f78001107980003
:1052700020aaef001e2aef009e0090001e0078007a
:1052800050290200000000000080fa000000060023
:105290000000fa00e202a9000080fa000000060007
:1052a000811f7800821f78004100dd000300370075
:1052b0004f017800cf0078000000060011518800ef
:1052c0000001eb00a10b2800810040000300390021
:1052d0000200280082804000120020004400f800f4
:1052e0003400f8004440a8001000200002004000f4
:1052f000a001880000000000b829020000000000a2
:10530000110078000000a100c0128800b829020036
:1053100000000000110078000000a100d0128800f9
:10532000b829020000000000110078000000a10070
:10533000e0128800b8290200000000001100780087
:105340000000a100f012880022aaed0022aaed00c0
:10535000e1518800a1018000215188003400f9004a
:10536000000000004400f9008920a900d0ff3700a8
:10537000e280400004003900a1018000e18040008b
:10538000a101880001002800000006000000fa00ca
:105390000000eb0080088800011120009140780097
:1053a000f0ccb30000c0600010e1b7000000eb00db
:1053b00030088800205c20006008880084c0a900b4
:1053c0008cc0a80011e1a8000080fa0000000600cf
:1053d0000000fa0011e1a9000080fa0000000600b8
:1053e0000800fa001007980021079800a0d3800059
:1053f000000f78000b0037001e007800b00090000e
:105400001e009000808f500003003a001100200021
:1054100031079800210037001e007800c00090007e
:10542000010f78001e00e000f3ff3a00a00020000a
:10543000c801020000000000000f78001e00e0001c
:1054400003003a00100020006a0202000000000081
:10545000ae0090001e007800010878009e007800e1
:105460000000eb00900098009e00780010c0b30090
:10547000c04098001e0078009e0090003100980007
:10548000a1d380001e007800410098001e00780023
:10549000a0d3880011002000310798003e00900042
:1054a0000080fa00000006000800fa0020079800bb
:1054b0000000eb0010079800a0d38000000f7800d8
:1054c0001b0037001e007800b00090002e009000f6
:1054d000808f500011003a001e0090000000e00094
:1054e000050032001e007800c00090001e009000f1
:1054f00041009800030037001e0078004000900033
:10550000a0d388001e0078008e0202000000000078
:105510001100200031079800090037001e007800b4
:10552000100798001e007800c0009000010f78005e
:105530001e00e000e3ff3a00200020003007980042
:105540003e0090000080fa00000006000800fa000b
:105550001007980021079800a0d38000000f780062
:105560000e0037001e007800b00090001e00900072
:10557000808f500006003a00ae0090001e007800b8
:10558000010878001100200031079800070037005b
:105590001e007800c0009000010f78001e00e0009f
:1055a000f0ff3a0020002000300798003e009000f5
:1055b0000080fa00000006000600fa0010079800bc
:1055c000a0d38000000f78000e0037001e00780086
:1055d000b00090001e009000808f500006003a003e
:1055e0009e0078000000eb00900098001100200061
:1055f00021079800070037001e007800c0009000c7
:10560000010f78001e00e000f0ff3a0020002000ab
:10561000200798002e0090000080fa00000006008d
:105620000600fa0010079800a0d38000000f780051
:105630000e0037001e007800b00090001e009000a1
:10564000808f500006003a009e0078000040eb007a
:10565000c040980011002000210798000700370083
:105660001e007800c0009000010f78001e00e000ce
:10567000f0ff3a0020002000200798002e00900044
:105680000080fa00000006000600fa0010079800eb
:10569000a0d38000000f78000e0037001e007800b5
:1056a000b00090001e009000808f500006003a006d
:1056b0009e00780010c0b300c04098001100200088
:1056c00021079800070037001e007800c0009000f6
:1056d000010f78001e00e000f0ff3a0020002000db
:1056e000200798002e0090000080fa0000000600bd
:1056f0003600f800809fbe00829fbe00849fbe00df
:10570000869fbe003400f80010c0b300a0018800de
:105710000200fa00a0d38000000f780084c0a90026
:105720001e0037001e00780040409000e14f5000fe
:1057300017003a001e007800100078000000e0001a
:10574000130032001e007800100090008000e80076
:105750001e007800110098001e00780010009000d4
:10576000800078001e007800100078000000e9003a
:10577000808f5000060036001e0078003000900038
:10578000000001009e0078000000eb0090009800ef
:105790001e007800c0009000010f78001e00e0009d
:1057a000e0ff3a000080fa003400f9004f03be0029
:1057b0004f02be004f01be004f00be003600f90090
:1057c000004006000000fa00dec2a8008200a80027
:1057d0008400a9008c00a8000080fa0000000600e8
:1057e0003600f800809fbe00829fbe00849fbe00ee
:1057f000869fbe003400f80010c0b300a0018800ee
:105800000000fa008c00a9005101200020c32200f2
:10581000f029020000000000d1a521000040eb00ab
:1058200080487800d0a5210090407800c0a52100d4
:1058300001487800c0a5210090407800e0a5210033
:10584000014878000080fa003400f9004f03be00e0
:105850004f02be004f01be004f00be003600f900ef
:10586000004006000200fa0050d38000e10f400023
:105870001e003a00e0c2bf000044b2000004e00095
:10588000080032008c00a8008400a90020c3220078
:10589000542a0200000000000080eb0050d3880072
:1058a0006d0037009100200020c32200a62a0200cc
:1058b00000000000d1a521000040eb0080487800e6
:1058c000d0a5210090407800c0a5210001487800b3
:1058d000c0a5210090407800e0a521000148780093
:1058e0000000eb0050d388005b00370050d38000ed
:1058f000e10f500010003a00e0c2bf000080fb0042
:105900004600de006140600080407800e0a5210094
:10591000014878002101200020c32200a62a0200ad
:1059200000000000110020001000200032380200aa
:10593000000000004800370050d38000e10f500005
:105940001500340050d38000e60f500012003c00d8
:10595000e0c2bf000080fb004600de006140600046
:10596000104798001e4090008080fb0050d38000bc
:10597000660010000008dd0010479800c0a5210057
:10598000904078001e40900080c04000c0a52100db
:10599000014878003000370050d38000e60f5000f7
:1059a0001300340050d38000ec0f500010003c0076
:1059b000e0c2bf000080fb004600de0061406000e6
:1059c000004f78009e80fb0050d380006c001000d8
:1059d0000008dd00004f7800d0a5210010407800bd
:1059e0009e404000d0a52100014878001a003700f1
:1059f00050d38000ed0f500017003a008000eb00fc
:105a00001000200032380200000000008c00a800c6
:105a10008400a90020c32200542a020000000000d4
:105a20000080eb0050d38800e0a521009040780072
:105a300080a6210001487800c0a521009040780090
:105a4000f0a5210001487800d0a521009040780001
:105a500000a621000148780050d38000e10f4000eb
:105a60000300320050d380000000e80050d38800cb
:105a70000080fa00000006000000fa0080a6210065
:105a8000104078000080fb000080fa000000060053
:105a90000000fa00f0a52100104078000080fb0013
:105aa0000080fa00000006000000fa0000a62100b5
:105ab000104078000080fb000080fa000000060023
:105ac0000600fa00000f78001e00780020079800fa
:105ad0002e009000e10f5000130032002e009000c5
:105ae000e10f5000040039002e009000e20f50003a
:105af00019003200240037009e00780072d3800025
:105b000003052100200320000088b90002004000a6
:105b100000004000e080790030cf8000808050009d
:105b2000110798001a0037009e00780072d3800099
:105b300003052100200320000088b9000200400076
:105b400000004000e080790040cf8000808050005d
:105b5000110798000e0037009e00780072d3800075
:105b600003052100200320000088b9000200400046
:105b700000004000e0807900b0d3800080805000b9
:105b80001107980002003700a02920001007980094
:105b90001e0090000080fa00000006000c00fa00d1
:105ba00040079800510798006000b800200798004f
:105bb000310798004e009000e20f50002f003e0089
:105bc0005e0090000000e0002c003200de0090003b
:105bd00020032000808f500028003e000000eb00d2
:105be0001007980071d380005e0090000080500084
:105bf0003003b00022032000110009000280d80009
:105c00008000fd00000f780018003700ce009000e3
:105c10001e01780003052100200320000088b90040
:105c20000200400000004000608079006101b9007e
:105c30002e009000be0090000000410081804900cd
:105c400020079800310798001e0090000000e8002f
:105c5000100798001e00e800220320001100090030
:105c60000200d8008000fd00000f78009e00900028
:105c70005e009000808f5000e4ff39005e009000cd
:105c80006101b8002e009000be0090005c18020078
:105c9000000000000080fa00000006000000fa008a
:105ca000510020000000eb00bcff070080007800de
:105cb00030cf80000080500050cf8800510020007d
:105cc00010002000b5ff07008000780040cf800062
