:020000040000fa
:080000000c01040000000000e7
:020000040000fa
:10020000c21c0400000000005c210400000000008b
:1002100040220400000000008f1f2100807922008e
:100220000001880000000000050007000c00070026
:10023000f6090200000000000040da000000fe00a5
:100240004440a900000020000000e000030032004c
:1002500000002000a00188004440a8000000060023
:1002600020af2b0001002000160037006200400084
:10027000e0804800910188009001ba0062004000cf
:10028000e0804800910188009002ba0062004000be
:10029000e08048000002eb006028e10005003a0021
:1002a0008301e90007003300038009000059eb00d7
:1002b000040037006128e100010032000082eb00f9
:1002c00005000700910188001001ba000200e0005b
:1002d000e6ff3a00000005009101880080027800e6
:1002e00062004000e08048003559ba008301e9000f
:1002f000080032002559ba008301e90005003200e8
:100300000400e000f4ff320015d9ba008301e900cf
:10031000f1ff3a0000000600889fbe00e3044000a1
:100320000900a100808f540049003600e38f54007b
:1003300001003e0049002000f07e80000000e00047
:1003400002003200800078000c00370001fe20001f
:1003500003003700908f5400230036008080e800af
:10036000110078001100e000faff3a000f0037009a
:10037000928f54001c0036008280e8001101780042
:100380001100e000faff3a001001780001fe2000a1
:1003900003003700908f5400130036008080e8007f
:1003a00011007800820f5000faff3a00e87e8000ca
:1003b000890f54000100310009047800080078001a
:1003c0006b0007000000e00004003a00890f5400b1
:1003d0001f0032000804d100f5ff3700081878002c
:1003e00030000700d4ff3700110178009201780037
:1003f00064805100890f500003003100120090000a
:100400008008780007003700090041008008780064
:1004100092019000130098001100780012881400d7
:1004200009097800910178001100e0000400320011
:10043000130090008380e8000000e00001003a0013
:100440008000eb00f17e88000280e80001003700a8
:100450000000eb004f04be0000000600000478001e
:100460000600370082004100207f8000e100780014
:100470000200e800107f880001000100127f800068
:10048000307f8000800f5100f6ff390020f52000fa
:10049000207f880020022000307f8800080078003c
:1004a0003a0007000000e000300032008080e900e0
:1004b00091027800e38f52002c0036000508a3005b
:1004c0002a003a00027f80000200e00002003200b1
:1004d000828f50000400310002087800017f8800fc
:1004e0001600370003017800920190000300e0003d
:1004f00002003200818f5100faff390012027800a9
:1005000004004100808f500018003900810f500016
:1005100003003a0005094200820078000700370016
:100520000300e0000300320005804000808f51008e
:100530000e003900930098001101980011019000fd
:100540000200e0000900320011804000820f5000dc
:1005500006003a00de2fef00110090001101780034
:1005600090084100100090009000980000000600e4
:100570000000e000030034000c000700e10f400021
:1005800001003a000000eb00000006000c02e2004f
:1005900004003d000f42ab00020032000f02ab002e
:1005a000feff32000040da00feff3700889fbe00e9
:1005b00080047800b07f80000000e00003003a0073
:1005c000100007000000e0000a003500b07f800046
:1005d0000900e00002003a0000047800060037003d
:1005e0000004780009004000060007000000e00059
:1005f00001003d000084eb00080078004f04be00bd
:1006000000000600800078000000e00004003a00ce
:1006100080ff2000b07f88000101780006003700cd
:100620000081eb00801f2100808f500002003e00ff
:10063000b17f88000001eb00020078000000060096
:10064000839f68000100e00002003d006000100090
:10065000e08018000300e00002003d00600111008e
:10066000e08119007d0107004f00e00002003b001f
:1006700060001000e080180000000600889fbe00a7
:100680008a9fbe00010578000100e00004003500eb
:1006900008003c000000e0002000320005003700a8
:1006a00060001000e080180002003b0001f02c0008
:1006b0001a0037000004be006011b8006b0920006a
:1006c0000982cf00020039000882cf000441b00047
:1006d000694252000e00320008003b008281710026
:1006e000610164008904d1000884d3008b05e8000f
:1006f0000442e800f9ff3a0005003700080444000e
:1007000089844c008b05e9000442e900fbff3a00b4
:10071000620107000af0a70001f0a0004f05be002b
:100720004f04be0000000600889fbe008a9fbe00e6
:100730008c1f78000004be007e0107000478a3002f
:1007400026003a006120e1002500320009f8a300ec
:1007500025003a006420e10021003200f507b100d5
:100760000508a3000200320000004000818048001c
:100770006044b80003102000020020000000400088
:10078000818048000805440089854c000a05410025
:100790008b8549000a0550008b8558000300330003
:1007a0000a00be0002047400838474008301d10037
:1007b0000281d300830f7100f0ff3a008904d10059
:1007c0000884d3006001490082017800c1adde00d9
:1007d000fb07b00031010700740137000960a00079
:1007e0000800be007101370012022000a27f8800bd
:1007f000f0ff2f00f1ff27006c013700889fbe003b
:100800008a9fbe008c1f78006f0107001002200035
:1008100002003b00a07f88005b0137008a00620075
:100820006408e10002003a00a07f880063013700fd
:100830006108e100fcff32000800be0003047800fc
:10084000c400070001f0a1006701070008f0a6003e
:10085000040037000001be0091042400b0fd200018
:100860003700070009f0a70001f0a2004f01370090
:10087000889fbe008a9fbe008c1f7800520107002f
:100880004101330003866c006450e1002400320013
:100890006420e100270032006150e10022003200b4
:1008a0006120e100210032008b854200eb07b1009e
:1008b0000134b800003ab8000804420089844a00b4
:1008c000013ab8000030b8008880400009014a00b1
:1008d000040033000000400081804800020149000c
:1008e0008b05e900c909dd008301700001003200b9
:1008f00013002000c814de004814dd004709de00a4
:100900001200b200c808de0008847000e30007008f
:1009100001f0a1000cf0a70001f0a00023013700b6
:100920006120e100250132000801be000200be0086
:10093000f7ff37006150e100fcff3a001f0137006c
:1009400003f0a200889fbe008a9fbe008c1f780023
:100950001d0107000c0133006450e1004f0032001c
:100960006420e1005200320003826c0007003b006b
:100970000905d0000306d000820f54000c065d006c
:100980000200390002003200890178000306780075
:100990008582550004003d000003fd008103fd0039
:1009a0008502ea008b854200840f720002003b0042
:1009b00060001000e08018006011b8000005eb0036
:1009c0007a28e1000a00390006007800c75ddd00e2
:1009d000f707b200878075002d0037008281710013
:1009e0000a017800610560008180d1000080d30099
:1009f0008502e900f9ff3b000604400087844800b7
:100a000002003b0060041400e0841c000988a3007d
:100a1000070032008a8171008281710061016400e7
:100a20008904d1000884d3008b05e8001700370043
:100a30000978a30013003a000b00e0001300340013
:100a40008b05e9000804440089844c000a447400c2
:100a50000978a3000d003a000b00e0000700340005
:100a60008b05e9000804440089844c0001003a0029
:100a70000b0020000978a300f7ff32000001eb0013
:100a800002003700828171000a01780083000700ac
:100a90000cf0a70001f0a000c40037006420e100c2
:100aa00002003a00838f6c00c40033000801be00ce
:100ab0000200be00bd003700140020002f013700e7
:100ac0000001be009b0007000470a70003f0a10016
:100ad0006509b100160032000d0035006828e100fc
:100ae00006003500f0ff2f00f1ff27000300e000b3
:100af00013003b000100280000000500000040003a
:100b0000818048008502e900fcff3a0008003700b8
:100b1000f88f420002003c008000eb00000005005e
:100b20008100d1000080d3008502e800fcff3a007c
:100b30000300e00002003b0060001000e0801800ad
:100b400000000600f4ff2f000c0137000400200015
:100b50000a013700889fbe008a9fbe008c1f780064
:100b6000990007008800330003866c006450e100a0
:100b70002e0032006420e100330032006150e100b9
:100b80002f0032006120e1003100320085855500e0
:100b9000eb07b00009002000080420000500370022
:100ba0000804440089844c000a0031000603430015
:100bb00087834b000001530081815b00f8ff330005
:100bc0000203be000800a0000804440089844c0011
:100bd000f6ff3900c639dd008301730001003200e1
:100be000130020008904d1000884d3000998a300d1
:100bf000050032000800a7000300a0008904d1000e
:100c00000884d3008b05e8008904d1000884d30050
:100c10000001eb000281d2002000070001f0a100da
:100c20000cf0a70001f0a000600037006420e10094
:100c3000620032000801be000200be00f7ff37006c
:100c40006120e1005d0032006000b800f3ff370072
:100c50000000200001f82700f0ff37006022b800f4
:100c6000060220000000d0008180d2000482d20061
:100c70008582d2000000a0000202520083825a0046
:100c800003003b000202420083824a000000a100f0
:100c90000603e900f3ff3a0000000600810020008f
:100ca000618055000b003d000b00200061fe2f000d
:100cb0000100e1001d0034008281710061016400c7
:100cc0008904d1000884d3000000e800faff3a004c
:100cd00071002000610064000300700002006000e9
:100ce0000900320061044400e0844c000988a5003a
:100cf000050032008b05e8006808e10002003a00b8
:100d00008904d1000884d300f20f20000258e100ca
:100d100005003d00c75ddd00f907b2008980750060
:100d200008007800000006000bf827008b00780010
:100d300000000500c70ade00f107b200f50fb2009f
:100d400008003200e1cf4200020032000170a00032
:100d500024000500810f7000010032000408050026
:100d600044000500810f700002003a0014000500e5
:100d70008502e9000000400081c04800fcff3b0004
:100d80000170a000240005000200be006450e100d4
:100d9000050036006420e100020036000968a30067
:100da00001003a000800be000160a0004f06780074
:100db0004f05be004f04be0000000600f0ff2f00ec
:100dc000f1ff2700f9ff37000004be00d9ff07003c
:100dd0000003be000405be000200be00d5ff0700f0
:100de000844f750000000600889fbe008a9fbe00e9
:100df0008c9fbe000004be00ceff07000800be00ae
:100e0000890678006420e1000800390004003200ff
:100e10000160a00012022000a27f8800530037006a
:100e200091fc2300b0fd20004e0037000006eb00cf
:100e300009f0a10003f82300020020000800be0012
:100e40001dff07000600340001f823000000200009
:100e50000801be003fff07000004be002c00200078
:100e60000800be0093e82300320a230012ff0700a7
:100e7000120034000801be00d1fd2300703d2b009c
:100e8000b0fe07000005be00b3f32300f27a26008f
:100e90000800be0076fe070003f8230002002000d1
:100ea000a7fe07000801be00a6fe07000a01be005b
:100eb00028ff07000004be000c06e8000800be0082
:100ec00001f0a1000200200003982300fafe0700b1
:100ed0000800be00160035000801be0064fe0700d1
:100ee0000005be0032cd2c0043fb230095fe070019
:100ef000809fbe001269280003d52b000a00be00a7
:100f00005bfe0700620f210013ef2b008dfe070030
:100f10000a01be0056fe07004f01be000dff07008c
:100f20000801be0052fe07000801be0085fe070052
:100f30000c00e0000b0032000c10a70001f0a20032
:100f4000b2fd200093fc23006260e1000400320047
:100f500022a9200063f023000c10a70063f82300ef
:100f600078fe07000df0a70001f0a2004f06be00ba
:100f70004f05be004f04be0000000600889fbe0063
:100f80008a9fbe00841f78008fff07004f00780003
:100f900011003300f0ff2f00838f6c0006003b0030
:100fa000040565000a00a7000800370009f0a60044
:100fb0001000200008003700820f5400838f5c006f
:100fc000030039001000200001003e000000200056
:100fd00009f0a7000000ea004f05be004f04be0064
:100fe0000000e000000006000000fa0060010700b9
:100ff000950d07000040eb008f040700a8060700ce
:101000005d070700ffff37000000fa0058010700e6
:101010008d0d07000040eb0087040700a0060700c5
:1010200055070700ffff37000400fa00080a070011
:101030000000eb00000f78000f0037001e0090004a
:1010400011002000570807000200370000000000d0
:101050001e0fe800f07022009e0f1000fbff34000e
:101060001e0090008000eb004e0807001e0090005c
:101070000000e800100798001e009000e90f5000e3
:10108000eeff34000080fa00000006000800fa00bd
:10109000370107006c0d07000040eb0066040700f5
:1010a0007f060700401f2000700d0700401f200032
:1010b000ab0d0700300707000000370011002000cb
:1010c00010002000370807000000eb00df060700d3
:1010d0008000780000322000808f500006003c0025
:1010e00010002000d90607008000780000322000a0
:1010f000808f5000310034000000eb00d306070061
:101100008000780000322000808f500003003400ff
:10111000110020000000eb00220807001000200052
:10112000ca0607008000780000322000808f50003f
:1011300003003400110020001000200019080700ef
:10114000e0e32f0010079800201c2000000f78001b
:101150001e007800820d07001e009000430d07005e
:101160006000b8002007980031079800070037009a
:10117000000000002e009000be00900061004000c2
:10118000e080480020079800310798002e01900069
:10119000be019000f0c3290001002000800f510023
:1011a000818f5900f2ff3400401f20002f0d0700ef
:1011b000401f20006a0d0700a509070060002000fd
:1011c000a20607008000780000322000808f5000c7
:1011d00006003c00700020009c060700800078009c
:1011e00000322000808f5000310034006000200069
:1011f000960607008000780000322000808f5000a3
:10120000030034001100200070002000e5070700f3
:10121000700020008d06070080007800003220005a
:10122000808f500003003400110020007000200067
:10123000dc070700201c200010079800e0e32f00c7
:10124000000f78001e007800450d07001e0090007a
:10125000060d07006000b8002007980031079800cd
:1012600007003700000000002e009000be00900034
:1012700061004000e0804800200798003107980096
:101280002e019000be019000f0c329000100200053
:10129000800f5100818f5900f2ff3400401f200061
:1012a000f20c0700401f20002d0d07006809070001
:1012b0003000200065060700800078000032200022
:1012c000808f500006003c00500020005f060700a1
:1012d0008000780000322000808f500077ff3400bb
:1012e000110020000000eb00ae07070011002000f5
:1012f00010002000ab070700110020002000200094
:10130000a80707001100200030002000a5070700f3
:101310001100200040002000a2070700110020005b
:10132000500020009f0707001100200060002000ef
:101330009c0707001100200070002000990707009b
:1013400001f5210040b12200840d0700c05d20009e
:10135000c60c0700c05d2000010d07006000b8004a
:1013600020079800310798000700370000000000b0
:101370002e009000be00900061004000e080480018
:1013800020079800310798002e019000be019000c0
:10139000f0c3290001002000800f5100818f590007
:1013a000f2ff34002a090700401f2000af0c07009d
:1013b000401f2000ea0c070040ff37000000fa0041
:1013c0006b000700a00c07000040eb009a03070029
:1013d000b3050700680607001d0907000071220019
:1013e000010020002a000700fbff37000400fa007c
:1013f00038000700000f78001e00780010079800e2
:101400001e009000e20f5000180032001e009000f5
:10141000e20f500007003c001e0090000000e000ba
:101420000e0032001e009000e10f50000d0032004f
:10143000150037001e009000e40f50000f0032002e
:101440001e009000e40f50000a0035001e009000be
:10145000e50f50000b0032000b003700d7ff0700ec
:1014600009003700e0fe07000700370007ff07000c
:1014700005003700e4fe07000300370031000700d5
:1014800001003700cdff07000080fa0000000600d1
:101490000800fa0020079800310798006000b800a3
:1014a000008fbe0004003700100020000100200063
:1014b0001e0f40005e9748002e009000be00900076
:1014c000be0f1000ae8f1800f7ff35000080fa0045
:1014d000000006000000fa00e6c2bf000080fb002a
:1014e0004600de00614060000081fb00e7c2bf00f3
:1014f0000080fb000000d100614060000080fb0024
:101500000000400080007800e7c2bf00614060003a
:101510000080fb0000804000000040008000780058
:10152000e6c2bf000080fb004700de000080fb0039
:101530000080400000004000000041000080fa00f0
:10154000000006000000fa00090007003e0c07003a
:101550000040eb00380307005105070006060700ae
:10156000ffff37000000fa000080fa0000000600cc
:101570000000fa00c4c2a900c4e2a900c522a90063
:10158000c582a900c542a900c5a2a900c5c2a9007b
:10159000c5e2a900c0c2a900c0e2a900c122a900f9
:1015a000c182a900c142a900c1a2a900c1c2a9006b
:1015b000c1e2a900d022a900cc22a900d042a900f2
:1015c000cc42a900e2e2a900e302a900e802a900d6
:1015d000e822a900dee2a900df02a900e402a900d6
:1015e000e422a900e202a900de02a900d602a900b5
:1015f000d622a900d642a900d662a900d682a900a7
:10160000d6a2a900d6c2a900d6e2a900d202a9009a
:10161000d222a900d242a900d262a900d282a90096
:10162000d2a2a900d2c2a900d2e2a900d1a2a900e7
:10163000cda2a900e842a900e862a900e442a900fd
:10164000e462a900de22a800dec2a800e4c2a8006d
:10165000e4e2a800e502a800e522a800d302a80061
:10166000d322a800d342a800d362a800d382a80046
:10167000d3a2a800d3c2a800d3e2a8000080fa0039
:10168000000006000600fa00000f78001e00780037
:10169000200798002e009000e10f50001400320047
:1016a0002e009000e10f5000040039002e00900041
:1016b000e20f50001b003200270037009e00780028
:1016c000527f8000200320000088b9000200400003
:1016d0008000400060e02000008040009000780022
:1016e000c07c800080805000110798001c003700eb
:1016f0009e007800527f8000200320000088b900ff
:10170000020040008000400060e0200000804000b7
:1017100090007800d07c80008080500011079800f5
:101720000f0037009e007800527f800020032000c9
:101730000088b900020040008000400060e0200006
:101740000080400090007800607f80008080500022
:101750001107980002003700a02920001007980008
:101760001e0090000080fa00000006000c00fa0045
:1017700040079800510798006000b80020079800c3
:10178000310798004e009000e20f500030003e00fc
:101790005e0090000000e0002d003200de009000ae
:1017a00020032000808f500029003e000000eb0045
:1017b00010079800517f80005e009000008050006c
:1017c0003003b00022032000110009000280d8007d
:1017d0008000fd00000f780019003700ce00900057
:1017e0001e017800200320000088b900020040009c
:1017f0008000400060e02000008040001000780081
:101800006101b9002e009000be0090000000410070
:101810008180490020079800310798001e00900041
:101820000000e800100798001e00e80022032000d6
:10183000110009000200d8008000fd00000f7800b0
:101840009e0090005e009000808f5000e3ff390002
:101850005e0090006101b8002e009000be00900074
:1018600077fb07000080fa00000006000000fa0085
:10187000510020000000eb00bcff07008000780052
:10188000c07c800000805000e07c88005100200077
:1018900010002000b5ff070080007800d07c800099
:1018a00000805000f07c88005100200020002000c3
:1018b000aeff070080007800607f8000008050004d
:1018c000007d88000080fa00000006000000fa0099
:1018d000889fbe008a9fbe00e4ff0700e07c800076
:1018e0006103b900e07c80006101b9000235b800f5
:1018f00003b0b9000b027800000242000790b90063
:101900000002420084057800f07c80006104b90088
:10191000f07c80006101b9000243b80003c0b90047
:1019200007027800000242000990b900000242005c
:10193000840378000a0543008b854b00007d8000fe
:101940006104b900007d80006101b9000243b80064
:1019500003c0b90007027800000242000990b900f4
:1019600000024200840378000a0043008b804b0091
:1019700042fb07006cfb0700107d8800217d88007a
:10198000e07c80006103b900e07c80006101b90067
:101990000235b80003b0b9000b0278000002420023
:1019a0000790b9000002420084057800f07c8000b6
:1019b0006104b900f07c80006101b9000243b80005
:1019c00003c0b90007027800000242000990b90084
:1019d00000024200840378000a0043008b804b0021
:1019e00026fb070050fb07000004be00007d8000be
:1019f000cf80de0021fb07000801be007ffb07004f
:101a0000c209230053262c0099fb07000200200086
:101a1000432b2400cbfb0700507d8800617d8800ac
:101a2000507d8000617d800002002000030a2400b8
:101a300021fc07000000e000010035000400370031
:101a40006000b800307d8800417d880011003700bb
:101a5000f07c8000cf80de0008fb07000004be00a1
:101a6000e07c8000cf80de0004fb07000801be00a0
:101a700062fb0700c2092300532624007cfb0700f9
:101a80000200200043332400aefb0700307d8800b5
:101a9000417d88004f05be004f04be000080fa0063
:101aa000000006000000fa00210320000000eb0007
:101ab0002eff0700c07c88002103200010002000ba
:101ac0002aff0700d07c880021032000200020008e
:101ad00026ff0700607f88000080fa0000000600f3
:101ae0000c00fa00881f78000004780077ff0700d8
:101af000107d8000217d8000008fbe00307d800041
:101b0000417d80002007980031079800507d8000bb
:101b1000617d800040079800510798008e00780092
:101b2000080078001101be000288be006400400079
:101b3000e48040001101be000288be006400400045
:101b4000e48040001101be000288be000800780059
:101b50004f0478000080fa00000006000000fa0040
:101b60005aff0700507d8000617d80000080fa00f0
:101b7000000006000000fa0054ff0700307d8000de
:101b8000417d80000080fa00000006000000fa009d
:101b90004eff0700107d8000217d80000080fa004c
:101ba000000006000600fa00881f78000004780094
:101bb0002eff0700e07c8000000f7800f07c8000a2
:101bc00010079800007d8000200798001e00be00ce
:101bd000008cbe00ae009000210498000800780040
:101be0004f0478000080fa00000006000000fa00b0
:101bf0001eff0700e07c80000080fa000000060065
:101c00000000fa0019ff0700f07c80000080fa0055
:101c1000000006000000fa0014ff0700007d8000ad
:101c20000080fa00000006001600fa006000b8000c
:101c3000008fbe00cfff0700008fbe00b07c800089
:101c4000cf80de008dfa07001e01be003cfb0700be
:101c50009bfb0700200f98002e0890000000e0007a
:101c600003003d00ae0890008100ea00210f9800bb
:101c70002e0990006110b90080fa070002002000d0
:101c8000030a2400affb07000000e00001003c0055
:101c900067013700c5e2a900c5c2bf000080fb0094
:101ca0004700de006140600000404000004040000e
:101cb0000040400000404000004040000041400023
:101cc000512c200091407800f0cbb30000c06000a0
:101cd00002407000c5e2b700c5c2bf000080fb0033
:101ce0004600de006140600061406000004040004e
:101cf00000404000004040000040400000414000e3
:101d0000512c200091407800f0cdb30000c060005d
:101d100002407000c5e2b700c5c2bf000080fb00f2
:101d20004500de006140600061406000004040000e
:101d300000414000512c200091407800b0cfb3000a
:101d400000c0600002407000c5e2b700c5c2bf001d
:101d50000080fb004200de006140600061406000e6
:101d60000040400000404000004040000041400072
:101d7000512c200091407800f0ceb30000c06000ec
:101d800002407000c5e2b700c5c2bf000080fb0082
:101d90004400de006140600061406000004140009e
:101da000512c200091407800d0cfb30000c06000db
:101db00002407000c5e2b700c5c2bf000080fb0052
:101dc0000000d10061406000004040000040400041
:101dd0000040400000404000004040000040400003
:101de00080404000c4c2bf000074a10001407000e8
:101df000c4e2b700c4c2bf000080fb004700de00a1
:101e00006140600000404000004040000040400051
:101e1000004040000040400000414000412c2000b4
:101e200091407800f0cbb30000c060000240700029
:101e3000c4e2b7000040eb002057980002002c00dd
:101e4000833a24001e00be003efb07000000e000b5
:101e500001003c000200370011c0b3002157980078
:101e60000041eb001257980002002000431b2400a1
:101e70001e00be0010fb07000000e000010034005f
:101e80000200370010c0b30010579800ae50900009
:101e90001e51900002c070000004a2000004e00087
:101ea00011003a000040eb000057980002002800a3
:101eb000634224001e00be0024fb07000000e00077
:101ec00001003a000200370011c0b300015798002a
:101ed0000e5090000004a2000004e00002003a004e
:101ee000c4c2a800cf0037000041eb00724f980039
:101ef00002002000431b24001e00be0011fb07004f
:101f00000000e00001003c000200370010c0b300f8
:101f1000704f98007e4890000004a2000004e0008a
:101f200011003a008040eb00614f98000200200051
:101f3000732824001e00be00dffa07000000e00046
:101f4000010034000200370012c0b300624f980055
:101f50006e4890000004a2000004e00002003a0075
:101f6000c5e2a800af0037000040eb00504f9800da
:101f700002002000732824001e00be00f1fa0700b2
:101f80000000e00001003c000200370011c0b30077
:101f9000514f98005e4890000004a2000004e00049
:101fa00011003a000041eb00424f9800020020006f
:101fb000132e24001e00be00bffa07000000e00040
:101fc000010034000200370010c0b300404f9800f9
:101fd0004e4890000004a2000004e00002003a0015
:101fe000c5c2a8008f0037008040eb00314f980039
:101ff00002002000132e24001e00be00d1fa0700ac
:102000000000e00001003c000200370012c0b300f5
:10201000324f98003e4890000004a2000004e00007
:1020200011003a000040eb00204f98000200280009
:10203000d33124001e00be009ffa07000000e0001c
:10204000010034000200370011c0b300214f980096
:102050002e4890000004a2000004e00002003a00b4
:10206000c5a2a8006f0037000041eb00124f980096
:1020700002002800d33124001e00be00b1fa070080
:102080000000e00001003c000200370010c0b30077
:10209000104f98001e4890000004a2000004e000c9
:1020a00011003a008040eb00014f98000200280028
:1020b000a33424001e00be007ffa07000000e000e9
:1020c000010034000200370012c0b300024f980034
:1020d0000e4890000004a2000004e00002003a0054
:1020e000c542a8004f0037000040eb007047980041
:1020f00002002800a33424001e00be0091fa07004d
:102100000000e00001003c000200370011c0b300f5
:10211000714798007e4090000004a2000004e00097
:1021200011003a000041eb006247980002002800cd
:10213000733724001e00be005ffa07000000e000b5
:10214000010034000200370010c0b300604798005f
:102150006e4090000004a2000004e00002003a007b
:10216000c582a8002f0037008040eb00514798003f
:1021700002002800733724001e00be0071fa070019
:102180000000e00001003c000200370012c0b30074
:10219000524798005e4090000004a2000004e00056
:1021a00011003a000040eb00404798000200240074
:1021b000233924001e00be003ffa07000000e000a3
:1021c000010034000200370011c0b30041479800fd
:1021d0004e4090000004a2000004e00002003a001b
:1021e000c522a8000f003700020024002339240074
:1021f0001e00be0053fa07000000e00001003c0092
:102200000800370002002c00833a24001e00be00a4
:1022100029fa07000000e000010034000100370047
:10222000c4e2a8001e00be0025fa0700b07c8800aa
:102230000080fa00000006000200fa00004f78005b
:1022400010c0b3009e4f100003003a0010c0b3004e
:1022500002e8b700020037000040eb0002e8b700d8
:102260000000eb00001588000000eb00101588004e
:102270000000eb00201588000000eb0030158800fe
:10228000a802a800a822a800a842a900a862a90044
:10229000a882a900a8a2a900a8c2a900a8e2a90032
:1022a000a902a900a922a900a942a900a962a9001e
:1022b000a982a900a9a2a900a9c2a900a9e2a9000e
:1022c000aa02a900aa22a900aa42a800aa62a800fc
:1022d000aa82a800aaa2a900aac2a900aae2a900eb
:1022e000ab02a900ab22a900ab42a900ab62a900d6
:1022f000ab82a900aba2a900abc2a900abe2a900c6
:10230000112a200091407800c0cfb30000c06000c7
:10231000a1e2b700a042a800012a20009140780065
:1023200000ceb30000c07000a0e2b700212a200058
:102330009140780030ccb30000c060000034a000b1
:10234000a2e2b700a342a800512a200091407800e1
:1023500000ceb30000c060000004a000a5e2b700fa
:1023600002c8bf000004e00007003200412a20003c
:102370009140780000ccb30000c060003041b30051
:10238000a4e2b70007003700412a200091407800fe
:1023900000ccb30000c0600071c2b3000140700007
:1023a000a4e2b7008560a9008d60a800a1e2a800a2
:1023b00002c8bf000004e00005003a000000000071
:1023c000517f800000032000808f5000fbff36000b
:1023d0000080fa0000000600809fbe00821f780087
:1023e0003400f80000c0b300a00188000c00fa001f
:1023f0000040eb0000e8b7000040eb0001e8b70048
:102400008560a90002c8bf000004e0002900320076
:1024100000282000000f7800417f80001e00780017
:10242000100078000001780081804000608020006a
:1024300000804000020878001e8fe800417f800085
:102440001e007800100078000001780081804000b4
:1024500060a0200000804000020878001e8fe80085
:10246000417f80001e007800100078000001780095
:102470008180400060c02000008040000208780099
:102480001e8fe800407f80000000e800407f880049
:10249000417f8000f00f2000808f500067013600e0
:1024a0000000eb00407f880010c0b30001e8b700d7
:1024b00062013700c001200050158800212a200049
:1024c0009140780030ccb30000c060000034a00020
:1024d000a2e2b700412a20009140780000ccb3006e
:1024e00000c0600071c2b30001407000a4e2b700f8
:1024f0004180200091407800d0c3b30080cf5000cd
:102500000f003a00c00f200050158800212a20003b
:102510009140780030ccb30000c060004041b3006f
:10252000a2e2b700412a20009140780000ccb3001d
:1025300000c060003041b300a4e2b7005f00370084
:102540004180200091407800e0c3b30080cf50006c
:102550002c003a00212a20009140780030ccb300b2
:1025600000c060000044a000a2e2b700412a2000a1
:102570009140780000ccb30000c060007041b3000f
:10258000a4e2b70003c8bf000080fb00500798001a
:102590005e009000e10f500011003200de0090005c
:1025a000e18f500004003c005e0090000000e0005d
:1025b0000800320041003700de009000e28f50003a
:1025c0000a0032005e009000e30f50000a00320063
:1025d0003a003700c011210050158800370037003d
:1025e000c02122005015880034003700c04124006b
:1025f0005015880031003700c08128005015880030
:102600002e00370004c8bf00e24f50002b003a00f4
:10261000212a20009140780030ccb30000c0600037
:102620000044a000a2e2b700412a200091407800b7
:1026300000ccb30000c060007041b300a4e2b7005a
:1026400003c8bf000080fb0040079800ce00900048
:10265000e18f5000110032004e009000e10f500059
:1026600004003c00ce0090000100e00008003200b1
:10267000120037004e009000e20f50000a003200b6
:10268000ce009000e38f50000a0032000b003700ac
:10269000c01121005015880008003700c021220019
:1026a0005015880005003700c041240050158800ef
:1026b00002003700c0812800501588000028200043
:1026c000000f7800417f80001e0078001000780025
:1026d0000001780081804000608020000080400080
:1026e000020878001e8fe800417f80001e007800fd
:1026f00010007800000178008180400060a0200078
:1027000000804000020878001e8fe800417f8000b2
:102710001e007800100078000001780081804000e1
:1027200060c0200000804000020878001e8fe80092
:10273000407f80000000e800407f8800417f8000eb
:10274000f00f2000808f5000020036000000eb00e8
:10275000407f88004180200091407800e0c3b300b2
:1027600080cf500024003a00507f80000000e80035
:10277000507f8800517f800010032000808f500020
:10278000020036000000eb00507f8800517f80007f
:102790001e00780010007800000178008180400061
:1027a00060e0200000804000020878001e8fe800f2
:1027b000517f80001e007800100078000001780032
:1027c00081804000a0e620000080400002087800e0
:1027d0001e8fe800517f80001e00780010007800f6
:1027e0000001780081804000e0ec20000080400083
:1027f000020878007f003700418020009140780077
:10280000f0c3b30080cf500038003a0003c8bf00c7
:102810000080fb00300798003e009000e10f500060
:1028200017003200be009000e18f500004003c0011
:102830003e0090000000e000080032006d0037000c
:10284000be009000e28f5000160032003e00900063
:10285000e30f50001c003200660037001e007800b5
:1028600010007800907988001e8fe8001e00780024
:1028700010007800d0798800e2e2a8005d003700ff
:102880001e00780010007800a07988001e8fe800f4
:102890001e00780010007800e0798800e302a800ac
:1028a000540037001e00780010007800b0798800ce
:1028b0001e8fe8001e00780010007800f079880074
:1028c000e802a8004b0037001e00780010007800d6
:1028d000c07988001e8fe8001e0078001000780084
:1028e000007a8800e822a8004200370004c8bf0030
:1028f000e34f50003f003a0003c8bf000080fb00d8
:1029000020079800ae009000e18f500019003200bf
:102910002e009000e10f500004003c00ae0090003b
:102920000100e00008003200320037002e00900065
:10293000e20f50001a003200ae009000e38f50000a
:10294000220032002b0037001e00780010007800b3
:10295000107a88001e8fe8001e00780010007800b2
:10296000507a8800e2e2a90010c0b30003e8b70083
:10297000200037001e00780010007800207a8800c0
:102980001e8fe8001e00780010007800607a880032
:10299000e302a90020c0b30003e8b7001500370028
:1029a0001e00780010007800307a88001e8fe80042
:1029b0001e00780010007800707a8800e802a900f4
:1029c00030c0b30003e8b7000a0037001e007800eb
:1029d00010007800407a88001e8fe8001e00780002
:1029e00010007800807a8800e822a9000040eb00ff
:1029f00003e8b70004c8bf00304798008040eb00f0
:102a000021479800f0c3b300be40900080cf500033
:102a10000200360010c0b30020479800be4090006e
:102a20000140e80004e8b7002e4090000004e000f8
:102a3000020032000040eb0004e8b70010c0b30011
:102a400000e8b7000080fa003400f9004f01780078
:102a50004f00be00004006000000fa0000c8bf00a2
:102a60000080fb000080fa00000006000000fa0071
:102a700001c8bf000080fb000080fa0000000600d3
:102a80000000fa00a1e2a8000080fa0000000600a1
:102a90000000fa00a1e2a9000080fa000000060090
:102aa0002800fa00889fbe008a1f78000000eb0013
:102ab000300798000000eb00200798001000370056
:102ac0003e00900080004000e0fa2000808040003e
:102ad0000000eb00800878003e009000e80047000e
:102ae0000000400000004000010140006000b8000c
:102af0000089be003e0090000000e800300798000a
:102b00003e009000e70f5000edff34002900370031
:102b10000000eb0030079800200037003e059000d1
:102b20003e009000e8004700000040000000400028
:102b3000010040001004be003e009000430007006a
:102b4000cf80de000801400089814800e80047008e
:102b50000a00450000004000010040000288be005d
:102b60006000b800008fbe00040037001000200095
:102b7000010020001e0f40005e974800703e2000bc
:102b800001002000be0f1000ae8f1800f7ff3400c8
:102b90003e0090000000e800300798003e009000e2
:102ba000e70f5000ddff34002e0090000000e80029
:102bb00020079800ae00900030062000808f500063
:102bc000d3ff34000000eb003007980018003700f6
:102bd0003e0590003e009000e800470000004000e5
:102be00000004000010040001000be00a3f60700f6
:102bf0000004be002e009000cf80de009ff607008c
:102c00000001be000800be00d2f70700acf70700c5
:102c1000000178008a004500e0fa200000804000b2
:102c2000020878003e0090000000e800300798009d
:102c30003e009000e70f5000e5ff34004f0578009c
:102c40004f04be000080fa00000006000400fa00f5
:102c5000000f7800700020009e0f10000300360067
:102c60000000eb00100798000c0037001e007800f1
:102c70008000400020f32000008040001001780018
:102c80001e0078008000400020f4200000804000fa
:102c90001000780000015100120798001e009000fb
:102ca0000080fa00000006000600fa0010079800f5
:102cb0001e009000e70f5000030036000000eb00fc
:102cc00020079800180037001e0090008000400088
:102cd00020f3200000804000100178001e009000ca
:102ce0008000400020f420000080400010007800a8
:102cf000000151001e00900080004000e0fa20001a
:102d00000080400010007800000f51001e00e0001d
:102d1000030034001e0078002007980002003700ee
:102d20000000eb00200798002e0090000080fa00c1
:102d3000000006000400fa00000f78007000200078
:102d40009e0f1000030036000000eb0010079800f3
:102d5000060037001e0078008000400020f32000ad
:102d60000080400010007800100798001e009000be
:102d70000080fa00000006000000fa000000eb00ee
:102d8000800888000111200091407800f0ccb30049
:102d900000c0600010e1b7000000eb0030088800c0
:102da000205c20006008880084c0a9008cc0a800b6
:102db00011e1a8000080fa00000006000000fa00ff
:102dc00011e1a9000080fa00000006000800fa00e6
:102dd0001007980021079800707f8000000f78008e
:102de0000b0037001e007800b00090001e0090001d
:102df000808f500003003a00110020003107980036
:102e00001f0037001e007800c0009000010f7800fe
:102e10001e00e000f3ff3a00a00020003ef507008e
:102e2000000f78001e00e00002003a0010002000b1
:102e30008af50700ae0090001e00780001087800b7
:102e40009e0078000000eb00900098009e00780043
:102e500010c0b300c04098001e0078009e00900093
:102e600031009800717f80001e00780041009800ba
:102e70001e007800707f8800110020003107980044
:102e80003e0090000080fa00000006000800fa00f2
:102e9000200798000000eb0010079800707f80006a
:102ea000000f78001a0037001e007800b000900074
:102eb0002e009000808f500010003a001e009000fd
:102ec0000000e000050032001e007800c000900005
:102ed0001e00900041009800030037001e0078009b
:102ee00040009000707f88001e0078006df507009c
:102ef0001100200031079800090037001e007800fb
:102f0000100798001e007800c0009000010f7800a4
:102f10001e00e000e4ff3a00200020003007980087
:102f20003e0090000080fa00000006000800fa0051
:102f30001007980021079800707f8000000f78002c
:102f40000e0037001e007800b00090001e009000b8
:102f5000808f500006003a00ae0090001e007800fe
:102f600001087800110020003107980007003700a1
:102f70001e007800c0009000010f78001e00e000e5
:102f8000f0ff3a0020002000300798003e0090003b
:102f90000080fa00000006000600fa001007980002
:102fa000707f8000000f78000e0037001e00780050
:102fb000b00090001e009000808f500006003a0084
:102fc0009e0078000000eb009000980011002000a7
:102fd00021079800070037001e007800c00090000d
:102fe000010f78001e00e000f0ff3a0020002000f2
:102ff000200798002e0090000080fa0000000600d4
:103000000600fa0010079800707f8000000f78001b
:103010000e0037001e007800b00090001e009000e7
:10302000808f500006003a009e0078000040eb00c0
:10303000c0409800110020002107980007003700c9
:103040001e007800c0009000010f78001e00e00014
:10305000f0ff3a0020002000200798002e0090008a
:103060000080fa00000006000600fa001007980031
:10307000707f8000000f78000e0037001e0078007f
:10308000b00090001e009000808f500006003a00b3
:103090009e00780010c0b300c040980011002000ce
:1030a00021079800070037001e007800c00090003c
:1030b000010f78001e00e000f0ff3a002000200021
:1030c000200798002e0090000080fa000000060003
:1030d0003600f800809fbe00829fbe00849fbe0025
:1030e000869fbe003400f80000c0b300a001880035
:1030f0000200fa00707f8000000f780084c0a900f1
:103100001e0037001e00780040409000e14f500044
:1031100017003a001e007800100078000000e00060
:10312000130032001e007800100090008000e800bc
:103130001e007800110098001e007800100090001a
:10314000800078001e007800100078000000e90080
:10315000808f5000060036001e007800300090007e
:10316000000001009e0078000000eb009000980035
:103170001e007800c0009000010f78001e00e000e3
:10318000e0ff3a000080fa003400f9004f03be006f
:103190004f02be004f01be004f00be003600f900d6
:1031a000004006000600fa00000f780011079800a2
:1031b0001e007800200798002e009000e30f5000ba
:1031c0007d0032002e009000e30f500007003e000b
:1031d0002e009000e10f5000380032002e009000c9
:1031e000e10f500057003e000d0037002e00900008
:1031f000e50f5000b20032002e009000e50f5000a5
:10320000900039002e009000e60f5000d1003200ef
:103210002e009000e70f5000f50032001601370035
:103220001e009000e10f500014003600c4c2bf0021
:103230000080fb004600de00614060000004a20048
:10324000614060006140600000404000004040007c
:10325000004040000040400000404000004140006d
:10326000412c200091407800f0cbb30000c06000fa
:1032700002407000c4e2b700730137001e009000e6
:10328000614060006140600000404000004040003c
:10329000004040000040400000404000004140002d
:1032a000412c200091407800f0cbb30000c06000ba
:1032b00002407000c4e2b700630137001e009000b6
:1032c000e10f500011003600c4c2bf000080fb00b7
:1032d0004700de000004a2006140600000404000a2
:1032e00000404000004040000040400000404000de
:1032f0000040400080404000c4c2bf000074a100f4
:1033000001407000c4e2b7004f0137001e0090007a
:10331000614060000040400000404000004040002c
:10332000004040000040400000404000804040001d
:10333000c4c2bf000074a10001407000c4e2b70025
:10334000410137001e009000e10f50000f003600d1
:10335000c5c2bf000080fb000000d10061406000da
:103360000004a20061406000614060000041400034
:10337000512c200091407800d0cfb30000c06000f5
:1033800002407000c5e2b7002f0137001e00900018
:10339000614060006140600000414000512c20000d
:1033a00091407800d0cfb30000c0600002407000b0
:1033b000c5e2b700240137001e009000e10f500065
:1033c00012003600c5c2bf000080fb004400de00d2
:1033d000614060000004a200614060006140600044
:1033e00000404000004040000040400000414000dc
:1033f000512c200091407800f0ceb30000c0600056
:1034000002407000c5e2b7000f0137001e009000b7
:1034100061406000614060000040400000404000aa
:103420000040400000414000512c200091407800b5
:10343000f0ceb30000c0600002407000c5e2b700eb
:10344000010137001e009000e10f5000100036000f
:10345000c5c2bf000080fb004200de00614060008a
:103460000004a20061406000614060000040400034
:1034700000414000512c200091407800b0cfb300b3
:1034800000c0600002407000c5e2b700ee003700e7
:103490001e009000614060006140600000404000fc
:1034a00000414000512c200091407800b0cfb30083
:1034b00000c0600002407000c5e2b700e2003700c3
:1034c0001e009000e10f500013003600c5c2bf007f
:1034d0000080fb004500de00614060000004a200a7
:1034e00061406000614060000040400000404000da
:1034f000004040000040400000414000512c2000ae
:1035000091407800f0cdb30000c060000240700030
:10351000c5e2b700cc0037001e009000614060009b
:10352000614060000040400000404000004040001a
:103530000040400000414000512c200091407800a4
:10354000f0cdb30000c0600002407000c5e2b700db
:10355000bd0037001e009000e10f5000140036003f
:10356000c5c2bf000080fb004600de006140600075
:103570000004a20061406000614060000040400023
:10358000004040000040400000404000004040003b
:1035900000414000512c200091407800f0cbb30056
:1035a00000c0600002407000c5e2b700a60037000e
:1035b0001e009000614060006140600000404000db
:1035c00000404000004040000040400000404000fb
:1035d00000414000512c200091407800f0cbb30016
:1035e00000c0600002407000c5e2b70096003700de
:1035f0001e009000e10f500011003600c5c2bf0050
:103600000080fb004700de000004a2006140600073
:1036100000404000004040000040400000404000aa
:10362000004040000040400080404000c5c2bf0054
:103630000074a10001407000c5e2b70082003700ad
:103640001e009000614060000040400000404000cb
:10365000004040000040400000404000004040006a
:1036600080404000c5c2bf000074a100014070004e
:10367000c5e2b700740037001e0090006140600092
:10368000004040000040400000404000004040003a
:10369000004040000040400080404000c5c2bf00e4
:1036a0000074a10001407000c5e2b700c5c2bf00b0
:1036b0000080fb004700de006140600000404000e9
:1036c00000404000004040000040400000404000fa
:1036d00000414000512c200091407800f0cbb30015
:1036e00000c0600002407000c5e2b700c5c2bf0064
:1036f0000080fb004600de00614060006140600029
:1037000000404000004040000040400000404000b9
:1037100000414000512c200091407800f0cdb300d2
:1037200000c0600002407000c5e2b700c5c2bf0023
:103730000080fb004500de006140600061406000e9
:103740000040400000414000512c20009140780092
:10375000b0cfb30000c0600002407000c5e2b70007
:10376000c5c2bf000080fb004200de006140600077
:1037700061406000004040000040400000404000c8
:1037800000414000512c200091407800f0ceb30061
:1037900000c0600002407000c5e2b700c5c2bf00b3
:1037a0000080fb004400de0061406000614060007a
:1037b00000414000512c200091407800d0cfb30050
:1037c00000c0600002407000c5e2b700c5c2bf0083
:1037d0000080fb000000d10061406000004040001c
:1037e00000404000004040000040400000404000d9
:1037f0000040400080404000c4c2bf000074a100ef
:1038000001407000c4e2b700c4c2bf000080fb00ea
:103810004700de0061406000004040000040400082
:103820000040400000404000004040000041400097
:10383000412c200091407800f0cbb30000c0600024
:1038400002407000c4e2b7000080fa0000000600e9
:103850000000fa00c4c2a900c4e2a900c522a90060
:10386000c582a900c542a900c5a2a900c5c2a90078
:10387000c5e2a9000080fa00000006000200fa007c
:10388000000f7800100020009e0f1000100036007e
:10389000d0c2bf000080fb004200de00614060003b
:1038a0000004a200614060006140600000404000f0
:1038b00000414000012d200091407800b0cfb300be
:1038c00000c0600002407000d0e2b7000b0037007b
:1038d0001e007800614060006140600000404000d0
:1038e00000414000012d200091407800b0cfb3008e
:1038f00000c0600002407000d0e2b7000080fa0013
:10390000000006000200fa00000f780010002000fe
:103910009e0f10000f003600d0c2bf000080fb00d9
:103920000000d100614060000004a200614060001e
:103930006140600000414000012d2000914078006e
:10394000d0cfb30000c0600002407000d0e2b700ea
:103950000a0037001e00780061406000614060008e
:1039600000414000012d200091407800d0cfb300ed
:1039700000c0600002407000d0e2b7000080fa0092
:10398000000006000000fa00c4c2bf000080fb0077
:103990004600de006140600000c0ea006140600057
:1039a0006140600000404000004040000040400096
:1039b000004040000040400000414000412c2000f9
:1039c00091407800f0cbb30000c06000024070006e
:1039d000c4e2b700c4c2bf000080fb004700de00a5
:1039e00000c0ea006140600000404000004040002c
:1039f00000404000004040000040400000404000c7
:103a000080404000c4c2bf000074a10001407000ab
:103a1000c4e2b700c5c2bf000080fb000000d100b7
:103a20006140600000c0ea006140600061406000e9
:103a300000414000512c200091407800d0cfb300cd
:103a400000c0600002407000c5e2b700c5c2bf0000
:103a50000080fb004400de006140600000c0ea001e
:103a60006140600061406000004040000040400054
:103a70000040400000414000512c2000914078005f
:103a8000f0ceb30000c0600002407000c5e2b70095
:103a9000c5c2bf000080fb004200de006140600044
:103aa00000c0ea00614060006140600000404000ea
:103ab00000414000512c200091407800b0cfb3006d
:103ac00000c0600002407000c5e2b700c5c2bf0080
:103ad0000080fb004500de006140600000c0ea009d
:103ae00061406000614060000040400000404000d4
:103af000004040000040400000414000512c2000a8
:103b000091407800f0cdb30000c06000024070002a
:103b1000c5e2b700c5c2bf000080fb004600de0062
:103b20006140600000c0ea006140600061406000e8
:103b30000040400000404000004040000040400085
:103b40000040400000414000512c2000914078008e
:103b5000f0cbb30000c0600002407000c5e2b700c7
:103b6000c5c2bf000080fb004700de0000c0ea00c5
:103b700061406000004040000040400000404000c4
:103b800000404000004040000040400080404000b5
:103b9000c5c2bf000074a10001407000c5e2b700bb
:103ba0000080fa00000006000000fa00c4c2bf0056
:103bb0000080fb004600de006140600000c0ea00bb
:103bc00061406000614060000040400000404000f3
:103bd00000404000004040000040400000414000e4
:103be000412c200091407800f0cbb30000c0600071
:103bf00002407000c4e2b7000080fa000000060036
:103c00000000fa00c4c2bf000080fb004700de00d5
:103c100000c0ea00614060000040400000404000f9
:103c20000040400000404000004040000040400094
:103c300080404000c4c2bf000074a1000140700079
:103c4000c4e2b7000080fa00000006000000fa009d
:103c5000c5c2bf000080fb000000d10061406000d1
:103c600000c0ea0061406000614060000041400027
:103c7000512c200091407800d0cfb30000c06000ec
:103c800002407000c5e2b7000080fa0000000600a4
:103c90000000fa00c5c2bf000080fb004400de0047
:103ca0006140600000c0ea00614060006140600067
:103cb0000040400000404000004040000041400003
:103cc000512c200091407800f0ceb30000c060007d
:103cd00002407000c5e2b7000080fa000000060054
:103ce0000000fa00c5c2bf000080fb004200de00f9
:103cf0006140600000c0ea00614060006140600017
:103d00000040400000414000512c200091407800cc
:103d1000b0cfb30000c0600002407000c5e2b70041
:103d20000080fa00000006000000fa00c5c2bf00d3
:103d30000080fb004500de006140600000c0ea003a
:103d40006140600061406000004040000040400071
:103d5000004040000040400000414000512c200045
:103d600091407800f0cdb30000c0600002407000c8
:103d7000c5e2b7000080fa00000006000000fa006b
:103d8000c5c2bf000080fb004600de00614060004d
:103d900000c0ea00614060006140600000404000f7
:103da0000040400000404000004040000040400013
:103db00000414000512c200091407800f0cbb3002e
:103dc00000c0600002407000c5e2b7000080fa0049
:103dd000000006000000fa00c5c2bf000080fb0022
:103de0004700de0000c0ea00614060000040400083
:103df00000404000004040000040400000404000c3
:103e00000040400080404000c5c2bf000074a100d7
:103e100001407000c5e2b7000080fa000000060013
:103e20000200fa00000f78009e00780020cc2100ec
:103e3000e6fb07000080fa00000006000000fa0020
:103e400020cc210011fc07000080fa0000000600d1
:103e50000200fa00000f78001e00e00003003500a9
:103e60009e00780020cc210030fc07000080fa0082
:103e7000000006000000fa00d6cfbf000004e000fa
:103e80000b003a008000eb0070002000c5fc07002a
:103e9000d6cfbf000080fb0011002000c1fc07004e
:103ea000d6cfbf000040e800d6efb7001b003700b8
:103eb000d6cfbf00e74f50000c003a00d6cfbf006e
:103ec0000080fb000000e9008000eb00b5fc07006b
:103ed000d6cfbf000080fb0011002000b1fc07001e
:103ee0000040eb00d6efb7000c003700d6cfbf0084
:103ef0000080fb000000e9008000eb00a9fc070047
:103f0000d6cfbf000080fb0011002000a5fc0700f9
:103f1000d6cfbf000040e800d6efb7000080fa001f
:103f2000000006000200fa00d7cfbf000080fb00af
:103f3000000f78001e007800e20f50001c003200d5
:103f40001e007800e20f500007003c001e007800c1
:103f50000000e0000b0032001e007800e10f50006e
:103f60000c003200230037001e007800e30f5000e1
:103f7000160032001e007800e40f50001a003200d4
:103f80001c003700210020000000eb0085fc07002a
:103f900018003700210020001000200081fc0700dd
:103fa00021002000700020007efc07001100370077
:103fb00021002000200020007afc070021002000c2
:103fc0006000200077fc07000a0037002100200075
:103fd0003000200073fc070021002000500020006a
:103fe00070fc070003003700210020004000200083
:103ff0006cfc0700d7cfbf00e34f500004003e0029
:10400000d7cfbf000040e800d7efb700020037006d
:104010000040eb00d7efb7000080fa000000060078
:104020000000fa00d8cfbf000004e0000f003a0003
:10403000f0cfbf000004e0000c00320010c0b3005d
:10404000d8efb7008000eb000000eb0055fc070044
:10405000d8cfbf000080fb001100200051fc0700fa
:104060000040eb00f0efb7002b003700d8cfbf00c7
:104070000004e0000f003a00f0cfbf000004e000b1
:104080000c003a0070c0b300d8efb7008000eb001e
:104090000000eb0043fc0700d8cfbf000080fb000e
:1040a000110020003ffc070010c0b300f0efb70084
:1040b00019003700d8cfbf00e74f50000a003a0080
:1040c0000040eb00d8efb7008000eb00700020004c
:1040d00034fc0700d8cfbf000080fb001100200097
:1040e00030fc07000c003700d8cfbf00e14f500074
:1040f00009003a000040eb00d8efb7008000eb0069
:104100001000200027fc0700d8cfbf000080fb0074
:104110001100200023fc07000080fa0000000600c8
:104120000200fa00d9cfbf000080fb00000f78002a
:104130001e007800e10f5000150032001e007800cc
:10414000e10f500004003c001e0078000000e00079
:10415000080032001a0037001e007800e20f5000fd
:10416000120032001e007800e30f500013003200ee
:1041700013003700210020000000eb0009fc0700bd
:10418000210020004000200006fc07000c00370042
:10419000210020001000200002fc07002100200068
:1041a00030002000fffb0700050037002100200041
:1041b00020002000fbfb070001003700a4fd0700e2
:1041c000d9cfbf00e24f500004003e00d9cfbf005e
:1041d0000040e800d9efb700020037000040eb00d4
:1041e000d9efb7000080fa00000006000200fa00d4
:1041f000dacfbf000080fb00000f78001e007800bf
:10420000e10f5000150032001e007800e10f500051
:1042100004003c001e0078000000e00008003200ae
:104220001a0037001e007800e20f50001200320022
:104230001e007800e30f5000130032001300370017
:10424000210020000000eb00d6fb07002100200029
:1042500040002000d3fb07000c00370021002000a5
:1042600070002000cffb070021002000500020003c
:10427000ccfb070005003700210020006000200073
:10428000c8fb07000100370071fd0700dacfbf004f
:10429000e24f500004003e00dacfbf000040e800cb
:1042a000daefb700020037000040eb00daefb700aa
:1042b0000080fa00000006000400fa00507e800032
:1042c0000000e0001f003200f17d800080da2f0046
:1042d000808f50001b003500f17d8000802520007c
:1042e000808f500017003c00d602a900d622a900fa
:1042f000d642a900d662a9000000eb00507e8800db
:10430000f07d800000017800120798001e019000e7
:104310000200e00003003d001e0190000201ea00df
:1043200012079800007122001e0190001100090080
:104330000200d800ef005000c0152200fbfa070071
:104340004d003700f07d80000000e0000c003400dc
:10435000307e80000000e800307e8800107e800003
:104360000000e900107e8800107e80000000e00060
:104370000e003d0030002000107e88000b0037004a
:10438000307e80000000e900307e8800107e8000d2
:104390000000e800107e8800107e8000e30f5000cf
:1043a000020034000000eb00107e8800107e8000c8
:1043b000000f78001e017800e10f51001300320059
:1043c0001e007800e10f500004003c001e01780040
:1043d0000200e000080032001a0037001e007800da
:1043e000e20f50000e0032001e017800e30f510072
:1043f0001000320013003700d602a900d622a80010
:10440000d642a900d662a8000e003700d602a90045
:10441000d622a800d642a800d662a900090037001b
:10442000d602a800d622a900d642a800d662a900ca
:1044300004003700d602a800d622a900d642a9005f
:10444000d662a800f17d800080da2f00808f5000b6
:1044500009003500f17d800080252000808f50000c
:1044600005003c0010002000507e8800f100200074
:10447000c0152200adfa07000080fa000000060017
:104480000400fa00607e80000000e0001f0032009f
:10449000017e800080da2f00808f50001b003500e5
:1044a000017e800080252000808f500017003c0096
:1044b000d682a900d6a2a900d6c2a900d6e2a90038
:1044c0000000eb00607e8800007e80000001780024
:1044d000120798001e0190000200e00003003d005a
:1044e0001e0190000201ea001207980000712200ec
:1044f0001e019000110009000200d800ef005000da
:104500000024220089fa07004d003700007e800059
:104510000000e0000c003d00407e80000000e9004b
:10452000407e8800207e80000000e900207e880018
:10453000207e80000000e0000e003d0030002000e2
:10454000207e88000b003700407e80000000e800dd
:10455000407e8800207e80000000e800207e8800e9
:10456000207e8000e30f5000020034000000eb00ca
:10457000207e8800207e8000000f78001e017800d9
:10458000e10f5100130032001e007800e10f5000cf
:1045900004003c001e0178000200e0000800320028
:1045a0001a0037001e007800e20f50000e003200a3
:1045b0001e017800e30f5100100032001300370095
:1045c000d682a900d6a2a800d6c2a900d6e2a80029
:1045d0000e003700d682a900d6a2a800d6c2a80035
:1045e000d6e2a90009003700d682a800d6a2a90009
:1045f000d6c2a800d6e2a90004003700d682a800df
:10460000d6a2a900d6c2a900d6e2a800017e8000e9
:1046100080da2f00808f500009003500017e800075
:1046200080252000808f500005003c0010002000f5
:10463000607e8800f1002000002422003bfa070081
:104640000080fa00000006000000fa008000eb0085
:10465000c0152200ddf907008000eb0000242200d5
:10466000daf907000080fa00000006000200fa00f4
:10467000000f78001e00e0000a003a000000eb0086
:10468000f07d88008000eb00c015220027fa0700ab
:10469000d602a900d622a900d642a900d662a90056
:1046a0002d00370080c12f009e0f10000a003d0032
:1046b00080c12f00f07d8800f27d8000008f2d00ea
:1046c000110009000200d80080007800c015220007
:1046d00016fa070020003700803e20009e0f1000d1
:1046e0000a003400803e2000f07d8800f27d8000ca
:1046f00000712200110009000200d800800078003b
:10470000c015220009fa0700130037001e007800c8
:10471000f07d88001e00e00008003d00008f2d00a5
:104720001e017800110009000200d8008000780006
:10473000c0152200fdf907000700370000712200b4
:104740001e017800110009000200d80080007800e6
:10475000c0152200f5f907000080fa0000000600ed
:104760000200fa00000f78001e00e0000a003a0084
:104770000000eb00007e88008000eb000024220097
:10478000eaf90700d682a900d6a2a900d6c2a900dc
:10479000d6e2a9002d00370080c12f009e0f100027
:1047a0000a003d0080c12f00007e8800027e80004c
:1047b000008f2d00110009000200d8008000780051
:1047c00000242200d9f9070020003700803e200095
:1047d0009e0f10000a003400803e2000007e8800fa
:1047e000027e800000712200110009000200d80042
:1047f0008000780000242200ccf907001300370065
:104800001e007800007e88001e00e00008003d00c9
:10481000008f2d001e017800110009000200d80051
:104820008000780000242200c0f90700070037004c
:10483000007122001e017800110009000200d8005a
:104840008000780000242200b8f907000080fa00f8
:10485000000006000800fa00000f78001107980019
:104860001e007800300798003e0190000200e00032
:1048700003003d003e0090000000ea003007980071
:104880001e019000220798002e0090000000e0001a
:1048900003003d002e0190000201ea00220798006b
:1048a0003e0090002e01900082004000803e2000db
:1048b000808f500006003c001e0090001e0010007b
:1048c0006aff07001e0090001e004000a4ff0700c2
:1048d0000080fa00000006000000fa00307e800030
:1048e0000080fa00000006000200fa00000f7800c5
:1048f0001e007800307e88000080fa00000006006c
:104900000000fa00407e80000080fa0000000600ef
:104910000200fa00000f78001e007800407e880038
:104920000080fa00000006000200fa00e202a8007f
:104930000000eb00000f7800010037001e0fe800b8
:10494000f07022009e0f1000fcff3400670007008b
:10495000100007000080fa00000006000400fa00c2
:10496000000f780011079800d0afef00ce2fef00b6
:104970009e0090001e0078007b0007000080fa0077
:10498000000006000000fa00e202a9000080fa0020
:1049900000000600811f7800801f7800f0ff2700cc
:1049a000c0128800003020000000b300d012880040
:1049b000de02a90000000000e002a9009001090049
:1049c00000000000e002a80041e2a8004602ae009c
:1049d000feff3700f0ff2700c012880000402000d3
:1049e0003001b300d01288004602ae00feff37004f
:1049f000f0ff2700c0128800001020000030a00047
:104a00000040a000d01288004602ae00feff370032
:104a1000f0ff2700c012880000202000d01288007c
:104a20004602ae00feff3700f0ff2700c0128800ec
:104a3000006020000010a000d01288004602ae00e6
:104a4000feff3700f0ff2700c01288000070200032
:104a5000f005b300d01288004602ae00feff37001a
:104a600001f0200030128000010060000000e00032
:104a7000fcff3a0030128000010060000000e000fe
:104a8000fcff320030128000010060000000e000f6
:104a9000fcff3a0030128000010060000000e000de
:104aa000fcff32004662ae00020037008012800038
:104ab0009012800041e2a900f01e20001012880030
:104ac0004362a8004342a8008920a900a8c0a8000a
:104ad000a8a0a900a880a9009120a80041e2a800f0
:104ae0004f007800cf00780000000600801f78009b
:104af0004022ef004222ef004422ef004822ef0064
:104b00004c22ef00c6e2a800e5a2a900e582a800b9
:104b1000e5e2a900e5c2a9004002a9004022a900df
:104b200040a2a9004122a90040c2a8004102a90058
:104b30004142a900f00e2000101288004362a90033
:104b40004342a80030002000201288004c02a80038
:104b50004802a8008920a9009120a90041e2a900eb
:104b60004f00780000000600811f7800821f780047
:104b70004100dd00030037004f017800cf007800ce
:104b800000000600917e88000001eb00a1622a006f
:104b900081004000030039000200280082804000ac
:104ba000120020004400f8003400f8004440a8003f
:104bb0000000200002004000a0018800000000006a
:104bc0001c26020000000000110078000000a10077
:104bd000c01288001c2602000000000011007800ae
:104be0000000a100d01288001c2602000000000076
:104bf000110078000000a100e01288001c260200cd
:104c000000000000110078000000a100f0128800f0
:104c1000d2afed00d2afed00917f8800a1018000fe
:104c2000a17e88003400f900000000004400f90073
:104c30008920a900d0ff3700e2804000040039003d
:104c4000a1018000e1804000a1018800010028004e
:044c5000000006005a
:020000040000fa
:0200000401f009
:04000000e6ff000017
:020000040000fa
:0200000401f009
:04000400ff7f00007a
:020000040000fa
:0200000401f009
:040008007fff000076
:020000040000fa
:0200000401f009
:04001400ffff0000ea
:020000040000fa
:100008006abb00006abb00006abb00006abb000054
:100018006abb00006abb00006abb00006abb000044
:100028006abb00006abb00006abb00006abb000034
:100038006abb00006abb0000681800006abb0000c9
:100048006abb00006abb00006abb0000ec1100003c
:100058006abb00006abb00006abb00006abb000004
:100068006abb00006abb00006abb00006abb0000f4
:100078006abb00006abb00006abb00006abb0000e4
:100088006abb00006abb00006abb00006abb0000d4
:100098006abb00006abb00006abb00006abb0000c4
:1000a8006abb00006abb00006abb00006abb0000b4
:1000b8006abb00006abb00006abb00006abb0000a4
:1000c8006abb00006abb00006abb00006abb000094
:1000d8006abb00006abb00006abb00006abb000084
:1000e8006abb00006abb00006abb00006abb000074
:0800f8006abb00006abb0000b6
:020000040000fa
:100108006abb00006abb00006abb00006abb000053
:100118006abb00006abb00006abb00006abb000043
:100128006abb00006abb00006abb00006abb000033
:100138006abb00006abb0000681800006abb0000c8
:100148006abb00006abb00006abb0000ec1100003b
:100158006abb00006abb00006abb00006abb000003
:100168006abb00006abb00006abb00006abb0000f3
:100178006abb00006abb00006abb00006abb0000e3
:100188006abb00006abb00006abb00006abb0000d3
:100198006abb00006abb00006abb00006abb0000c3
:1001a8006abb00006abb00006abb00006abb0000b3
:1001b8006abb00006abb00006abb00006abb0000a3
:1001c8006abb00006abb00006abb00006abb000093
:1001d8006abb00006abb00006abb00006abb000083
:1001e8006abb00006abb00006abb00006abb000073
:0801f8006abb00006abb0000b5
:020000040000fa
:104c540006000000260000001f00000012000000f3
:104c640027000000180000001c0000002d000000b8
:104c740041000000fd000000e500000032010000da
:104c84008b0200001e0200004400000024ff00000c
:104c9400b8fe0000bdfe00003dff000027ff00003d
:104ca4003dfe000026fe00009efc0000dcf9000032
:104cb4003bfe0000c908000044100000d60e0000ae
:104cc4009405000033fb00005ff600008ff700003e
:104cd4008afa00008afb0000a3fa0000a1fb00008e
:104ce40021010000e7080000a60d00001a0c0000d6
:104cf400bb03000046fb0000a9f80000d3f9000044
:104d040037fd00004aff00005afe0000c3fd00000a
:104d1400d6ff0000f90300002c060000d8010000b3
:104d2400d0f8000029f80000cf030000ff0f0000b6
:104d34007f110000d406000014f9000088f200007e
:104d4400ddf5000006fd00007a0000009ffd000074
:104d540059fa000033fd000016060000d30d0000d0
:104d6400b20d0000ec04000025f9000007f5000076
:104d74009bf8000020ff0000150300000001000064
:104d8400adfd0000e6fd0000a702000027070000bb
:104d94008703000013f7000027f100003dfd000029
:104da400bd100000b41900009e100000f7fd0000c3
:104db400c3f00000d8f000003ff900003bff000002
:104dc400b2fc000016f7000030f80000c601000035
:104dd400a20d0000211300003a0d0000a5010000ff
:104de400acf8000082f5000006f9000051fd000057
:104df40048fd000002fb0000f7fa0000c9ff0000b4
:104e0400d70600002e0700001afd00004bf6000034
:104e14002dff0000980f0000d21600009b0d00002b
:104e2400a4fb000013ef0000a5ef00005ff80000f2
:104e340010ff00009efd000076f900007dfa0000de
:104e440021010000390b0000b112000050100000d5
:104e54001006000049fa0000bbf20000edf3000068
:104e640083f9000095fc000066fc0000c6fb00000e
:104e740015ff00003005000078040000befc0000af
:104e840022fb00003006000051130000be13000096
:104e9400bf050000a0f40000beec0000cbf0000051
:104ea4003bf9000017fd00004ffa000009f900006b
:104eb4007cfc00008e030000790d0000db12000072
:104ec400470e0000c7010000c8f40000b1ef000065
:104ed400e5f300002cfa000026fc00001dfb000096
:104ee400d7fa00005e00000017060000d40100009d
:104ef40011fa0000f6fc0000120c00003617000046
:104f04009511000010ff000067ee0000e5ea0000c4
:104f14005ef200002afb000032fc0000abf8000047
:104f240087f900007bfe00002708000098130000aa
:104f340000160000000d0000c8fd00004cf0000049
:104f440057ed0000c0f30000e1f90000cffb0000c2
:104f540077fa000065fc00001d04000098060000bc
:104f6400ea00000094fd000044070000b4140000af
:104f74008d1400003204000080f0000075e8000089
:104f840049ee00001df90000defd00009afa000061
:104f9400f2f9000009fe0000ec0400007a0f0000a2
:104fa4007c1500000d1200004c050000ebf400001d
:104fb400d3eb00000fef000015f70000e4fb000046
:104fc400d8fb0000d8fa00008d0100005c07000047
:104fd40079050000ef010000450600006b11000098
:104fe400d1130000d40600006df3000041e9000075
:104ff40040ed00005df8000088ff000070fd000037
:105004004bfc00005eff0000fe020000f1090000fe
:10501400dc110000fa1500000a0f0000d5fd0000a5
:1050240021ee00002aeb0000e7f2000006fb00007e
:10503400a4fd0000dffa000071fe000098050000e6
:10504400cc0800008a0a0000b80b0000f50e00002e
:10505400d40d0000020300002af400008cec0000d0
:105064009fef000020f8000077ff0000feff000023
:1050740050010000ca030000ee010000100200000d
:10508400e7090000ab160000bd180000ff0800008f
:10509400daf20000b5e7000046ed00000df900006b
:1050a400a0ff00002cfc000085fa0000860100002f
:1050b40060080000780f0000d9120000e81000001a
:1050c400ae0a0000bffe0000daf2000031ee00007c
:1050d40047f2000040f8000091fd0000f3fe0000dc
:1050e400c8020000890800009405000028000000a0
:1050f400bf0100003a0f0000181a0000db11000085
:105104000cfb00008ee800002ae800005ff40000b9
:10511400deff00009bff0000bcfa000037fe000029
:10512400fe030000eb0a0000d31000003c13000053
:10513400ea1000000c05000059f5000042ec0000e4
:105144000fef000001f60000c1fb000026fc000088
:10515400d9fd000011060000b90800001108000084
:1051640034070000850a000086100000630c00006c
:10517400c9fc00000aed0000cee90000bef1000009
:10518400fdfc0000530100005cff00000102000070
:10519400af02000067020000190700002d0f000095
:1051a400e31500001c0f000057fc0000eceb0000ae
:1051b400c0e9000065f2000030fb00001dfd0000a6
:1051c40016fa0000c4ff00004f0700003809000071
:1051d400070b0000a90b0000e90d0000950b00006f
:1051e40065ff0000ebf00000ffea000058ef00004c
:1051f400c1f7000087fe0000b8fe00005d02000059
:10520400b70600000a040000f70200005906000077
:10521400ca0f0000251400003c0800002ff4000011
:1052240050e80000d7eb0000a7f60000a7fe00003e
:1052340024fd000006fc00002303000023060000f8
:10524400430700009d090000110e0000b611000084
:105254004c09000040f800004deb000001eb000099
:10526400c6f2000032fb000078fd000085fd00005e
:10527400d4040000ff07000041070000cf0800002d
:105284000e0b0000f60e00007a0a0000b5fb0000c9
:10529400d3ed0000e9ea0000fff1000027fb000065
:1052a40001000000b6fe00002d0300000807000006
:1052b40058030000dc020000870700005f110000b3
:1052c4001014000081060000f5f20000ade80000b3
:1052d400eeec00008bf70000f8fe000096fd0000e5
:1052e400f4fd0000c7050000d1070000e20700003c
:1052f40046090000900c000027100000c1080000bf
:1053040011f900009eec0000d1eb0000c4f3000092
:1053140047fd0000d1000000d4ff0000300500006c
:105324001807000097040000a60500008908000083
:10533400ab0e0000810e00005902000019f30000ba
:1053440026ec00008ff00000f5f900008200000058
:10535400fefe0000deff00003c0500001a04000011
:105364002c030000bf060000330e00008913000068
:10537400fb0b0000cffa0000e0ec000072eb000031
:10538400c3f3000016fd00008dff00005ffd000068
:10539400af020000d60700002f060000e60500005b
:1053a40039080000e00c0000640d0000da0300007e
:1053b400daf50000dfed0000b3f0000038f900007a
:1053c4001d000000fffe00002afd00004102000055
:1053d4009d0300000a030000eb060000b70b000069
:1053e4001f0f0000fb0b000066ff0000baf2000074
:1053f40083ef00006cf40000c2fa0000a5fc00007a
:105404007bf900003bfc00008a05000096060000c2
:10541400c403000037060000310c00006d100000ca
:10542400c00a0000b8fb000080ef000016ee000088
:10543400e0f4000092fb00004cfc0000f1f80000d6
:10544400b2fd0000c50700004c0700000a0300007d
:1054540077040000540b00007d100000cc0900000c
:10546400cbfa0000f9ef000099ef00001df60000f0
:1054740040fb000068fa00005af700008afd0000b3
:105484002e0800005808000017040000b1040000b2
:10549400440a0000750e0000220900002dfc0000e3
:1054a40072f10000e1ef00005bf50000ccfa0000af
:1054b400a4fb00007df90000e6fe0000d90700000f
:1054c400e50600005602000080030000c909000040
:1054d400f30d0000dc09000001ff000081f500006d
:1054e4000df2000028f40000a3f80000ccfa00003c
:1054f400b5f90000aefd000075060000e6060000e8
:1055040065010000c50100003d0a00003d110000d6
:10551400bd0e0000e901000093f4000077ef0000e5
:1055240062f200005ef8000069fa0000f9f8000079
:10553400ccfb00002d070000240d000088060000ad
:105544001b010000a7030000ba0800001d0c0000a6
:10555400650700009bfb00005ef20000def0000027
:1055640054f7000074fe000031ff000046fb000009
:105574006afe0000c0040000ec02000087ff000087
:1055840082040000090e0000aa120000530e00005d
:10559400a5000000e8f3000011ef0000e6f10000b0
:1055a400a7f7000032fa000003fa0000a0fe000092
:1055b400450a0000f90c0000de02000024fd000092
:1055c40040040000490e0000da1000006e080000dc
:1055d400f7f90000d3f00000a0f00000f5f6000099
:1055e400dafc000072fd0000c0fb00005401000062
:1055f400c50a0000180800004afe000030fd000043
:1056040026070000de1000009d110000290700009d
:10561400a1f800007bf0000003f20000d2f80000c3
:10562400c1fb0000faf90000f6f900007f04000055
:10563400cb0e0000f6080000b9fd000063fe000078
:10564400ec080000f40e0000510c0000740200008d
:10565400cef70000d6f200000bf5000088fa000037
:10566400c6fb0000bbf9000037fa00002905000062
:105674001a0e000084050000f1f9000087fd000007
:10568400c30c00001e150000580f00000d000000a0
:10569400d0f2000083ef000057f40000c2fa0000cb
:1056a40009fb000091f80000e6fa0000e50700009d
:1056b40037110000e205000067f60000eef8000074
:1056c400740b00009a170000b6110000ecff0000f4
:1056d40001f10000d2ee00004af500006efb00006c
:1056e400fff9000037f6000076f900006c080000ae
:1056f40045140000eb08000002f50000aaf30000c6
:1057040002070000d91600003a130000f801000057
:10571400baf20000dcf00000c8f70000edfc000065
:10572400f1f90000e2f3000013f500005203000059
:10573400e1120000550c00006af700001ff200009f
:10574400180500005819000054180000b0040000a7
:1057540047f0000036eb0000f0f30000bdfd000050
:105764003bfe00006ff600008bf300005afe0000c1
:10577400171200006d140000b0fd000037ec0000ab
:1057840004f7000036110000ac1b00007d0f000080
:1057940005fa0000dced0000a2f200000afd0000a2
:1057a400b3ff000072f600000dee0000fcf30000f1
:1057b4002f090000601a0000750d0000e5f10000db
:1057c400c6eb0000d1030000491c0000ba19000018
:1057d4003403000013ef00003fee000020fb000044
:1057e4002d03000042fc000031ee00006eec0000ce
:1057f4006cfd000099160000e01a00009cfe0000f9
:1058040031e5000013ee0000bd100000e2240000aa
:105814009b160000d5f9000006ea000096f100008e
:10582400290100005e030000dbf4000075e70000be
:10583400b6ee0000be070000881e0000ce16000071
:1058440016f300004ddf000070f40000e01a0000c1
:1058540031260000b50d000023f00000d2ea00005c
:10586400cffc0000ed0a0000ac0100009cea00003f
:1058740069e00000dcf10000bf0f000069200000b7
:105884002f100000afea0000cfdc0000fdf900009b
:1058940019230000402b00007d0c0000afea00003b
:1058a400f3e8000021020000201100009100000034
:1058b400bae20000edd9000022f400004018000014
:1058c40038250000220e0000e2e5000034d9000073
:1058d4003bf900000a2500008c2d00008a0d000011
:1058e4008aeb000082eb0000da050000f8120000e9
:1058f400e7fe000075df00004fd800008cf40000c4
:105904007d180000ae220000420d00004ce90000aa
:1059140097db00001ff7000094200000f22c000029
:105924003112000044f0000072eb00003a03000062
:105934005b130000e902000015e30000c8d8000072
:10594400b9f1000099150000611f0000e00a000091
:1059540086ef00008ce2000050ee00007f0a000099
:1059640093200000261f00008d0c000032fe000072
:1059740097000000bc070000afff0000f0e8000043
:105984001cda0000b2e5000039030000e61700004d
:105994001a140000f803000004f5000015ef0000dd
:1059a40087f90000760d00008b1800004d110000ef
:1059b400bc0100006dfc0000110600004c0c00004e
:1059c400acff000061e900000fe000008ced000076
:1059d40045050000c71100005b0c000090ff0000ab
:1059e40042f300005cef000073fc0000a91000000b
:1059f400f9190000c01300008c080000d604000050
:105a0400f40500001b00000070f000003de20000ff
:105a140057e4000095f60000260a00002d1000004f
:105a2400550900000501000046f80000acf2000032
:105a340099f900007b0b00005119000010160000ba
:105a44003008000031000000b70200000903000024
:105a5400cbf7000005e90000e9e4000043f1000091
:105a640051040000d60d0000fd090000b3fd000044
