:020000040000fa
:080000001001040000000000e3
:020000040000fa
:100200002409040000000000881e04000000000013
:100210002223040000000000062404000000000067
:100220002f57210080792200000188000000000083
:10023000050007000c000700aa0b020000000000e8
:100240000040da000000fe004440a9000000200049
:100250000000e0000300320000002000a001880040
:100260004440a80000000600e0392d0001002000f5
:100270001600370062004000e080480091018800cd
:100280009001ba0062004000e080480091018800bf
:100290009002ba0062004000e08048000002eb00db
:1002a0006028e10005003a008301e90007003300ff
:1002b000038009000059eb00040037006128e100c9
:1002c000010032000082eb00050007009101880068
:1002d0001001ba000200e000e6ff3a00000005004d
:1002e000910188008002780062004000e0804800b0
:1002f0003559ba008301e900080032002559ba00d7
:100300008301e900050032000400e000f4ff320040
:1003100015d9ba008301e900f1ff3a000000060098
:10032000889fbe00e30440000900a100808f5400b4
:1003300049003600e38f540001003e0049002000d0
:10034000b09a80000000e0000200320080007800d7
:100350000c0037008135210003003700908f5400d6
:10036000230036008080e800110078001100e000d2
:10037000faff3a000f003700928f54001c0036003d
:100380008280e800110178001100e000faff3a00d5
:10039000100178008135210003003700908f540050
:1003a000130036008080e80011007800820f5000b2
:1003b000faff3a00a89a8000890f5400010031002a
:1003c00009047800080078006b0007000000e000d6
:1003d00004003a00890f54001f0032000804d100c5
:1003e000f5ff37000818780030000700d4ff370009
:1003f000110178009201780064805100890f50004b
:1004000003003100120090008008780007003700d8
:1004100009004100800878009201900013009800c4
:100420001100780012881400090978009101780001
:100430001100e00004003200130090008380e80007
:100440000000e00001003a008000eb00b19a880053
:100450000280e800010037000000eb004f04be00fe
:10046000000006000004780006003700820041000a
:10047000e09a8000e10078000200e800d09a88004d
:1004800001000100d29a8000f09a8000800f510094
:10049000f6ff3900202c2100e09a8800200220007d
:1004a000f09a8800080078003a0007000000e00099
:1004b000300032008080e90091027800e38f520022
:1004c0002c0036000508a3002a003a00c29a8000da
:1004d0000200e00002003200828f50000400310070
:1004e00002087800c19a88001600370003017800de
:1004f000920190000300e00002003200818f510061
:10050000faff39001202780004004100808f500089
:1005100018003900810f500003003a00050942001d
:1005200082007800070037000300e000030032007b
:1005300005804000808f51000e0039009300980024
:1005400011019800110190000200e0000900320042
:1005500011804000820f500006003a005633ef0031
:1005600011009000110178009008410010009000e7
:1005700090009800000006000000e0000300340036
:100580000c000700e10f400001003a000000eb0002
:10059000000006000c02e20004003d000f42ab0028
:1005a000020032000f02ab00feff32000040da0012
:1005b000feff3700889fbe0080047800809b80008b
:1005c0000000e00003003a00100007000000e00017
:1005d0000a003500809b80000900e00002003a001c
:1005e000000478000600370000047800090040008d
:1005f000060007000000e00001003d000084eb0061
:10060000080078004f04be0000000600800078005b
:100610000000e00004003a0020372100809b8800a1
:1006200001017800060037000081eb00205721000f
:10063000808f500002003e00819b88000001eb008b
:100640000200780000000600839f68000100e000bf
:1006500002003d0060001000e08018000300e00090
:1006600002003d0060011100e08119007d010700da
:100670004f00e00002003b0060001000e080180026
:1006800000000600889fbe008a9fbe00010578001a
:100690000100e0000400350008003c000000e0001c
:1006a000200032000500370060001000e0801800d4
:1006b00002003b0001f02c001a0037000004be00cd
:1006c0006011b8006b0920000982cf0002003900d8
:1006d0000882cf000441b000694252000e0032008f
:1006e00008003b0082817100610164008904d1002f
:1006f0000884d3008b05e8000442e800f9ff3a00c3
:10070000050037000804440089844c008b05e9008b
:100710000442e900fbff3a00620107000af0a7006b
:1007200001f0a0004f05be004f04be00000006000f
:10073000889fbe008a9fbe008c1f78000004be0008
:100740007e0107000478a30026003a006120e10042
:100750002500320009f8a30025003a006420e100da
:1007600021003200f507b1000508a30002003200a5
:1007700000004000818048006044b8000310200061
:10078000020020000000400081804800080544006d
:1007900089854c000a0541008b8549000a055000f7
:1007a0008b855800030033000a00be000204740069
:1007b000838474008301d1000281d300830f710010
:1007c000f0ff3a008904d1000884d3006001490099
:1007d00082017800c1adde00fb07b00031010700e7
:1007e000740137000960a0000800be0071013700e5
:1007f00012022000729b8800f0ff2f00f1ff2700fb
:100800006c013700889fbe008a9fbe008c1f780055
:100810006f0107001002200002003b00709b88005f
:100820005b0137008a0062006408e10002003a00c0
:10083000709b8800630137006108e100fcff320013
:100840000800be0003047800c400070001f0a10006
:100850006701070008f0a600040037000001be0091
:1008600091042400b0fd20003700070009f0a70024
:1008700001f0a2004f013700889fbe008a9fbe0092
:100880008c1f7800520107004101330003866c0081
:100890006450e100240032006420e10027003200af
:1008a0006150e100220032006120e10021003200ad
:1008b0008b854200eb07b1000134b800003ab80064
:1008c0000804420089844a00013ab8000030b800a8
:1008d0008880400009014a00040033000000400005
:1008e00081804800020149008b05e900c909dd004b
:1008f000830170000100320013002000c814de00e4
:100900004814dd004709de001200b200c808de000e
:1009100008847000e300070001f0a1000cf0a700bc
:1009200001f0a000230137006120e1002501320021
:100930000801be000200be00f7ff37006150e10071
:10094000fcff3a001f01370003f0a200889fbe00a1
:100950008a9fbe008c1f78001d0107000c01330028
:100960006450e1004f0032006420e1005200320088
:1009700003826c0007003b000905d0000306d0008d
:10098000820f54000c065d000200390002003200a4
:1009900089017800030678008582550004003d0037
:1009a0000003fd008103fd008502ea008b85420003
:1009b000840f720002003b0060001000e08018000d
:1009c0006011b8000005eb007a28e1000a00390048
:1009d00006007800c75ddd00f707b200878075006c
:1009e0002d003700828171000a01780061056000e6
:1009f0008180d1000080d3008502e900f9ff3b002f
:100a0000060440008784480002003b006004140094
:100a1000e0841c000988a300070032008a8171006d
:100a200082817100610164008904d1000884d300cf
:100a30008b05e800170037000978a30013003a007f
:100a40000b00e000130034008b05e90008044400ab
:100a500089844c000a4474000978a3000d003a0010
:100a60000b00e000070034008b05e9000804440097
:100a700089844c0001003a000b0020000978a30093
:100a8000f7ff32000001eb000200370082817100a5
:100a90000a017800830007000cf0a70001f0a00015
:100aa000c40037006420e10002003a00838f6c002c
:100ab000c40033000801be000200be00bd003700c4
:100ac000140020002f0137000001be009b0007002a
:100ad0000470a70003f0a1006509b1001600320000
:100ae0000d0035006828e10006003500f0ff2f00fa
:100af000f1ff27000300e00013003b000100280085
:100b00000000050000004000818048008502e900e7
:100b1000fcff3a0008003700f88f420002003c005a
:100b20008000eb00000005008100d1000080d300b0
:100b30008502e800fcff3a000300e00002003b00f1
:100b400060001000e080180000000600f4ff2f0095
:100b50000c013700040020000a013700889fbe0006
:100b60008a9fbe008c1f7800990007008800330020
:100b700003866c006450e1002e0032006420e10026
:100b8000330032006150e1002f0032006120e100ab
:100b90003100320085855500eb07b00009002000c8
:100ba00008042000050037000804440089844c0034
:100bb0000a0031000603430087834b000001530005
:100bc00081815b00f8ff33000203be000800a00033
:100bd0000804440089844c00f6ff3900c639dd0062
:100be0008301730001003200130020008904d1004a
:100bf0000884d3000998a300050032000800a7006c
:100c00000300a0008904d1000884d3008b05e8000c
:100c10008904d1000884d3000001eb000281d200d6
:100c20002000070001f0a1000cf0a70001f0a000d7
:100c3000600037006420e100620032000801be005d
:100c40000200be00f7ff37006120e1005d003200c6
:100c50006000b800f3ff37000000200001f8270013
:100c6000f0ff37006022b800060220000000d0002c
:100c70008180d2000482d2008582d2000000a000d0
:100c80000202520083825a0003003b00020242002b
:100c900083824a000000a1000603e900f3ff3a0046
:100ca0000000060081002000618055000b003d001f
:100cb0000b00200061fe2f000100e1001d00340048
:100cc00082817100610164008904d1000884d3002d
:100cd0000000e800faff3a007100200061006400a3
:100ce000030070000200600009003200610444004b
:100cf000e0844c000988a500050032008b05e8005f
:100d00006808e10002003a008904d1000884d30099
:100d1000f20f20000258e10005003d00c75ddd0034
:100d2000f907b2008980750008007800000006000d
:100d30000bf827008b00780000000500c70ade00d2
:100d4000f107b200f50fb20008003200e1cf420017
:100d5000020032000170a00024000500810f700025
:100d6000010032000408050044000500810f7000f6
:100d700002003a00140005008502e900000040006e
:100d800081c04800fcff3b000170a000240005006a
:100d90000200be006450e100050036006420e1005e
:100da000020036000968a30001003a000800be00f6
:100db0000160a0004f0678004f05be004f04be0042
:100dc00000000600f0ff2f00f1ff2700f9ff3700b9
:100dd0000004be00d9ff07000003be000405be00ea
:100de0000200be00d5ff0700844f7500000006001a
:100df000889fbe008a9fbe008c9fbe000004be007c
:100e0000ceff07000800be00890678006420e100dc
:100e100008003900040032000160a0001202200026
:100e2000729b88005300370091fc2300b0fd200026
:100e30004e0037000006eb0009f0a10003f8230084
:100e4000020020000800be001dff0700060034005d
:100e500001f82300000020000801be003fff07004a
:100e60000004be002c0020000800be0093e8230010
:100e7000320a230012ff0700120034000801be00ee
:100e8000d1fd2300703d2b00b0fe07000005be0021
:100e9000b3f32300f27a26000800be0076fe0700b6
:100ea00003f8230002002000a7fe07000801be008f
:100eb000a6fe07000a01be0028ff07000004be00ce
:100ec0000c06e8000800be0001f0a10002002000ae
:100ed00003982300fafe07000800be001600350044
:100ee0000801be0064fe07000005be0032cd2c00e4
:100ef00043fb230095fe0700809fbe001269280077
:100f000003d52b000a00be005bfe0700620f210024
:100f100013ef2b008dfe07000a01be0056fe0700ee
:100f20004f01be000dff07000801be0052fe070082
:100f30000801be0085fe07000c00e0000b00320037
:100f40000c10a70001f0a200b2fd200093fc2300ca
:100f50006260e1000400320022a9200063f0230057
:100f60000c10a70063f8230078fe07000df0a7001f
:100f700001f0a2004f06be004f05be004f04be00a8
:100f800000000600889fbe008a9fbe00841f780074
:100f90008fff07004f00780011003300f0ff2f0093
:100fa000838f6c0006003b00040565000a00a70063
:100fb0000800370009f0a6001000200008003700e4
:100fc000820f5400838f5c00030039001000200062
:100fd00001003e000000200009f0a7000000ea0028
:100fe0004f05be004f04be000000e00000000600f8
:100ff0000000fa0041020700760e07000040eb00f7
:1010000070050700890707003e080700ffff37004b
:101010000000fa00600a2100161007007010070097
:101020000000e000fdff32000080fa000000060032
:101030000a00fa006000b8003007980041079800e5
:101040004f0037003e009000ce00900000004000ae
:1010500081804800620a21000200400010407800b0
:101060008000fb00800f20000080600010079800c7
:101070003e009000ce0090000000400081804800bb
:10108000620a210002004000104078000000fb00ce
:1010900067006000000040000000400000004000c9
:1010a0000000400000004000800178003e009000f9
:1010b000ce009000000040008180480061004000a8
:1010c000e0804800620a21000200400010407800e1
:1010d0008000fb00000e2000008060004380de00e6
:1010e00000807100200798001e009000210320005e
:1010f000808040002e009000808f500009003d004d
:101100003e009000ce00900080004000601421005e
:101110008080400010002000800878001e0fe8004a
:10112000070037003e009000ce0090008000400095
:1011300060142100808040000000eb0080087800ef
:101140001e00e00005003400100020000100200017
:10115000308f8800418f8800030037006000b8009e
:10116000308f8800418f88003e009000ce009000b4
:1011700061004000e0804800300798004107980077
:101180003e019000ce019000f004200001002000fc
:10119000800f5100818f5900aaff34000080fa00af
:1011a000000006000800fa000000eb00200798008d
:1011b0000000eb00100798000000eb00000f780023
:1011c000120037001e0078008000400060142100eb
:1011d00000804000900078002e0090000100400048
:1011e00020079800810220001e80400080004000ff
:1011f0006014210000804000900078001e009000e4
:1012000001004000100798001e0fe8007002200047
:101210009e0f1000ebff3400ae0090001e00900007
:10122000808f500003003d00100020003007980020
:10123000020037008000eb00310798003e0090006c
:101240000080fa00000006000000fa00d5ff070049
:101250000000e00005003200401f2000e60d0700fe
:10126000c0e02f00210e070004003700c0e02f006f
:10127000e10d0700401f20001c0e07000080fa004f
:10128000000006000000fa00401f2000da0d0700f1
:10129000401f2000150e07000080fa000000060025
:1012a0000000fa001e100700160020004500200074
:1012b000840020004300200002282000e10e2000ce
:1012c0000000eb00ca0f07001100200010002000f2
:1012d000f30f0700091007000080fa000000060065
:1012e0000400fa00000f7800300020009e0f10006c
:1012f000030034001000200010079800020037009f
:101300000000eb00100798001e0090000080fa001b
:10131000000006000200fa00e1ff0700790707005d
:10132000000037003aff070041ff0700918c800062
:10133000a08c800080804000b08c800080804000c5
:10134000c08c800080804000d08c80008080400075
:10135000e08c8000008f4000300020009e0f1000c5
:101360000400340040922000ab070700c5ff0700cf
:10137000ecff3700328f8000438f80001000200088
:1013800001002000800f5100818f590004003a00b5
:10139000a1282000409220006f070700e1ff3700de
:1013a000409220009c0707000000eb00920d070010
:1013b0000000eb00cd0d0700daff37000400fa0053
:1013c000060a07000000eb00000f78000f0037004e
:1013d0001e00900011002000550807000200370091
:1013e000000000001e0fe800f07022009e0f1000a9
:1013f000fbff34001e0090008000eb004c0807004b
:101400001e0090000000e800100798001e009000e9
:10141000e90f5000eeff34000080fa0000000600e3
:101420000800fa0037070700401f2000720d070070
:10143000401f2000ad0d0700000037001100200004
:10144000100020003a0807000000eb00e206070049
:101450008000780000322000808f500006003c00a1
:1014600010002000dc060700800078000032200019
:10147000808f5000310034000000eb00d6060700da
:101480008000780000322000808f5000030034007c
:10149000110020000000eb002508070010002000cc
:1014a000cd0607008000780000322000808f5000b9
:1014b0000300340011002000100020001c08070069
:1014c000e0e32f0010079800201c2000000f780098
:1014d0001e007800850d07001e009000460d0700d5
:1014e0006000b80020079800310798000700370017
:1014f000000000002e009000be009000610040003f
:10150000e080480020079800310798002e019000e5
:10151000be019000f0c3290001002000800f51009f
:10152000818f5900f2ff3400401f2000320d070068
:10153000401f20006d0d0700a80907006000200073
:10154000a50607008000780000322000808f500040
:1015500006003c00700020009f0607008000780015
:1015600000322000808f50003100340060002000e5
:10157000990607008000780000322000808f50001c
:10158000030034001100200070002000e80707006d
:1015900070002000900607008000780000322000d4
:1015a000808f5000030034001100200070002000e4
:1015b000df070700201c200010079800e0e32f0041
:1015c000000f78001e007800480d07001e009000f4
:1015d000090d07006000b800200798003107980047
:1015e00007003700000000002e009000be009000b1
:1015f00061004000e0804800200798003107980013
:101600002e019000be019000f0c3290001002000cf
:10161000800f5100818f5900f2ff3400401f2000dd
:10162000f50c0700401f2000300d07006b09070074
:10163000300020006806070080007800003220009b
:10164000808f500006003c0050002000620607001a
:101650008000780000322000808f500077ff340037
:10166000110020000000eb00b1070700110020006e
:1016700010002000ae07070011002000200020000d
:10168000ab0707001100200030002000a80707006a
:101690001100200040002000a507070011002000d5
:1016a00050002000a2070700110020006000200069
:1016b0009f07070011002000700020009c07070012
:1016c00001f5210040b12200870d0700c05d200018
:1016d000c90c0700c05d2000040d07006000b800c1
:1016e000200798003107980007003700000000002d
:1016f0002e009000be00900061004000e080480095
:1017000020079800310798002e019000be0190003c
:10171000f070220001002000800f5100818f5900dd
:10172000f2ff34002d090700401f2000b20c070013
:10173000401f2000ed0c070040ff37000000fa00ba
:101740002609070000712200010020002f00070079
:10175000fbff37000400fa00680007009d0c07003b
:101760000040eb0097030700b005070038000700b2
:10177000000f78001e007800100798001e009000ef
:10178000e20f5000180032001e009000e20f5000df
:1017900007003c001e0090000000e0000e00320038
:1017a0001e009000e10f50000d00320015003700c0
:1017b0001e009000e40f50000f0032001e00900049
:1017c000e40f50000a0035001e009000e50f5000a5
:1017d0000b0032000b003700d8ff0700090037006c
:1017e00003fe0700070037000dff07000500370064
:1017f000c8fe070003003700310007000100370072
:10180000ceff07000080fa00000006000800fa0082
:1018100020079800310798006000b800008fbe00d4
:101820000400370010002000010020001e0f4000bf
:101830005e9748002e009000be009000be0f100082
:10184000ae8f1800f7ff35000080fa000000060098
:101850000000fa00e6c2bf000080fb004600de0088
:10186000614060000081fb00e7c2bf000080fb0018
:101870000000d100614060000080fb0000004000db
:1018800080007800e7c2bf00614060000080fb007c
:10189000008040000000400080007800e6c2bf00e9
:1018a0000080fb004700de000080fb00008040005d
:1018b00000004000000041000080fa000000060027
:1018c0000800fa000d000700420c07000040eb0082
:1018d0003c03070055050700401f2000460c070089
:1018e000401f2000810c070006060700ffff37009d
:1018f0000000fa000080fa00000006000000fa0074
:10190000c4c2a900c4e2a900c522a900c582a900d9
:10191000c542a900c5a2a900c5c2a900c5e2a90087
:10192000c0c2a900c0e2a900c122a900c182a900c9
:10193000c142a900c1a2a900c1c2a900c1e2a90077
:10194000d022a900cc22a900d042a900cc42a900f3
:10195000e2e2a900e302a900e802a900e822a90046
:10196000dee2a900df02a900e402a900e422a90046
:10197000e202a900de02a900d602a900d622a9002f
:10198000d642a900d662a900d682a900d6a2a90093
:10199000d6c2a900d6e2a900d202a900d222a9008b
:1019a000d242a900d262a900d282a900d2a2a90083
:1019b000d2c2a900d2e2a900d1a2a900cda2a90059
:1019c000e842a900e862a900e442a900e462a90093
:1019d000de22a800dec2a800e4c2a800e4e2a8005b
:1019e000e502a800e522a800d302a800d322a8009f
:1019f000d342a800d362a800d382a800d3a2a80033
:101a0000d3c2a800d3e2a8000080fa0000000600bc
:101a10000600fa00000f78001e00780020079800ea
:101a20002e009000e10f5000140032002e009000b4
:101a3000e10f5000040039002e009000e20f50002a
:101a40001b003200270037009e007800129b8000a8
:101a5000200320000088b900020040008000400000
:101a600060e02000008040009000780040988000f6
:101a700080805000110798001c0037009e007800fd
:101a8000129b8000200320000088b9000200400063
:101a90008000400060e0200000804000900078005e
:101aa0005098800080805000110798000f00370088
:101ab0009e007800129b8000200320000088b9005f
:101ac000020040008000400060e0200000804000f4
:101ad00090007800209b80008080500011079800c3
:101ae00002003700a0292000100798001e00900077
:101af0000080fa00000006000c00fa004007980081
:101b0000510798006000b80020079800310798003e
:101b10004e009000e20f500030003e005e0090004a
:101b20000000e0002d003200de00900020032000c5
:101b3000808f500029003e000000eb001007980045
:101b4000119b80005e009000008050003003b000c8
:101b500022032000110009000280d8008000fd004f
:101b6000000f780019003700ce0090001e017800a9
:101b7000200320000088b9000200400080004000df
:101b800060e0200000804000100078006101b90092
:101b90002e009000be0090000000410081804900ae
:101ba00020079800310798001e0090000000e80010
:101bb000100798001e00e800220320001100090011
:101bc0000200d8008000fd00000f78009e00900009
:101bd0005e009000808f5000e3ff39005e009000af
:101be0006101b8002e009000be00900096fa070038
:101bf0000080fa00000006000000fa0051002000fa
:101c00000000eb00bcff07008000780040988000d7
:101c100000805000609888005100200010002000d3
:101c2000b5ff0700800078005098800000805000c9
:101c3000709888005100200020002000aeff0700af
:101c400080007800209b80000080500080988800f1
:101c50000080fa00000006000000fa00889fbe0025
:101c60008a9fbe00e4ff0700609880006103b9000e
:101c7000609880006101b9000235b80003b0b90076
:101c80000b027800000242000790b90000024200f7
:101c900084057800709880006104b9007098800015
:101ca0006101b9000243b80003c0b900070278001f
:101cb000000242000990b90000024200840378004b
:101cc0000a0543008b854b00809880006104b900b1
:101cd000809880006101b9000243b80003c0b900d8
:101ce00007027800000242000990b9000002420099
:101cf000840378000a0043008b804b0061fa0700e0
:101d00008bfa070090988800a1988800609880005e
:101d10006103b900609880006101b9000235b80024
:101d200003b0b9000b027800000242000790b9002e
:101d30000002420084057800709880006104b900b8
:101d4000709880006101b9000243b80003c0b90077
:101d500007027800000242000990b9000002420028
:101d6000840378000a0043008b804b0045fa07008b
:101d70006ffa07000004be0080988000cf80de006c
:101d800040fa07000801be009efa0700c2092300be
:101d900053262c00b8fa070002002000432b240031
:101da000eafa0700d0988800e1988800d09880006f
:101db000e198800002002000030a240040fb070095
:101dc0000000e00001003500040037006000b800aa
:101dd000b0988800c1988800110037007098800082
:101de000cf80de0027fa07000004be006098800064
:101df000cf80de0023fa07000801be0081fa070049
:101e0000c2092300532624009bfa07000200200089
:101e100043332400cdfa0700b0988800c1988800a9
:101e20004f05be004f04be000080fa00000006000f
:101e30000000fa00210320000000eb002eff070045
:101e40004098880021032000100020002aff07008e
:101e500050988800210320002000200026ff070062
:101e6000209b88000080fa00000006000c00fa00a9
:101e7000881f78000004780077ff070090988000a2
:101e8000a1988000008fbe00b0988000c1988000ab
:101e90002007980031079800d0988000e1988000d2
:101ea00040079800510798008e00780008007800dd
:101eb0001101be000288be0064004000e4804000c2
:101ec0001101be000288be0064004000e4804000b2
:101ed0001101be000288be00080078004f0478009f
:101ee0000080fa00000006000000fa005aff070018
:101ef000d0988000e19880000080fa000000060081
:101f00000000fa0054ff0700b0988000c1988000dc
:101f10000080fa00000006000000fa004eff0700f3
:101f200090988000a19880000080fa0000000600d0
:101f30000600fa00881f7800000478002eff0700d2
:101f400060988000000f780070988000100798005b
:101f500080988000200798001e00be00008cbe0004
:101f6000ae00900021049800080078004f0478002b
:101f70000080fa00000006000000fa001eff0700c3
:101f8000609880000080fa00000006000000fa005f
:101f900019ff0700709880000080fa00000006001a
:101fa0000000fa0014ff0700809880000080fa000b
:101fb000000006001600fa006000b800008fbe00a6
:101fc000cfff0700008fbe0030988000cf80de007a
:101fd000acf907001e01be005bfa0700bafa070061
:101fe000200f98002e0890000000e00003003d0044
:101ff000ae0890008100ea00210f98002e099000a1
:102000006110b9009ff9070002002000030a2400b4
:10201000cefa07000000e00001003c006701370035
:10202000c5e2a900c5c2bf000080fb004700de007a
:10203000614060000040400000404000004040001f
:10204000004040000040400000414000512c200072
:1020500091407800f0cbb30000c0600002407000f7
:10206000c5e2b700c5c2bf000080fb004600de002d
:10207000614060006140600000404000004040005e
:10208000004040000040400000414000512c200032
:1020900091407800f0cdb30000c0600002407000b5
:1020a000c5e2b700c5c2bf000080fb004500de00ee
:1020b000614060006140600000404000004140001d
:1020c000512c200091407800b0cfb30000c06000d8
:1020d00002407000c5e2b700c5c2bf000080fb002f
:1020e0004200de006140600061406000004040004e
:1020f000004040000040400000414000512c2000c2
:1021000091407800f0ceb30000c060000240700043
:10211000c5e2b700c5c2bf000080fb004400de007e
:10212000614060006140600000414000512c20008f
:1021300091407800d0cfb30000c060000240700032
:10214000c5e2b700c5c2bf000080fb000000d1009f
:1021500061406000004040000040400000404000fe
:1021600000404000004040000040400080404000ef
:10217000c4c2bf000074a10001407000c4e2b700f7
:10218000c4c2bf000080fb004700de006140600069
:10219000004040000040400000404000004040003f
:1021a0000040400000414000412c20009140780058
:1021b000f0cbb30000c0600002407000c4e2b70082
:1021c0000040eb002057980002002c00833a2400c6
:1021d0001e00be005dfa07000000e00001003c00a8
:1021e0000200370011c0b300215798000041eb00f6
:1021f0001257980002002000431b24001e00be005e
:102200002ffa07000000e000010034000200370050
:1022100010c0b30010579800ae5090001e519000af
:1022200002c070000004a2000004e00011003a00a7
:102230000040eb0000579800020028006342240091
:102240001e00be0043fa07000000e00001003a0053
:102250000200370011c0b300015798000e509000e3
:102260000004a2000004e00002003a00c4c2a8007a
:10227000cf0037000041eb00724f980002002000b1
:10228000431b24001e00be0030fa07000000e000df
:1022900001003c000200370010c0b300704f9800ee
:1022a0007e4890000004a2000004e00011003a0003
:1022b0008040eb00614f980002002000732824004a
:1022c0001e00be00fef907000000e000010034001f
:1022d0000200370012c0b300624f98006e489000b1
:1022e0000004a2000004e00002003a00c5e2a800d9
:1022f000af0037000040eb00504f98000200200074
:10230000732824001e00be0010fa07000000e00041
:1023100001003c000200370011c0b300514f98008b
:102320005e4890000004a2000004e00011003a00a2
:102330000041eb00424f980002002000132e2400c1
:102340001e00be00def907000000e00001003400be
:102350000200370010c0b300404f98004e48900074
:102360000004a2000004e00002003a00c5c2a80078
:102370008f0037008040eb00314f980002002000b2
:10238000132e24001e00be00f0f907000000e0003c
:1023900001003c000200370012c0b300324f980029
:1023a0003e4890000004a2000004e00011003a0042
:1023b0000040eb00204f980002002800d331240099
:1023c0001e00be00bef907000000e000010034005e
:1023d0000200370011c0b300214f98002e48900032
:1023e0000004a2000004e00002003a00c5a2a80018
:1023f0006f0037000041eb00124f980002002800e8
:10240000d33124001e00be00d0f907000000e00018
:1024100001003c000200370010c0b300104f9800cc
:102420001e4890000004a2000004e00011003a00e1
:102430008040eb00014f980002002800a3342400e4
:102440001e00be009ef907000000e00001003400fd
:102450000200370012c0b300024f98000e489000ef
:102460000004a2000004e00002003a00c542a800f7
:102470004f0037000040eb00704798000200280032
:10248000a33424001e00be00b0f907000000e000e5
:1024900001003c000200370011c0b30071479800f2
:1024a0007e4090000004a2000004e00011003a0009
:1024b0000041eb00624798000200280073372400b7
:1024c0001e00be007ef907000000e000010034009d
:1024d0000200370010c0b300604798006e409000c3
:1024e0000004a2000004e00002003a00c582a80037
:1024f0002f0037008040eb00514798000200280071
:10250000733724001e00be0090f907000000e000b1
:1025100001003c000200370012c0b300524798008f
:102520005e4090000004a2000004e00011003a00a8
:102530000040eb00404798000200240023392400ab
:102540001e00be005ef907000000e000010034003c
:102550000200370011c0b300414798004e40900080
:102560000004a2000004e00002003a00c522a80016
:102570000f00370002002400233924001e00be0093
:1025800072f907000000e00001003c00080037007d
:1025900002002c00833a24001e00be0048f9070008
:1025a0000000e0000100340001003700c4e2a80090
:1025b0001e00be0044f90700309888000080fa0031
:1025c000000006000200fa00004f780010c0b300bf
:1025d0009e4f100003003a0010c0b30002e8b7009d
:1025e000020037000040eb0002e8b7000000eb00fb
:1025f000001588000000eb00101588000000eb00bb
:10260000201588000000eb0030158800a802a80003
:10261000a822a800a842a900a862a900a882a9002f
:10262000a8a2a900a8c2a900a8e2a900a902a9001d
:10263000a922a900a942a900a962a900a982a9000a
:10264000a9a2a900a9c2a900a9e2a900aa02a900f9
:10265000aa22a900aa42a800aa62a800aa82a800e9
:10266000aaa2a900aac2a900aae2a900ab02a900d5
:10267000ab22a900ab42a900ab62a900ab82a900c2
:10268000aba2a900abc2a900abe2a900112a2000ad
:1026900091407800c0cfb30000c06000a1e2b70055
:1026a000a042a800012a20009140780000ceb3008b
:1026b00000c07000a0e2b700212a200091407800fd
:1026c00030ccb30000c060000034a000a2e2b7002c
:1026d000a342a800512a20009140780000ceb30008
:1026e00000c060000004a000a5e2b70002c8bf005f
:1026f0000004e00007003200412a200091407800e9
:1027000000ccb30000c060003041b300a4e2b700c9
:1027100007003700412a20009140780000ccb30028
:1027200000c0600071c2b30001407000a4e2b700b5
:102730008560a9008d60a800a1e2a80002c8bf00c2
:102740000004e00005003a0000000000119b80003a
:1027500000032000808f5000fbff36000080fa004d
:1027600000000600809fbe00821f78003400f80041
:1027700000c0b300a00188000c00fa000040eb008c
:1027800000e8b7000040eb0001e8b7008560a90051
:1027900002c8bf000004e000290032000028200029
:1027a000000f7800019b80001e0078001000780068
:1027b000000178008180400060802000008040009f
:1027c000020878001e8fe800019b80001e00780040
:1027d00010007800000178008180400060a0200097
:1027e00000804000020878001e8fe800019b8000f6
:1027f0001e00780010007800000178008180400001
:1028000060c0200000804000020878001e8fe800b1
:10281000009b80000000e800009b8800019b800076
:10282000f00f2000808f5000670136000000eb00a1
:10283000009b880010c0b30001e8b70062013700b8
:10284000c001200050158800212a20009140780006
:1028500030ccb30000c060000034a000a2e2b7009a
:10286000412a20009140780000ccb30000c06000f5
:1028700071c2b30001407000a4e2b70041802000a3
:1028800091407800d0c3b30080cf50000f003a00d1
:10289000c00f200050158800212a200091407800a8
:1028a00030ccb30000c060004041b300a2e2b700ea
:1028b000412a20009140780000ccb30000c06000a5
:1028c0003041b300a4e2b7005f0037004180200030
:1028d00091407800e0c3b30080cf50002c003a0054
:1028e000212a20009140780030ccb30000c0600065
:1028f0000044a000a2e2b700412a200091407800e5
:1029000000ccb30000c060007041b300a4e2b70087
:1029100003c8bf000080fb00500798005e009000d5
:10292000e10f500011003200de009000e18f5000f6
:1029300004003c005e0090000000e000080032004f
:1029400041003700de009000e28f50000a003200a4
:102950005e009000e30f50000a0032003a0037009a
:10296000c01121005015880037003700c021220017
:102970005015880034003700c041240050158800ed
:1029800031003700c0812800501588002e00370024
:1029900004c8bf00e24f50002b003a00212a20005b
:1029a0009140780030ccb30000c060000044a0002b
:1029b000a2e2b700412a20009140780000ccb30089
:1029c00000c060007041b300a4e2b70003c8bf00bc
:1029d0000080fb0040079800ce009000e18f50007f
:1029e000110032004e009000e10f500004003c0046
:1029f000ce0090000100e000080032001200370015
:102a00004e009000e20f50000a003200ce0090000d
:102a1000e38f50000a0032000b003700c011210084
:102a20005015880008003700c0212200501588008a
:102a300005003700c041240050158800020037000f
:102a4000c08128005015880000282000000f780061
:102a5000019b80001e0078001000780000017800c3
:102a600081804000608020000080400002087800e3
:102a70001e8fe800019b80001e0078001000780087
:102a8000000178008180400060a0200000804000ac
:102a9000020878001e8fe800019b80001e0078006d
:102aa00010007800000178008180400060c02000a4
:102ab00000804000020878001e8fe800009b800024
:102ac0000000e800009b8800019b8000f00f2000c0
:102ad000808f5000020036000000eb00009b880051
:102ae0004180200091407800e0c3b30080cf5000c7
:102af00024003a00109b80000000e800109b880032
:102b0000119b800010032000808f500002003600cf
:102b10000000eb00109b8800119b80001e007800d5
:102b200010007800000178008180400060e0200003
:102b300000804000020878001e8fe800119b800092
:102b40001e007800100078000001780081804000ad
:102b5000a0e6200000804000020878001e8fe800f8
:102b6000119b80001e0078001000780000017800a2
:102b700081804000e0ec20000080400002087800e6
:102b80007f0037004180200091407800f0c3b300ff
:102b900080cf500038003a0003c8bf000080fb001f
:102ba000300798003e009000e10f500017003200ff
:102bb000be009000e18f500004003c003e009000f9
:102bc0000000e000080032006d003700be009000f9
:102bd000e28f5000160032003e009000e30f5000dc
:102be0001c003200660037001e00780010007800dc
:102bf000907988001e8fe8001e0078001000780091
:102c0000d0798800e2e2a8005d0037001e0078005d
:102c100010007800a07988001e8fe8001e00780060
:102c200010007800e0798800e302a8005400370023
:102c30001e00780010007800b07988001e8fe80030
:102c40001e00780010007800f0798800e802a800e3
:102c50004b0037001e00780010007800c079880013
:102c60001e8fe8001e00780010007800007a8800af
:102c7000e822a8004200370004c8bf00e34f50001c
:102c80003f003a0003c8bf000080fb002007980007
:102c9000ae009000e18f5000190032002e0090002d
:102ca000e10f500004003c00ae0090000100e00085
:102cb00008003200320037002e009000e20f500072
:102cc0001a003200ae009000e38f50002200320064
:102cd0002b0037001e00780010007800107a880062
:102ce0001e8fe8001e00780010007800507a8800df
:102cf000e2e2a90010c0b30003e8b70020003700eb
:102d00001e00780010007800207a88001e8fe800ee
:102d10001e00780010007800607a8800e302a900a5
:102d200020c0b30003e8b700150037001e0078008c
:102d300010007800307a88001e8fe8001e007800ae
:102d400010007800707a8800e802a90030c0b30053
:102d500003e8b7000a0037001e0078001000780072
:102d6000407a88001e8fe8001e007800100078006e
:102d7000807a8800e822a9000040eb0003e8b70051
:102d800004c8bf00304798008040eb0021479800fe
:102d9000f0c3b300be40900080cf50000200360068
:102da00010c0b30020479800be4090000140e800ea
:102db00004e8b7002e4090000004e000020032005a
:102dc0000040eb0004e8b70010c0b30000e8b70013
:102dd0000080fa003400f9004f0178004f00be0077
:102de000004006000000fa0000c8bf000080fb00a1
:102df0000080fa00000006000000fa0001c8bf00d1
:102e00000080fb000080fa00000006000000fa00cd
:102e1000a1e2a8000080fa00000006000000fa000d
:102e2000a1e2a9000080fa00000006002800fa00d4
:102e3000889fbe008a1f78000000eb0030079800d2
:102e40000000eb0020079800100037003e009000c3
:102e500080004000e0312100808040000000eb0055
:102e6000800878003e009000e80047000000400025
:102e700000004000010140006000b8000089be0071
:102e80003e0090000000e800300798003e009000ef
:102e9000e70f5000edff3400290037000000eb0081
:102ea00030079800200037003e0590003e0090005b
:102eb000e800470000004000000040000100400022
:102ec0001004be003e00900043000700cf80de00eb
:102ed0000801400089814800e80047000a004500d9
:102ee00000004000010040000288be006000b80001
:102ef000008fbe00040037001000200001002000f9
:102f00001e0f40005e974800703e20000100200028
:102f1000be0f1000ae8f1800f7ff34003e00900087
:102f20000000e800300798003e009000e70f5000d6
:102f3000ddff34002e0090000000e800200798001c
:102f4000ae00900030062000808f5000d3ff340088
:102f50000000eb0030079800180037003e05900095
:102f60003e009000e80047000000400000004000e4
:102f7000010040001000be00c2f507000004be00c2
:102f80002e009000cf80de00bef507000001be00dd
:102f90000800be00f1f60700cbf60700000178003c
:102fa0008a004500e03121000080400002087800de
:102fb0003e0090000000e800300798003e009000be
:102fc000e70f5000e5ff34004f0578004f04be00c6
:102fd0000080fa00000006000400fa00000f7800ec
:102fe000700020009e0f1000030036000000eb0070
:102ff000100798000c0037001e0078008000400089
:1030000020f3200000804000100178001e007800ae
:103010008000400020f42000008040001000780074
:1030200000015100120798001e0090000080fa0075
:10303000000006000600fa00100798001e0090002d
:10304000e70f5000030036000000eb002007980057
:10305000180037001e0090008000400020f3200080
:1030600000804000100178001e00900080004000a9
:1030700020f4200000804000100078000001510082
:103080001e00900080004000e031210000804000e0
:1030900010007800000f51001e00e0000300340013
:1030a0001e00780020079800020037000000eb00a7
:1030b000200798002e0090000080fa000000060013
:1030c0000400fa00000f7800700020009e0f10002e
:1030d000030036000000eb001007980006003700e0
:1030e0001e0078008000400020f320000080400097
:1030f00010007800100798001e0090000080fa0071
:10310000000006000000fa000000eb0080088800c4
:103110000111200091407800f0ccb30000c06000a5
:1031200010e1b7000000eb0030088800205c2000b0
:103130006008880084c0a9008cc0a80011e1a80024
:103140000080fa00000006000000fa0011e1a9006a
:103150000080fa00000006000800fa00100798003e
:1031600021079800309b8000000f78000b0037008b
:103170001e007800b00090001e009000808f50006c
:1031800003003a0011002000310798001f003700ab
:103190001e007800c0009000010f78001e00e000c3
:1031a000f3ff3a00a00020005df40700000f780054
:1031b0001e00e00002003a0010002000a9f4070001
:1031c000ae0090001e007800010878009e00780094
:1031d0000000eb00900098009e00780010c0b30043
:1031e000c04098001e0078009e00900031009800ba
:1031f000319b80001e007800410098001e0078007e
:10320000309b880011002000310798003e0090009c
:103210000080fa00000006000800fa00200798006d
:103220000000eb0010079800309b8000000f780032
:103230001a0037001e007800b00090002e009000a9
:10324000808f500010003a001e0090000000e00047
:10325000050032001e007800c00090001e009000a3
:1032600041009800030037001e00780040009000e5
:10327000309b88001e0078008cf4070011002000ad
:1032800031079800090037001e00780010079800e9
:103290001e007800c0009000010f78001e00e000c2
:1032a000e4ff3a0020002000300798003e00900024
:1032b0000080fa00000006000800fa0010079800dd
:1032c00021079800309b8000000f78000e00370027
:1032d0001e007800b00090001e009000808f50000b
:1032e00006003a00ae0090001e0078000108780049
:1032f0001100200031079800070037001e007800f9
:10330000c0009000010f78001e00e000f0ff3a00be
:1033100020002000300798003e0090000080fa0056
:10332000000006000600fa0010079800309b80009d
:10333000000f78000e0037001e007800b0009000eb
:103340001e009000808f500006003a009e0078001a
:103350000000eb0090009800110020002107980069
:10336000070037001e007800c0009000010f7800b1
:103370001e00e000f0ff3a00200020002007980027
:103380002e0090000080fa00000006000600fa00ff
:1033900010079800309b8000000f78000e00370067
:1033a0001e007800b00090001e009000808f50003a
:1033b00006003a009e0078000040eb00c0409800f4
:1033c0001100200021079800070037001e00780038
:1033d000c0009000010f78001e00e000f0ff3a00ee
:1033e00020002000200798002e0090000080fa00a6
:1033f000000006000600fa0010079800309b8000cd
:10340000000f78000e0037001e007800b00090001a
:103410001e009000808f500006003a009e00780049
:1034200010c0b300c0409800110020002107980090
:10343000070037001e007800c0009000010f7800e0
:103440001e00e000f0ff3a00200020002007980056
:103450002e0090000080fa00000006003600f80000
:10346000809fbe00829fbe00849fbe00869fbe00dc
:103470003400f80000c0b300a00188000200fa0088
:10348000309b8000000f780084c0a9001e00370028
:103490001e00780040409000e14f500017003a00b5
:1034a0001e007800100078000000e00013003200d9
:1034b0001e007800100090008000e8001e007800d8
:1034c000110098001e007800100090008000780025
:1034d0001e007800100078000000e900808f500086
:1034e000060036001e007800300090000000010049
:1034f0009e0078000000eb00900098001e0078000d
:10350000c0009000010f78001e00e000e0ff3a00cc
:103510000080fa003400f9004f03be004f02be00e5
:103520004f01be004f00be003600f900004006000b
:103530000600fa00000f7800110798001e007800be
:10354000200798002e009000e30f50007d0032000d
:103550002e009000e30f500007003e002e00900068
:10356000e10f5000380032002e009000e10f5000b3
:1035700057003e000d0037002e009000e50f500070
:10358000b20032002e009000e50f5000900039008c
:103590002e009000e60f5000d10032002e00900067
:1035a000e70f5000f5003200160137001e009000b2
:1035b000e10f500014003600c4c2bf000080fb00c1
:1035c0004600de00614060000004a200614060002f
:1035d000614060000040400000404000004040006a
:1035e000004040000040400000414000412c2000cd
:1035f00091407800f0cbb30000c060000240700042
:10360000c4e2b700730137001e0090006140600003
:103610006140600000404000004040000040400029
:10362000004040000040400000414000412c20008c
:1036300091407800f0cbb30000c060000240700001
:10364000c4e2b700630137001e009000e10f500094
:1036500011003600c4c2bf000080fb004700de003e
:103660000004a200614060000040400000404000b3
:10367000004040000040400000404000004040004a
:1036800080404000c4c2bf000074a100014070002f
:10369000c4e2b7004f0137001e0090006140600097
:1036a000004040000040400000404000004040001a
:1036b000004040000040400080404000c4c2bf00c5
:1036c0000074a10001407000c4e2b700410137005e
:1036d0001e009000e10f50000f003600c5c2bf0071
:1036e0000080fb000000d100614060000004a200e7
:1036f000614060006140600000414000512c2000aa
:1037000091407800d0cfb30000c06000024070004c
:10371000c5e2b7002f0137001e0090006140600035
:103720006140600000414000512c20009140780031
:10373000d0cfb30000c0600002407000c5e2b70007
:10374000240137001e009000e10f500012003600e7
:10375000c5c2bf000080fb004400de006140600085
:103760000004a20061406000614060000040400031
:10377000004040000040400000414000512c20002b
:1037800091407800f0ceb30000c0600002407000ad
:10379000c5e2b7000f0137001e00900061406000d5
:1037a0006140600000404000004040000040400098
:1037b00000414000512c200091407800f0ceb30031
:1037c00000c0600002407000c5e2b7000101370090
:1037d0001e009000e10f500010003600c5c2bf006f
:1037e0000080fb004200de00614060000004a20097
:1037f00061406000614060000040400000414000c6
:10380000512c200091407800b0cfb30000c0600080
:1038100002407000c5e2b700ee0037001e009000c5
:103820006140600061406000004040000041400095
:10383000512c200091407800b0cfb30000c0600050
:1038400002407000c5e2b700e20037001e009000a1
:10385000e10f500013003600c5c2bf000080fb001e
:103860004500de00614060000004a200614060008d
:1038700061406000004040000040400000404000c7
:103880000040400000414000512c20009140780051
:10389000f0cdb30000c0600002407000c5e2b70088
:1038a000cc0037001e009000614060006140600065
:1038b0000040400000404000004040000040400008
:1038c00000414000512c200091407800f0cdb30021
:1038d00000c0600002407000c5e2b700bd003700c4
:1038e0001e009000e10f500014003600c5c2bf005a
:1038f0000080fb004600de00614060000004a20082
:1039000061406000614060000040400000404000b5
:1039100000404000004040000040400000414000a6
:10392000512c200091407800f0cbb30000c0600023
:1039300002407000c5e2b700a60037001e009000ec
:103940006140600061406000004040000040400075
:103950000040400000404000004040000041400066
:10396000512c200091407800f0cbb30000c06000e3
:1039700002407000c5e2b700960037001e009000bc
:10398000e10f500011003600c5c2bf000080fb00ef
:103990004700de000004a2006140600000404000db
:1039a0000040400000404000004040000040400017
:1039b0000040400080404000c5c2bf000074a1002c
:1039c00001407000c5e2b700820037001e00900081
:1039d0006140600000404000004040000040400066
:1039e0000040400000404000004040008040400057
:1039f000c5c2bf000074a10001407000c5e2b7005d
:103a0000740037001e0090006140600000404000dc
:103a100000404000004040000040400000404000a6
:103a20000040400080404000c5c2bf000074a100bb
:103a300001407000c5e2b700c5c2bf000080fb00b6
:103a40004700de0061406000004040000040400050
:103a50000040400000404000004040000041400065
:103a6000512c200091407800f0cbb30000c06000e2
:103a700002407000c5e2b700c5c2bf000080fb0075
:103a80004600de0061406000614060000040400090
:103a90000040400000404000004040000041400025
:103aa000512c200091407800f0cdb30000c06000a0
:103ab00002407000c5e2b700c5c2bf000080fb0035
:103ac0004500de0061406000614060000040400051
:103ad00000414000512c200091407800b0cfb3004d
:103ae00000c0600002407000c5e2b700c5c2bf0060
:103af0000080fb004200de00614060006140600029
:103b000000404000004040000040400000414000b4
:103b1000512c200091407800f0ceb30000c060002e
:103b200002407000c5e2b700c5c2bf000080fb00c4
:103b30004400de00614060006140600000414000e0
:103b4000512c200091407800d0cfb30000c060001d
:103b500002407000c5e2b700c5c2bf000080fb0094
:103b60000000d10061406000004040000040400083
:103b70000040400000404000004040000040400045
:103b800080404000c4c2bf000074a100014070002a
:103b9000c4e2b700c4c2bf000080fb004700de00e3
:103ba0006140600000404000004040000040400094
:103bb000004040000040400000414000412c2000f7
:103bc00091407800f0cbb30000c06000024070006c
:103bd000c4e2b7000080fa00000006000000fa000e
:103be000c4c2a900c4e2a900c522a900c582a900d7
:103bf000c542a900c5a2a900c5c2a900c5e2a90085
:103c00000080fa00000006000200fa00000f7800b1
:103c1000100020009e0f100010003600d0c2bf0020
:103c20000080fb004200de00614060000004a20052
:103c30006140600061406000004040000041400081
:103c4000012d200091407800b0cfb30000c060008b
:103c500002407000d0e2b7000b0037001e00780071
:103c60006140600061406000004040000041400051
:103c7000012d200091407800b0cfb30000c060005b
:103c800002407000d0e2b7000080fa000000060099
:103c90000200fa00000f7800100020009e0f1000b4
:103ca0000f003600d0c2bf000080fb000000d10032
:103cb000614060000004a20061406000614060005b
:103cc00000414000012d200091407800d0cfb3008a
:103cd00000c0600002407000d0e2b7000a00370068
:103ce0001e007800614060006140600000414000bb
:103cf000012d200091407800d0cfb30000c06000bb
:103d000002407000d0e2b7000080fa000000060018
:103d10000000fa00c4c2bf000080fb004600de00c5
:103d20006140600000c0ea006140600061406000e6
:103d30000040400000404000004040000040400083
:103d40000040400000414000412c2000914078009c
:103d5000f0cbb30000c0600002407000c4e2b700c6
:103d6000c4c2bf000080fb004700de0000c0ea00c4
:103d700061406000004040000040400000404000c2
:103d800000404000004040000040400080404000b3
:103d9000c4c2bf000074a10001407000c4e2b700bb
:103da000c5c2bf000080fb000000d1006140600080
:103db00000c0ea00614060006140600000414000d6
:103dc000512c200091407800d0cfb30000c060009b
:103dd00002407000c5e2b700c5c2bf000080fb0012
:103de0004400de006140600000c0ea006140600005
:103df0006140600000404000004040000040400042
:103e000000414000512c200091407800f0ceb300da
:103e100000c0600002407000c5e2b700c5c2bf002c
:103e20000080fb004200de006140600000c0ea004c
:103e3000614060006140600000404000004140007f
:103e4000512c200091407800b0cfb30000c060003a
:103e500002407000c5e2b700c5c2bf000080fb0091
:103e60004500de006140600000c0ea006140600083
:103e700061406000004040000040400000404000c1
:103e80000040400000414000512c2000914078004b
:103e9000f0cdb30000c0600002407000c5e2b70082
:103ea000c5c2bf000080fb004600de00614060002c
:103eb00000c0ea00614060006140600000404000d6
:103ec00000404000004040000040400000404000f2
:103ed00000414000512c200091407800f0cbb3000d
:103ee00000c0600002407000c5e2b700c5c2bf005c
:103ef0000080fb004700de0000c0ea006140600077
:103f000000404000004040000040400000404000b1
:103f1000004040000040400080404000c5c2bf005b
:103f20000074a10001407000c5e2b7000080fa00f3
:103f3000000006000000fa00c4c2bf000080fb00c1
:103f40004600de006140600000c0ea0061406000a1
:103f500061406000004040000040400000404000e0
:103f6000004040000040400000414000412c200043
:103f700091407800f0cbb30000c0600002407000b8
:103f8000c4e2b7000080fa00000006000000fa005a
:103f9000c4c2bf000080fb004700de0000c0ea0092
:103fa0006140600000404000004040000040400090
:103fb0000040400000404000004040008040400081
:103fc000c4c2bf000074a10001407000c4e2b70089
:103fd0000080fa00000006000000fa00c5c2bf0021
:103fe0000080fb000000d1006140600000c0ea00da
:103ff000614060006140600000414000512c2000a1
:1040000091407800d0cfb30000c060000240700043
:10401000c5e2b7000080fa00000006000000fa00c8
:10402000c5c2bf000080fb004400de0061406000ac
:1040300000c0ea0061406000614060000040400054
:10404000004040000040400000414000512c200052
:1040500091407800f0ceb30000c0600002407000d4
:10406000c5e2b7000080fa00000006000000fa0078
:10407000c5c2bf000080fb004200de00614060005e
:1040800000c0ea0061406000614060000040400004
:1040900000414000512c200091407800b0cfb30087
:1040a00000c0600002407000c5e2b7000080fa0066
:1040b000000006000000fa00c5c2bf000080fb003f
:1040c0004500de006140600000c0ea006140600021
:1040d000614060000040400000404000004040005f
:1040e0000040400000414000512c200091407800e9
:1040f000f0cdb30000c0600002407000c5e2b70020
:104100000080fa00000006000000fa00c5c2bf00ef
:104110000080fb004600de006140600000c0ea0055
:10412000614060006140600000404000004040008d
:10413000004040000040400000404000004140007e
:10414000512c200091407800f0cbb30000c06000fb
:1041500002407000c5e2b7000080fa0000000600cf
:104160000000fa00c5c2bf000080fb004700de006f
:1041700000c0ea0061406000004040000040400094
:10418000004040000040400000404000004040002f
:1041900080404000c5c2bf000074a1000140700013
:1041a000c5e2b7000080fa00000006000200fa0035
:1041b000000f78009e00780080e82100e6fb0700f1
:1041c0000080fa00000006000000fa0080e82100ec
:1041d00011fc07000080fa00000006000200fa004f
:1041e000000f78001e00e000030035009e007800fc
:1041f00080e8210030fc07000080fa000000060083
:104200000000fa004ed3bf000004e0000b003a00ab
:104210008000eb0070002000c5fc07004ed3bf00fb
:104220000080fb0011002000c1fc07004ed3bf003e
:104230000040e8004ef3b7001b0037004ed3bf002c
:10424000e74f50000c003a004ed3bf000080fb0047
:104250000000e9008000eb00b5fc07004ed3bf0072
:104260000080fb0011002000b1fc07000040eb00c3
:104270004ef3b7000c0037004ed3bf000080fb00a8
:104280000000e9008000eb00a9fc07004ed3bf004e
:104290000080fb0011002000a5fc07004ed3bf00ea
:1042a0000040e8004ef3b7000080fa00000006006e
:1042b0000200fa004fd3bf000080fb00000f78001f
:1042c0001e007800e20f50001c0032001e00780033
:1042d000e20f500007003c001e0078000000e000e4
:1042e0000b0032001e007800e10f50000c0032007d
:1042f000230037001e007800e30f50001600320044
:104300001e007800e40f50001a0032001c00370035
:10431000210020000000eb0085fc0700180037009a
:10432000210020001000200081fc07002100200057
:10433000700020007efc07001100370021002000e3
:10434000200020007afc07002100200060002000ef
:1043500077fc07000a003700210020003000200011
:1043600073fc0700210020005000200070fc0700b3
:104370000300370021002000400020006cfc0700f3
:104380004fd3bf00e34f500004003e004fd3bf00a7
:104390000040e8004ff3b700020037000040eb0098
:1043a0004ff3b7000080fa00000006000000fa009a
:1043b00050d3bf000004e0000f003a0068d3bf00f4
:1043c0000004e0000c00320010c0b30050f3b7004e
:1043d0008000eb000000eb0055fc070050d3bf004d
:1043e0000080fb001100200051fc07000040eb00a2
:1043f00068f3b7002b00370050d3bf000004e00083
:104400000f003a0068d3bf000004e0000c003a003f
:1044100070c0b30050f3b7008000eb000000eb0069
:1044200043fc070050d3bf000080fb0011002000b8
:104430003ffc070010c0b30068f3b7001900370055
:1044400050d3bf00e74f50000a003a000040eb0095
:1044500050f3b7008000eb007000200034fc070030
:1044600050d3bf000080fb001100200030fc07008b
:104470000c00370050d3bf00e14f500009003a0054
:104480000040eb0050f3b7008000eb00100020006c
:1044900027fc070050d3bf000080fb001100200064
:1044a00023fc07000080fa00000006000200fa006a
:1044b00051d3bf000080fb00000f78001e00780081
:1044c000e10f5000150032001e007800e10f50008f
:1044d00004003c001e0078000000e00008003200ec
:1044e0001a0037001e007800e20f50001200320060
:1044f0001e007800e30f5000130032001300370055
:10450000210020000000eb0009fc07002100200032
:104510004000200006fc07000c00370021002000ae
:104520001000200002fc07002100200030002000c5
:10453000fffb0700050037002100200020002000bd
:10454000fbfb070001003700a4fd070051d3bf00ab
:10455000e24f500004003e0051d3bf000040e8008d
:1045600051f3b700020037000040eb0051f3b700f1
:104570000080fa00000006000200fa0052d3bf00db
:104580000080fb00000f78001e007800e10f500053
:10459000150032001e007800e10f500004003c00be
:1045a0001e0078000000e000080032001a0037000a
:1045b0001e007800e20f5000120032001e0078004a
:1045c000e30f5000130032001300370021002000d9
:1045d0000000eb00d6fb0700210020004000200077
:1045e000d3fb07000c0037002100200070002000e2
:1045f000cffb07002100200050002000ccfb07006b
:10460000050037002100200060002000c8fb0700e3
:104610000100370071fd070052d3bf00e24f500088
:1046200004003e0052d3bf000040e80052f3b70040
:10463000020037000040eb0052f3b7000080fa00a0
:10464000000006000400fa00d09980000000e0009d
:104650001f0032007199800080da2f00808f500097
:104660001b0035007199800080252000808f50004c
:1046700017003c00d602a900d622a900d642a90004
:10468000d662a9000000eb00d099880070998000e4
:1046900000017800120798001e0190000200e0005f
:1046a00003003d001e0190000201ea00120798007d
:1046b000007122001e019000110009000200d800c4
:1046c000ef00500020322200fbfa07004d003700b7
:1046d000709980000000e0000c003400b099800068
:1046e0000000e800b0998800909980000000e9007f
:1046f00090998800909980000000e0000e003d0035
:1047000030002000909988000b003700b09980009d
:104710000000e900b0998800909980000000e8004e
:104720009099880090998000e30f500002003400b7
:104730000000eb009099880090998000000f7800ad
:104740001e017800e10f5100130032001e007800b6
:10475000e10f500004003c001e0178000200e00060
:10476000080032001a0037001e007800e20f5000e7
:104770000e0032001e017800e30f510010003200dd
:1047800013003700d602a900d622a800d642a900fd
:10479000d662a8000e003700d602a900d622a800d3
:1047a000d642a800d662a90009003700d602a800a8
:1047b000d622a900d642a800d662a900040037007c
:1047c000d602a800d622a900d642a900d662a80027
:1047d0007199800080da2f00808f50000900350029
:1047e0007199800080252000808f500005003c00da
:1047f00010002000d0998800f10020002032220013
:10480000adfa07000080fa00000006000400fa007c
:10481000e09980000000e0001f00320081998000d4
:1048200080da2f00808f50001b00350081998000b6
:1048300080252000808f500017003c00d682a90000
:10484000d6a2a900d6c2a900d6e2a9000000eb00ba
:10485000e099880080998000000178001207980094
:104860001e0190000200e00003003d001e019000c8
:104870000201ea0012079800007122001e01900058
:10488000110009000200d800ef0050006040220033
:1048900089fa07004d003700809980000000e00091
:1048a0000c003d00c09980000000e900c09988001c
:1048b000a09980000000e900a0998800a0998000dc
:1048c0000000e0000e003d0030002000a0998800ac
:1048d0000b003700c09980000000e800c0998800f4
:1048e000a09980000000e800a0998800a0998000ad
:1048f000e30f5000020034000000eb00a099880094
:10490000a0998000000f78001e017800e10f51008f
:10491000130032001e007800e10f500004003c003c
:104920001e0178000200e000080032001a00370083
:104930001e007800e20f50000e0032001e017800c9
:10494000e30f51001000320013003700d682a90097
:10495000d6a2a800d6c2a900d6e2a8000e00370051
:10496000d682a900d6a2a800d6c2a800d6e2a90085
:1049700009003700d682a800d6a2a900d6c2a80096
:10498000d6e2a90004003700d682a800d6a2a9006a
:10499000d6c2a900d6e2a8008199800080da2f0053
:1049a000808f50000900350081998000802520000b
:1049b000808f500005003c0010002000e099880026
:1049c000f1002000604022003bfa07000080fa005e
:1049d000000006000000fa008000eb0020322200f8
:1049e000ddf907008000eb0060402200daf90700e3
:1049f0000080fa00000006000200fa00000f7800b4
:104a00001e00e0000a003a000000eb0070998800e8
:104a10008000eb002032220027fa0700d602a9000e
:104a2000d622a900d642a900d662a9002d003700df
:104a300080c12f009e0f10000a003d0080c12f0092
:104a40007099880072998000008f2d001100090074
:104a50000200d800800078002032220016fa0700f9
:104a600020003700803e20009e0f10000a00340016
:104a7000803e2000709988007299800000712200a9
:104a8000110009000200d8008000780020322200c6
:104a900009fa0700130037001e007800709988009b
:104aa0001e00e00008003d00008f2d001e01780070
:104ab000110009000200d800800078002032220096
:104ac000fdf9070007003700007122001e01780081
:104ad000110009000200d800800078002032220076
:104ae000f5f907000080fa00000006000200fa0055
:104af000000f78001e00e0000a003a000000eb0002
:104b0000809988008000eb0060402200eaf90700ed
:104b1000d682a900d6a2a900d6c2a900d6e2a900d1
:104b20002d00370080c12f009e0f10000a003d00ad
:104b300080c12f008099880082998000008f2d000d
:104b4000110009000200d8008000780060402200b7
:104b5000d9f9070020003700803e20009e0f10008a
:104b60000a003400803e20008099880082998000ed
:104b700000712200110009000200d80080007800b6
:104b800060402200ccf90700130037001e007800b7
:104b9000809988001e00e00008003d00008f2d0075
:104ba0001e017800110009000200d8008000780082
:104bb00060402200c0f907000700370000712200a2
:104bc0001e017800110009000200d8008000780062
:104bd00060402200b8f907000080fa0000000600db
:104be0000800fa00000f7800110798001e007800f6
:104bf000300798003e0190000200e00003003d00f5
:104c00003e0090000000ea00300798001e0190006e
:104c1000220798002e0090000000e00003003d00f5
:104c20002e0190000201ea00220798003e00900049
:104c30002e01900082004000803e2000808f5000b6
:104c400006003c001e0090001e0010006aff0700d6
:104c50001e0090001e004000a4ff07000080fa0024
:104c6000000006000000fa00b09980000080fa0001
:104c7000000006000200fa00000f78001e00780015
:104c8000b09988000080fa00000006000000fa00d9
:104c9000c09980000080fa00000006000200fa00bf
:104ca000000f78001e007800c09988000080fa008c
:104cb000000006000200fa00e202a8000000eb007b
:104cc000000f7800010037001e0fe800f07022008e
:104cd0009e0f1000fcff3400670007001000070063
:104ce0000080fa00000006000400fa00000f7800bf
:104cf0001107980040b3ef003e33ef009e00900094
:104d00001e0078007b0007000080fa00000006000b
:104d10000000fa00e202a9000080fa00000006008c
:104d2000811f7800801f7800f0ff2700c0128800e4
:104d3000003020000000b300d0128800de02a9007d
:104d400000000000e002a90090010900000000003e
:104d5000e002a80041e2a8004602ae00feff3700d4
:104d6000f0ff2700c0128800004020003001b3008f
:104d7000d01288004602ae00feff3700f0ff270089
:104d8000c0128800001020000030a0000040a000e9
:104d9000d01288004602ae00feff3700f0ff270069
:104da000c012880000202000d01288004602ae0009
:104db000feff3700f0ff2700c012880000602000cf
:104dc0000010a000d01288004602ae00feff37009f
:104dd000f0ff2700c012880000702000f005b3002b
:104de000d01288004602ae00feff370001f020001e
:104df00030128000010060000000e000fcff3a007b
:104e000030128000010060000000e000fcff320072
:104e100030128000010060000000e000fcff3a005a
:104e200030128000010060000000e000fcff320052
:104e30004662ae00020037008012800090128000af
:104e400041e2a900f01e2000101288004362a80071
:104e50004342a8008920a900a8c0a800a8a0a900d2
:104e6000a880a9009120a80041e2a8004f00780086
:104e7000cf00780000000600801f78004022ef007d
:104e80004222ef004422ef004822ef004c22ef00c4
:104e9000c6e2a800e5a2a900e582a800e5e2a90013
:104ea000e5c2a9004002a9004022a90040a2a90031
:104eb0004122a90040c2a8004102a9004142a90024
:104ec000f00e2000101288004362a9004342a8009f
:104ed00030002000201288004c02a8004802a800e0
:104ee0008920a9009120a90041e2a9004f00780083
:104ef00000000600811f7800821f78004100dd005d
:104f0000030037004f017800cf0078000000060052
:104f1000119a88000001eb0061ed2b008100400038
:104f200003003900020028008280400012002000a7
:104f30004400f8003400f8004440a80000002000bd
:104f400002004000a001880000000000e2270200eb
:104f500000000000110078000000a100c0128800cd
:104f6000e227020000000000110078000000a1000c
:104f7000d0128800e2270200000000001100780033
:104f80000000a100e0128800e227020000000000fb
:104f9000110078000000a100f012880042b3ed007b
:104fa00042b3ed00519b8800a1018000219a880046
:104fb0003400f900000000004400f9008920a90035
:104fc000d0ff3700e280400004003900a1018000da
:104fd000e1804000a10188000100280000000600d7
:104fe0003400f800881f780008c0b300a8018800ca
:104ff0004f0478000000fa0086c0a9001fe1a80055
:1050000021e1a9000080fa003400f9000040060008
:105010000000fa0020002000000988000000eb00da
:10502000c008880010002000e008880086c0a900a1
:105030008ec0a80021e1a8000080fa000000060050
:105040000000fa0020002000f0088800907a80001c
:10505000a0088800907a80000000e800d00888004e
:1050600086a0a9001fe1a9008ea0a8000080fa0078
:10507000000006000200fa00000f78000000eb00bc
:10508000c07a88001e007800a07a88000000eb003b
:10509000b07a8800eaff0700ddff07000080fa0011
:1050a000000006001200fa0030079800410798003f
:1050b0005207980063079800740798000000eb00ff
:1050c00010079800ce0090005e0090000088b900a4
:1050d000800078006e0090000000e8000088b900b1
:1050e0000000e80080007800a0142000808f5000ad
:1050f000030036000080eb00000f980035003700f9
:105100000000eb0020079800230037000000eb00b0
:10511000000f7800090037009e009000c0f52000c5
:105120008080400010c0b300804878001e009000ce
:105130000000e800100798001e0fe8005e009000d5
:105140009e0f1000f4ff35000000eb00000f780008
:10515000090037009e009000c0f5200080804000cc
:105160000040eb00804878001e0090000000e8003e
:10517000100798001e0fe800ee0090005e009000ff
:105180000088b9009e0f5000f2ff3c002e009000f6
:105190000000e80020079800ae0090004e0090004c
:1051a000808f5000d9ff35009e009000c0f5200090
:1051b0008080400020c0b300804878007e009000ce
:1051c000907a88003e009000d07a88000000eb00c2
:1051d000000f98000e0890000080fa000000060002
:1051e0000000fa00b07a80000080fa00000006009b
:1051f0001200fa00000f78001107980022079800ab
:1052000033079800440798005507980066079800f0
:10521000609b8000000f9800000323008e08900020
:10522000808f500005003200000326008e08900099
:10523000808f50000b003200140037006e03900086
:10524000de0290004e029000be0190002e01900000
:105250009e0090001e0078004e0607007007980020
:105260000c0037006e039000de0290004e029000aa
:10527000be0190002e0190009e0090001e0078005c
:105280007e07070070079800020037000080eb00df
:10529000700798007e0090000080fa000000060071
:1052a0000600fa00000f780011079800609b80004c
:1052b0002007980000032300ae009000808f50006c
:1052c0000500320000032600ae009000808f5000e1
:1052d00005003200070037009e0090001e00780095
:1052e0007a010700030037009e0090001e0078003e
:1052f0000b0607000080fa00000006000000fa001c
:10530000619b800000032300808f50000100320069
:1053100001003700560007000080fa000000060078
:105320000400fa0075f10700520a0700d1a2a90093
:10533000400620001007980004003700000000001d
:105340001e0090000000e900100798001e00900069
:105350000000e000f9ff3a00d1a2a80040062000ba
:105360001007980004003700000000001e009000a5
:105370000000e900100798001e0090000000e00007
:10538000f9ff3a0081e0a900f1048000f0002f004d
:10539000808060000066200000804000f0048800eb
:1053a0008040eb00c0cdb3003e0a070010479800d4
:1053b00011c0b300c0cdb3003a0a0700004f780017
:1053c0001e4090000080fb000000400000004000f4
:1053d00000004000000040000000400000004000cd
:1053e0000000400000004000800078001e80fb00ac
:1053f00000807000609b88000080fa0000000600ba
:1054000000a0fe0086a0a9001421ef00000000000b
:10541000a17a8000c2f5200013002000321ce100b8
:105420000500320008003500000000000000000008
:1054300000000000f9ff3700a01680004800de00e1
:1054400080587800f5ff3700a17a8800582fec00cb
:10545000c07a80005a0fe30003003a0010002000d9
:10546000b07a88001fe1a9000080fe00004006001d
:105470000200fa00030a07000000eb00000f7800aa
:105480000d0037009e00e800a01e210000804000b3
:1054900010407800004178009e007800a01e210096
:1054a000008040001040780080407800c0cdb300fc
:1054b000200a07001e8fe8009e007800700d200073
:1054c000808f5000efff3600f20907000080fa00dd
:1054d000000006000200fa00881f7800e9090700b2
:1054e0000000eb00000f78000d0037001e04e800fc
:1054f0009e007800a01e210000804000104078002f
:1055000080407800c0cdb300e609070080407800f5
:10551000a01e210000004400014878001e8fe80012
:105520009e007800700d2000808f5000efff360045
:10553000d80907004f0478000080fa000000060038
:105540000600fa00000f78001e007800200798007f
:105550002e009000e10f50000a0032002e00900053
:10556000e20f50000a0032002e0090000000e00020
:105570000100320009003700c0c0b3002df2b700af
:105580000900370080c0b3002df2b70006003700d5
:1055900020c0b3002df2b700030037000080eb00fd
:1055a00010079800020037000000eb001007980079
:1055b0001e0090000080fa00000006000400fa00bf
:1055c000000f7800400420009e0f100006003200fb
:1055d000100120009e0f1000030032003003200055
:1055e0009e0f100005003a001e0078001df2b70063
:1055f0000000eb0010079800020037000080eb006d
:10560000100798001e0090000080fa0000000600bd
:105610000400fa00000f78001e00e00015003200c0
:10562000000220009e0f1000120032000003200034
:105630009e0f10000f003200000420009e0f10008b
:105640000c003200000520009e0f100009003200ff
:10565000000620009e0f1000060032000006200009
:105660009e0f100003003200000120009e0f10006a
:1056700005003a001e00780017f2b7000000eb00aa
:1056800010079800020037000080eb001007980018
:105690001e0090000080fa00000006000a00fa00d8
:1056a0002007980031079800ae0090003e0090005f
:1056b000808f5000030039000080eb004007980005
:1056c0001e003700be00900030382000808f500050
:1056d000030036000080eb004007980017003700f9
:1056e0002e0090000000e900200798002e00900096
:1056f000204798002e0090004800de0030479800b8
:105700003e009000004f78003e0090004800de0010
:10571000104798003e409000f3f1b7002e409000f3
:10572000f5f1b7001e409000fbf1b7001e40780075
:10573000fdf1b7000000eb00400798004e0090001c
:105740000080fa00000006000a00fa002007980016
:1057500031079800ae0090003e009000808f50000e
:10576000030039000080eb00400798001b00370061
:10577000be009000301f2000808f500003003600d4
:105780000080eb0040079800140037002e009000c6
:10579000204798002e0090004800de003047980017
:1057a0003e009000004f78003e0090004800de0070
:1057b000104798003e409000f7f1b7002e4090004f
:1057c000f9f1b7001e409000fff1b7001e407800cd
:1057d00001f2b7000000eb00400798004e00900077
:1057e0000080fa00000006000e00fa003007980062
:1057f0004107980052079800be0090004e009000ac
:10580000808f5000030039000080eb006007980093
:105810002b003700ce009000301f2000808f5000fa
:10582000030036000080eb0060079800240037007a
:10583000de00900030382000808f500003003600da
:105840000080eb00600798001d0037003e009000cc
:10585000404798003e0090004800de005047980006
:105860004e009000204798004e0090004800de0057
:10587000304798005e009000104798005e0090004e
:105880004800de00004f78005e4090007bf2b700d9
:105890004e4090007df2b7003e4090007ff2b7008e
:1058a0002e40900081f2b7001e40780083f2b700ce
:1058b0001e40900085f2b7000000eb0060079800e2
:1058c0006e0090000080fa00000006000600fa005a
:1058d00010079800210798001e0090000000e000cb
:1058e000060032002e0090000000e00003003200ad
:1058f000a0ccb300004f78000e0037001e009000cf
:105900000000e00003003200a0c4b300004f7800a4
:10591000080037002e0090000000e0000300320075
:10592000a0c8b300004f780002003700a0c0b30049
:10593000004f78001e40780019f2b7000080fa008e
:10594000000006000600fa00204798003147980042
:105950000000eb00000f7800100037009e00780078
:10596000a01e210000804000904078002e40900052
:1059700080cf500008003a001e00e800a11e210060
:1059800001004000be409000014878000000eb009c
:1059900020079800070037001e8fe8009e0078005f
:1059a000700d2000808f5000ecff36008080eb00ef
:1059b000210798002e0090000080fa0000000600e9
:1059c0000800fa0020479800210798000000eb002b
:1059d000000f7800110037009e007800a01e210003
:1059e00000804000904078002e40900080cf500012
:1059f00009003a009e00e800a01e2100008040003f
:105a0000904078002e009000014878000000eb00e4
:105a100030079800070037001e8fe8009e007800ce
:105a2000700d2000808f5000ebff36000080eb00ef
:105a3000300798003e0090000080fa000000060049
:105a40000200fa00004f7800114798001e409000b5
:105a500003f2b7001e40780005f2b7000080fa009c
:105a6000000006000800fa00004f78001147980077
:105a7000224798003347980044479800f0c4b30089
:105a80009e4f1000030036000080eb0030079800a6
:105a90000c0037001e40780007f2b7001e4090004f
:105aa00009f2b7002e4090000bf2b7004e40900074
:105ab0000df2b7003e4090000ff2b7000000eb007f
:105ac000300798003e0090000080fa0000000600b9
:105ad0000400fa00008fbe001e00be004a09dd006f
:105ae0004600de0000007100c608de0013f2b700b9
:105af0001e00be004209dd004e00de000000710005
:105b0000ce08de0011f2b7000040eb0015f2b7003e
:105b10000080fa00000006000200fa00004f780042
:105b20001e4078001ff2b7000080fa000000060057
:105b30000200fa00000f78001e00e00005003200ad
:105b40002fd2bf0001c8b300014070002ff2b70090
:105b5000030037002fd2bf000074a1002ff2b7005e
:105b60000080fa00000006000400fa00004f7800f0
:105b700011479800224798001e40780033f2b70082
:105b80001e40900035f2b7002e40900037f2b7006b
:105b90000080fa00000006000200fa00004f7800c2
:105ba000114798001e4078007f4060000045b0001b
:105bb00039f2b7001e4090003bf2b7000080fa00b7
:105bc000000006000600fa00100798004147980000
:105bd0004e4090000000fb006300600000004000a9
:105be00000004000000040000000400000004000b5
:105bf0008040780000c8b30000c04000c1f2b70088
:105c00000000eb00000f78000d0037001e00780048
:105c10000000400032052000000141001e00780015
:105c2000800078001e0090000080400090407800c6
:105c3000a01e210000004100014878001e0fe8006e
:105c40001e007800e10f5000f0ff36000080fa00df
:105c5000000006000000fa000a080700c1d2bf00d9
:105c600000417800c0d2bf0080407800c0cdb300b2
:105c7000300807000708070021252100914078001f
:105c80003cd2bf00020007000080fa0000000600be
:105c90000600fa0040479800514798000000eb00ca
:105ca000000f7800f70707000000eb0010079800ce
:105cb0001f0037009e009000a01e210000804000c1
:105cc000904078004e40900080cf50001500390081
